:100000000C9464000C944C040C9473040C94A3069C
:100010000C94A3060C94A3060C948C000C94EF0390
:100020000C948C000C948C000C948C000C948C0020
:100030000C948C000C948C000C948C000C948C0010
:100040000C949A040C948C000C94E8010C942002FB
:100050000C948C000C948C000C948C000C948C00F0
:100060000C948C000C948C0002000000080002012B
:10007000000003040700000000000000000102046B
:10008000081020408001020408102001020408101A
:100090002004040404040404040202020202020311
:1000A00003030303030000000023002600290000CF
:1000B000000000250028002B00000000002400277D
:1000C000002A00005002BF0211241FBECFEFD8E06B
:1000D000DEBFCDBF12E0A0E0B1E0E4E3F8E102C092
:1000E00005900D92A03AB107D9F724E0A0EAB2E05A
:1000F00001C01D92A735B207E1F710E0C4E6D0E0D9
:1001000004C02197FE010E94F80BC236D107C9F73F
:100110000E94CB020C94180C0C940000FC01918DF1
:10012000228D892F90E0805C9F4F821B91098F73F5
:1001300099270895FC01918D828D981731F0828D59
:10014000E80FF11D858D90E008958FEF9FEF0895E2
:10015000FC01918D828D981761F0828DDF01A80FCF
:10016000B11D5D968C91928D9F5F9F73928F90E0F1
:1001700008958FEF9FEF0895FC01238D348D231791
:1001800038F08FE390E0821B9109830F911D089551
:10019000832F90E0821B91090197089586E492E0F5
:1001A000892B49F080E090E0892B29F00E944602DB
:1001B00081110E9400000895FC01848DDF01A80FC9
:1001C000B11DA35ABF4F8C91248D30E02F5F3F4F5C
:1001D0002F733078332334F421503109206C3F6F72
:1001E0002F5F3F4F248FA689B7898C93A089B1894F
:1001F0008C91837080648C93938D848D981306C04A
:100200000288F389E02D80818F7D80830895CF93CC
:10021000DF93EC01888D8823D9F0EA89FB898081FE
:1002200085FD05C0A889B9898C9186FD11C00FB6DE
:1002300007FCF5CF808185FFF2CF04C0CE010E947C
:10024000DC00EBCFA889B9898C9185FFE8CFF6CF88
:10025000DF91CF9108950F931F93CF93DF93EC011C
:1002600081E0888F9B8D8C8D981326C0E889F98951
:10027000808185FD32C020C08C8D18130CC00FB654
:1002800007FCFACFE889F989808185FFF5CFCE0197
:100290000E94DC00F1CF8B8DFE01E80FF11DE35AC7
:1002A000FF4F00839FB7F8941B8FEA89FB898081F9
:1002B000806280839FBF1DC02B8D30E02F5F3F4F3A
:1002C0002F733078332334F421503109206C3F6F81
:1002D0002F5F3F4F062F122FCFCF9FB7F894EE8995
:1002E000FF896083E889F9898081837080648083D5
:1002F0009FBF81E090E0DF91CF911F910F91089512
:10030000CF92DF92EF92FF921F93CF93DF93EC0196
:100310006A017B01122FE889F98982E08083411507
:10032000514E61057105B1F060E079E08DE390E038
:10033000A70196010E94D60BDA01C9010197A10914
:10034000B109B695A795979587959C01211580E1F0
:100350003807A8F0E889F989108260E874E88EE12E
:1003600090E0A70196010E94D60BDA01C90101971E
:10037000A109B109B695A795979587959C01EC853C
:10038000FD853083EE85FF852083188EEC89FD89FD
:100390001083EA89FB89808180618083EA89FB89F7
:1003A000808188608083EA89FB898081806880837E
:1003B000EA89FB8980818F7D8083DF91CF911F91B6
:1003C000FF90EF90DF90CF90089580E090E0089547
:1003D0001F920F920FB60F9211242F938F939F931A
:1003E000AF93BF93EF93FF93E091B002F091B1020E
:1003F000808182FD14C0E0EAF2E0A689B7892C91E1
:10040000818D8F5F8F73928D891771F0DF01E18D80
:10041000F0E0E056FD4F258F59968C9305C0E09192
:10042000B602F091B7028081FF91EF91BF91AF9139
:100430009F918F912F910F900FBE0F901F90189545
:100440001F920F920FB60F9211242F933F934F9349
:100450005F936F937F938F939F93AF93BF93EF932C
:10046000FF9380EA92E00E94DC00FF91EF91BF9140
:10047000AF919F918F917F916F915F914F913F913C
:100480002F910F900FBE0F901F90189580EA92E069
:100490000E948E0021E0892B09F420E0822F08952C
:1004A000E0EAF2E01382128288EE93E0A0E0B0E08E
:1004B00084839583A683B78389E091E091838083C9
:1004C00085EC90E09587848784EC90E09787868719
:1004D00080EC90E0918B808B81EC90E0938B828B11
:1004E00082EC90E0958B848B86EC90E0978B868BEA
:1004F000118E128E138E148E08958F929F92AF924A
:10050000BF92CF92DF92EF92FF920F931F93CF9300
:10051000DF936C017B014C0182E0880E911C560137
:10052000E5E0AE0EB11C00E010E0F40161914F0176
:100530004AE050E0C7010E94B103EC016EE2C7013E
:100540000E941D038C0F9D1F080F191F8A149B0406
:1005500061F74AE050E0F6016581C7010E94B103EE
:10056000800F911FDF91CF911F910F91FF90EF901E
:10057000DF90CF90BF90AF909F908F900895EDE364
:10058000F3E08BE191E091838083128213821482E5
:100590001582089508950E94E4040E94CA02CEECD8
:1005A000D0E00E94730A2097E1F30E94CE00F9CFB9
:1005B000CF92DF92EF92FF920F931F93CF93DF932F
:1005C00041155105C1F06A018C01E62EF72EC0E0FD
:1005D000D0E0D7016D917D01D801ED91FC910190A2
:1005E000F081E02DC8010995892B39F02196CC16B0
:1005F000DD0679F702C0C0E0D0E0CE01DF91CF91F7
:100600001F910F91FF90EF90DF90CF9008956115AB
:10061000710581F0FB0101900020E9F73197AF01EE
:10062000461B570BDC01ED91FC910280F381E02D1C
:100630000995089580E090E00895DC01ED91FC912A
:100640000190F081E02D09950895DC01ED91FC9178
:100650000280F381E02D42E050E06DE171E0099508
:1006600008950F931F93CF93DF93EC010E9407032C
:100670008C01CE010E942503800F911FDF91CF9145
:100680001F910F9108958F929F92AF92BF92EF9218
:10069000FF920F931F93CF93DF93CDB7DEB7A19750
:1006A0000FB6F894DEBF0FBECDBF7C01CB01BA01FF
:1006B00019A2223008F42AE08E010F5D1F4F822E0E
:1006C000912CA12CB12CA50194010E94D60BE62FF0
:1006D000622F732F842F952F01501109EA3010F4E7
:1006E000E05D01C0E95CD801EC93611571058105FD
:1006F000910549F70115110591F0F80101900020CD
:10070000E9F73197AF01401B510BD701ED91FC91F7
:100710000280F381E02DB801C701099502C080E095
:1007200090E0A1960FB6F894DEBF0FBECDBFDF916B
:10073000CF911F910F91FF90EF90BF90AF909F903E
:100740008F9008952115310549F4DC01ED91FC915C
:100750000190F081E02D642F099508950E944303D4
:1007600008959A01462F50E060E070E00E94A203D5
:100770000895813039F018F0823051F008951092C8
:100780006E000895EFE6F0E080818D7F808308950C
:10079000E0E7F0E080818D7F808381E08093B0008E
:1007A000E1EBF0E08081887F846080831092B30069
:1007B0000895CF93C82F80910001C81307C0E8E6C1
:1007C000F0E084919FEF9093000101C08FEF0E94B1
:1007D000B90360E08C2F0E948D05CF9108951F9280
:1007E0000F920FB60F9211242F933F934F935F9365
:1007F0006F937F938F939F93AF93BF93EF93FF93E9
:100800008091460390914703A0914803B09149031A
:10081000892B8A2B8B2B51F190914303E091440358
:10082000F0914503808189278083809146039091D0
:100830004703A0914803B0914903181619061A06F8
:100840001B06C4F48091460390914703A09148038E
:10085000B09149030197A109B10980934603909390
:100860004703A0934803B093490304C0809100015B
:100870000E94D903FF91EF91BF91AF919F918F910A
:100880007F916F915F914F913F912F910F900FBE8C
:100890000F901F90189508951F920F920FB60F9208
:1008A00011242F933F934F935F936F937F938F9375
:1008B0009F93AF93BF93EF93FF93E0910101F0916A
:1008C00002010995FF91EF91BF91AF919F918F9197
:1008D0007F916F915F914F913F912F910F900FBE3C
:1008E0000F901F9018951F920F920FB60F92112420
:1008F0002F933F934F935F936F937F938F939F9328
:10090000AF93BF93EF93FF93E0910301F091040144
:100910000995FF91EF91BF91AF919F918F917F9139
:100920006F915F914F913F912F910F900FBE0F905C
:100930001F9018951F920F920FB60F9211242F93AC
:100940003F938F939F93AF93BF9380914B0390916D
:100950004C03A0914D03B0914E0330914A0323E024
:10096000230F2D3720F40196A11DB11D05C026E8E7
:10097000230F0296A11DB11D20934A0380934B03C0
:1009800090934C03A0934D03B0934E0380914F037B
:1009900090915003A0915103B09152030196A11D73
:1009A000B11D80934F0390935003A0935103B093D4
:1009B0005203BF91AF919F918F913F912F910F90D3
:1009C0000FBE0F901F901895789484B5826084BDF7
:1009D00084B5816084BD85B5826085BD85B5816043
:1009E00085BDEEE6F0E0808181608083E1E8F0E0A3
:1009F0001082808182608083808181608083E0E8D2
:100A0000F0E0808181608083E1EBF0E080818460B0
:100A10008083E0EBF0E0808181608083EAE7F0E0B2
:100A20008081846080838081826080838081816016
:100A300080838081806880831092C1000895833014
:100A400069F028F48130B1F08230C1F00895873028
:100A5000C9F08830E9F0843001F506C0E0E8F0E044
:100A600080818F7780830895E0E8F0E080818F7D3A
:100A70008083089584B58F7784BD089584B58F7D74
:100A800084BD0895E0EBF0E080818F778083089546
:100A9000E0EBF0E080818F7D80830895CF93DF933A
:100AA00090E0FC01E358FF4F2491FC01EF56FF4F0B
:100AB0008491882379F190E0880F991FFC01E75415
:100AC000FF4FA591B491FC01E155FF4FC591D49121
:100AD00061110CC09FB7F8948C91E22FE0958E23A2
:100AE0008C932881E223E8839FBF14C0623061F4B5
:100AF0009FB7F8948C91322F309583238C93E881A3
:100B0000E22BE8839FBF06C08FB7F894EC91E22BED
:100B1000EC938FBFDF91CF9108951F93CF93DF9315
:100B2000282F30E0F901E759FF4F8491F901E3588C
:100B3000FF4F1491F901EF56FF4FC491CC23D1F030
:100B4000D62F81110E941F05EC2FF0E0EE0FFF1F42
:100B5000E155FF4FA591B4918FB7F894D11106C01C
:100B60009C91E12FE095E923EC9303C0EC91E12BFC
:100B7000EC938FBFDF91CF911F9108952091550481
:100B8000309156042817390799F4909153038091B6
:100B90005403981781F0E0915303F0E0EB5AFC4FB7
:100BA0008081209153032F5F2093530390E0089599
:100BB0008FEF9FEF08958FEF9FEF089520915504D9
:100BC000309156042817390799F4209154038091E5
:100BD000530330E03395281B3109307833232CF44C
:100BE000215031093F6F2F5F3F4F822F932F089580
:100BF00080E090E008951F93CF93DF93EC014C8D3C
:100C00005D8D4115510529F481E090E09B838A8335
:100C100038C0A989BA898889382F30951FB79E8D29
:100C2000792F727091FD6095F894772321F09C9153
:100C3000982B9C9303C09C9193239C93FA0131972A
:100C4000F1F798E060FF04C02C91282B2C9303C08F
:100C50002C9123232C93FA013197F1F7669591504B
:100C600089F7772321F08C9138233C9303C09C9122
:100C7000892B8C931FBF8C8D9D8D0197F1F741E0DF
:100C800050E0CA01DF91CF911F91089508952091FE
:100C90005504309156042817390771F49091530385
:100CA00080915403981759F0E0915303F0E0EB5A08
:100CB000FC4F808190E008958FEF9FEF08958FEFB4
:100CC0009FEF0895E0915504F0915604E817F90755
:100CD00069F4A389B4899C918589809589238C9333
:100CE000109256041092550481E0089580E0089512
:100CF000CF93DF93EC018A8D9B8D892BF1F080914E
:100D0000550490915604C817D907C9F0009711F0FF
:100D10000E9462068E8D8E7F8E8F109254031092E9
:100D20005303D0935604C0935504EB89FC899081FA
:100D30008D89892B808381E003C080E001C080E041
:100D4000DF91CF9108951F920F920FB60F92112449
:100D50002F933F934F935F936F937F938F939F93C3
:100D6000AF93BF93CF93DF93EF93FF93A09155047D
:100D7000B0915604109709F478C05E968C915E97F6
:100D800081FF0DC01E96ED91FC911F9790811D96DD
:100D90008C911D97982381E071F480E00CC01E9621
:100DA000ED91FC911F9790811D968C911D97982332
:100DB00081E009F080E0882309F457C05396ED9153
:100DC000FC915497908155968C91559780958923E5
:100DD000808356968D919C9157970197F1F758967D
:100DE0006D917C9159971E96CD91DC911F971D9620
:100DF0005C911D9738E040E0FB013197F1F7842FBB
:100E000090E095958795482F2881252309F0406823
:100E1000315091F75E968C915E9781FD409580915F
:100E200054038F5F20915303281749F0E091540336
:100E3000F0E0EB5AFC4F40838093540307C05E966A
:100E40008C915E9781605E968C935E975A968D9199
:100E50009C915B970197F1F75396ED91FC91549714
:100E6000908155968C91892B8083FF91EF91DF9132
:100E7000CF91BF91AF919F918F917F916F915F9132
:100E80004F913F912F910F900FBE0F901F9018958B
:100E90001F93CF93DF93EC01162F6E8D66956170D3
:100EA00081E06827812F0E948D0561E0812F0E94DB
:100EB0004E05812F90E0FC01E358FF4FE491E88B51
:100EC000FC01EF56FF4FE491F0E0EE0FFF1FE155FC
:100ED000FF4F859194919A8B898BDF91CF911F91D0
:100EE00008951F93CF93DF93EC01162F60E0812FBD
:100EF0000E944E058E8D81FD04C061E0812F0E940D
:100F00008D051C87612F70E0FB01E358FF4FE491D2
:100F1000ED87FB01EF56FF4FE491F0E0EE0FFF1F6E
:100F2000EB55FF4F859194919F878E87DF91CF91ED
:100F30001F9108951F93CF93DF93EC01162F1B820F
:100F40001A8288EE93E0A0E0B0E08C839D83AE83AC
:100F5000BF8380E391E0998388831F8A1E8A198E5C
:100F6000188E1B8E1A8E1D8E1C8E8E8D8E7F20FBF2
:100F700081F98E8F642FCE010E944807612FCE0128
:100F80000E947107DF91CF911F910895CF93DF9356
:100F9000EC019A01AB011B8E1A8E198E188E1F8AD6
:100FA0001E8A60E079E08DE390E00E94D60BF901A3
:100FB0002430310518F0C901039702C081E090E0A8
:100FC0009D8F8C8F8C85863108F041C0B901769554
:100FD00067956431710518F06351710902C061E0D1
:100FE00070E07F8B6E8B369720F0B90165507109E8
:100FF00002C061E070E0798F688FB901660F771FDA
:10100000260F371F36952795369527952D303105B4
:1010100010F12C50310921C021E08E3008F420E07D
:1010200081E001C0880F2A95EAF7982B9093680019
:101030009C859830D0F09E3010F1963158F120E028
:1010400030E02AC08D8B8C8D9D8D0197F1F7CE01FC
:101050000E9478062AC021E030E03B8F2A8F9091D1
:1010600068008830C8F684E0E0CF2DE630E03C8BA5
:101070002B8B81E001C0880F9A95EAF7E3CF2BE62E
:1010800030E03C8B2B8B985081E001C0880F9A9503
:10109000EAF7D8CF2CE630E03C8B2B8B9E5081E0DA
:1010A00001C0880F9A95EAF7CDCFDF91CF910895CF
:1010B000FC01718360830895E091A002F091A10288
:1010C0000280F381E02D43E150E06EE371E080EABD
:1010D00092E0099581E090E00895CF93DF93EC01D1
:1010E00062E571E0888199810E94320A8881998144
:1010F0000E94F10866E571E0888199810E94320AB8
:10110000888199810E94F10860E671E08881998167
:101110000E94320A888199810E94F108DF91CF9163
:1011200008950F931F93CF93DF93EC0108811981EA
:1011300064E671E0C80104960E94FE0B892B91F1D0
:1011400069E671E0C8010E94320A888199810E9493
:10115000F108688179816C5F7F4FCE010E945C0845
:10116000019791F4E091A002F091A1020280F38135
:10117000E02D41E250E061E771E080EA92E00995FC
:10118000CE010E946D080EC0E091A002F091A10274
:101190000280F381E02D42E150E063E971E080EAF2
:1011A00092E00995DF91CF911F910F910895CF9310
:1011B000DF936115710591F0EB016881662341F0C1
:1011C000219680EA92E00E941D0369916111F9CF96
:1011D0006DE472E080EA92E00E940703DF91CF9114
:1011E0000895EF92FF920F931F93CF93DF93EC013B
:1011F0002FEF89E698E1215080409040E1F700C050
:1012000000007E01A4E0EA0EF11CCE018C5F9E4F2F
:10121000F7011192E817F907E1F700E010E0888183
:101220009981DC01ED91FC910084F185E02D099517
:10123000892B79F088819981DC01ED91FC91028400
:10124000F385E02D0995F70181937F010F5F1F4F13
:10125000E6CFFE01E00FF11F1482BE016C5F7F4FED
:10126000CE010E94D708DF91CF911F910F91FF907F
:10127000EF900895CF93DF93EC011B821A82FC015B
:10128000EC5FFE4F10823196108231961082798386
:10129000688326E040E855E260E070E080EA92E092
:1012A0000E94800140E855E260E070E08881998109
:1012B0000E94C6072FEF83ED90E3215080409040BD
:1012C000E1F700C0000066EA71E0888199810E9420
:1012D0003103CE010E94F108DF91CF9108950F9361
:1012E0001F93CF93DF93EC0169EA71E088819981C4
:1012F0000E943103CE010E94F10863EB71E0888106
:1013000099810E943103CE010E94F1088E010C5F89
:101310001F4F65EC71E0C8010E94FE0B892BB1F0F4
:10132000E091A002F091A1020280F381E02D48E15A
:1013300050E068EC71E080EA92E00995FE01EB5F15
:10134000FE4FCC5FDE4F8881808324C061EE71E068
:10135000C8010E94FE0B892B79F0E091A002F09168
:10136000A1020280F381E02D40E250E067EE71E0DF
:1013700080EA92E009950EC0E091A002F091A102EE
:101380000280F381E02D41E250E068E072E080EA03
:1013900092E00995DF91CF911F910F9108950F93DE
:1013A0001F93CF93DF93DC0112962D913C911397FD
:1013B0002B3031050CF44CC0EC011B821A82888161
:1013C0009981DC01ED91FC910084F185E02D099576
:1013D000892B31F46AE272E0888199810E9431039D
:1013E000CE010E94F10863E372E0CE0104960E94F0
:1013F000FE0B892B49F181E08E010C5F1E4FF80135
:101400008083E091A002F091A1020280F381E02D9F
:1014100040E150E06EE372E080EA92E00995D80185
:101420008C91882349F0FE01EB5FFE4F8081811192
:1014300003C0CE010E946F09FE01EB5FFE4FCC5F3F
:10144000DE4F8881808309C0CC5FDE4F188205C0E3
:101450002F5F3F4FFC0133832283DF91CF911F9198
:101460000F910895FC01808191810E9431030895BC
:10147000FC011282118274836383158216821782A3
:101480001086259A2D98209A2898559A5D98089547
:10149000FC0181819281803191050CF112821182CF
:1014A00068307105F8F481E090E002C0880F991F60
:1014B0006A95E2F7092E000CAA0BBB0B45815681F9
:1014C0006781708584279527A627B727858396830C
:1014D000A783B0870380F481E02D8083089501966F
:1014E000928381830895CF93DF93CDB7DEB7C25542
:1014F000D2400FB6F894DEBF0FBECDBF20E042E071
:1015000063E0CE0101960E949A07BE016F5F7F4F94
:10151000CE0180960E943A09BE01605E7F4FCE01E7
:10152000895D9E4F0E945808AE01495D5E4FBE0125
:10153000605E7F4FCE01875D9E4F0E94F90A80E278
:1015400084B965E270E0CE018F5B9D4F0E94380A3E
:101550006BE270E0CE01865B9D4F0E94380A2FEF50
:1015600083ED90E3215080409040E1F700C00000FF
:10157000E091A002F091A1020280F381E02D46E00B
:1015800050E06FE472E080EA92E009952FEF83ED7E
:1015900090E3215080409040E1F700C00000CE0170
:1015A00080960E94CF09CE0180960E94F108CE015C
:1015B000875D9E4F0E94890BCE01895D9E4F0E94E0
:1015C000910860E070E0CE018F5B9D4F0E94480A59
:1015D00065E070E0CE018F5B9D4F0E94480A2FEFBF
:1015E00080E792E0215080409040E1F700C0000089
:1015F000D6CFCF93DF93FC01349624E1DF011D9217
:101600002A95E9F7749620E031E0EF01D9011992AB
:101610001197E9F7EC01798368835B834A83DF9153
:10162000CF910895CF93DF93EC01FB01339760E0F6
:1016300070E040E050E031E080E0DF0193819923E9
:10164000B9F031962C91223231F420812D3019F4E9
:1016500021812A3019F04130510579F7DE01A60FBA
:10166000B71F58969C936F5F7F4F432F582FE5CF3E
:10167000FE01E60FF71F108EDF91CF9108950F93B3
:101680001F93CF93DF93EC01CB0166E572E00E94DC
:10169000FE0BFC01892BB1F09781923261F0DE01E3
:1016A0001496389620E030E09D932F5F3F4F919144
:1016B0009232D1F702C020E030E0FE01E20FF31FCA
:1016C000148201C01C8200EA12E0D801ED91FC9165
:1016D0000280F381E02D4CE050E06CE572E0C8013F
:1016E0000995BE016C5F7F4F888199810E94D70860
:1016F000D801ED91FC910280F381E02D42E050E0B1
:101700006CE472E0C8010995DF91CF911F910F91B0
:1017100008950F931F93CF93DF93EC0108811981F4
:101720000C5F1F4F66E572E0C8010E94FE0B892B1B
:10173000C1F1B801CE010E943F0BBE016C5F7F4F2B
:101740008A819B810E945C08019759F5E091A00273
:10175000F091A1020280F381E02D48E150E069E6BA
:1017600072E080EA92E00995688179816C5F7F4F31
:10177000CE010E94120B62E872E0CE0148960E94F0
:10178000FE0B892B71F0E091A002F091A102028082
:10179000F381E02D43E150E06BE872E080EA92E0F3
:1017A0000995DF91CF911F910F910895A1E21A2E13
:1017B000AA1BBB1BFD010DC0AA1FBB1FEE1FFF1FF5
:1017C000A217B307E407F50720F0A21BB30BE40B45
:1017D000F50B661F771F881F991F1A9469F760958C
:1017E0007095809590959B01AC01BD01CF01089546
:1017F000EE0FFF1F0590F491E02D0994FB0151912C
:101800005523A9F0BF01DC014D9145174111E1F7C6
:1018100059F4CD010190002049F04D91401541113E
:10182000C9F3FB014111EFCF81E090E001970895EA
:04183000F894FFCF5A
:10183400FF4B044B04000000002B01D802BC00073E
:10184400018E00A8009A00000000007D020D0A002D
:101854006E616E00696E66006F76660000000000BF
:10186400FB05D802E5014606DE05BE0547064368CA
:1018740065636B417574686F72697A6174696F6EC0
:101884000A004154410041542B435648553D300011
:101894004154480052494E470041542B434C434362
:1018A400004E756D62657220617574686F72697A35
:1018B4006564202D3E204F50454E204C4F434B2015
:1018C4000A0A004E756D626572204445434C494EC8
:1018D4004544200A0A0041540041542B434D4746D5
:1018E4003D310041542B434E4D493D312C322C3077
:1018F4002C302C30004F4B00534D53204D6F6465FA
:1019040020697320636F6E666967757265640A0A7D
:10191400004552524F52004552524F5220696E2098
:10192400534D53206D6F646520636F6E66696775F0
:10193400726174696F6E0A004E6F20726573706F06
:101944006E736520696E20534D5320636F6E666914
:101954006775726174696F6E0A0041542B43524576
:10196400473F002B435245473A20302C3100475320
:101974004D20436F6E6E65637465640A0A0A0053F2
:10198400746172740A002B434D543A00534D532032
:1019940073656E6465723A2000534D532073656E0F
:1019A40064657220415554484F52495A4544202198
:1019B4000A00476C6F6269203138004D7367204715
:1019C4006C6F62692072656365697665640A0000FC
:00000001FF
