S019000041726475696E6F4C6F636B4F70656E65722E7372656347
S11300000C9464000C944C040C9473040C94A30698
S11300100C94A3060C94A3060C948C000C94EF038C
S11300200C948C000C948C000C948C000C948C001C
S11300300C948C000C948C000C948C000C948C000C
S11300400C949A040C948C000C94E8010C942002F7
S11300500C948C000C948C000C948C000C948C00EC
S11300600C948C000C948C00020000000800020127
S11300700000030407000000000000000001020467
S11300800810204080010204081020010204081016
S1130090200404040404040404020202020202030D
S11300A003030303030000000023002600290000CB
S11300B0000000250028002B000000000024002779
S11300C0002A00005002BF0211241FBECFEFD8E067
S11300D0DEBFCDBF11E0A0E0B1E0EAE7F4E102C089
S11300E005900D92AA3DB107D9F723E0AAEDB1E03E
S11300F001C01D92A139B207E1F710E0C4E6D0E0D7
S113010004C02197FE010E941B0AC236D107C9F719
S11301100E94CB020C943B0A0C940000FC01918DCC
S1130120228D892F90E0805C9F4F821B91098F73F1
S113013099270895FC01918D828D981731F0828D55
S1130140E80FF11D858D90E008958FEF9FEF0895DE
S1130150FC01918D828D981761F0828DDF01A80FCB
S1130160B11D5D968C91928D9F5F9F73928F90E0ED
S113017008958FEF9FEF0895FC01238D348D23178D
S113018038F08FE390E0821B9109830F911D08954D
S1130190832F90E0821B91090197089586E492E0F1
S11301A0892B49F080E090E0892B29F00E944602D7
S11301B081110E9400000895FC01848DDF01A80FC5
S11301C0B11DA35ABF4F8C91248D30E02F5F3F4F58
S11301D02F733078332334F421503109206C3F6F6E
S11301E02F5F3F4F248FA689B7898C93A089B1894B
S11301F08C91837080648C93938D848D981306C046
S11302000288F389E02D80818F7D80830895CF93C8
S1130210DF93EC01888D8823D9F0EA89FB898081FA
S113022085FD05C0A889B9898C9186FD11C00FB6DA
S113023007FCF5CF808185FFF2CF04C0CE010E9478
S1130240DC00EBCFA889B9898C9185FFE8CFF6CF84
S1130250DF91CF9108950F931F93CF93DF93EC0118
S113026081E0888F9B8D8C8D981326C0E889F9894D
S1130270808185FD32C020C08C8D18130CC00FB650
S113028007FCFACFE889F989808185FFF5CFCE0193
S11302900E94DC00F1CF8B8DFE01E80FF11DE35AC3
S11302A0FF4F00839FB7F8941B8FEA89FB898081F5
S11302B0806280839FBF1DC02B8D30E02F5F3F4F36
S11302C02F733078332334F421503109206C3F6F7D
S11302D02F5F3F4F062F122FCFCF9FB7F894EE8991
S11302E0FF896083E889F9898081837080648083D1
S11302F09FBF81E090E0DF91CF911F910F9108950E
S1130300CF92DF92EF92FF921F93CF93DF93EC0192
S11303106A017B01122FE889F98982E08083411503
S1130320514E61057105B1F060E079E08DE390E034
S1130330A70196010E94F909DA01C9010197A109EF
S1130340B109B695A795979587959C01211580E1EC
S11303503807A8F0E889F989108260E874E88EE12A
S113036090E0A70196010E94F909DA01C9010197F9
S1130370A109B109B695A795979587959C01EC8538
S1130380FD853083EE85FF852083188EEC89FD89F9
S11303901083EA89FB89808180618083EA89FB89F3
S11303A0808188608083EA89FB898081806880837A
S11303B0EA89FB8980818F7D8083DF91CF911F91B2
S11303C0FF90EF90DF90CF90089580E090E0089543
S11303D01F920F920FB60F9211242F938F939F9316
S11303E0AF93BF93EF93FF93E091EA01F091EB0198
S11303F0808182FD14C0EAEDF1E0A689B7892C91D1
S1130400818D8F5F8F73928D891771F0DF01E18D7C
S1130410F0E0E652FE4F258F59968C9305C0E0918B
S1130420F001F091F1018081FF91EF91BF91AF91C3
S11304309F918F912F910F900FBE0F901F90189541
S11304401F920F920FB60F9211242F933F934F9345
S11304505F936F937F938F939F93AF93BF93EF9328
S1130460FF938AED91E00E94DC00FF91EF91BF9130
S1130470AF919F918F917F916F915F914F913F9138
S11304802F910F900FBE0F901F9018958AED91E059
S11304900E948E0021E0892B09F420E0822F089528
S11304A0EAEDF1E01382128288EE93E0A0E0B0E07E
S11304B084839583A683B78389E091E091838083C5
S11304C085EC90E09587848784EC90E09787868715
S11304D080EC90E0918B808B81EC90E0938B828B0D
S11304E082EC90E0958B848B86EC90E0978B868BE6
S11304F0118E128E138E148E08958F929F92AF9246
S1130500BF92CF92DF92EF92FF920F931F93CF93FC
S1130510DF936C017B014C0182E0880E911C560133
S1130520E5E0AE0EB11C00E010E0F40161914F0172
S11305304AE050E0C7010E94B103EC016EE2C7013A
S11305400E941D038C0F9D1F080F191F8A149B0402
S113055061F74AE050E0F6016581C7010E94B103EA
S1130560800F911FDF91CF911F910F91FF90EF901A
S1130570DF90CF90BF90AF909F908F900895E7E762
S1130580F2E08BE191E091838083128213821482E2
S11305901582089508950E94E4040E94CA02CEECD4
S11305A0D0E00E94BD092097E1F30E94CE00F9CF6C
S11305B0CF92DF92EF92FF920F931F93CF93DF932B
S11305C041155105C1F06A018C01E62EF72EC0E0F9
S11305D0D0E0D7016D917D01D801ED91FC9101909E
S11305E0F081E02DC8010995892B39F02196CC16AC
S11305F0DD0679F702C0C0E0D0E0CE01DF91CF91F3
S11306001F910F91FF90EF90DF90CF9008956115A7
S1130610710581F0FB0101900020E9F73197AF01EA
S1130620461B570BDC01ED91FC910280F381E02D18
S11306300995089580E090E00895DC01ED91FC9126
S11306400190F081E02D09950895DC01ED91FC9174
S11306500280F381E02D42E050E06DE171E0099504
S113066008950F931F93CF93DF93EC010E94070328
S11306708C01CE010E942503800F911FDF91CF9141
S11306801F910F9108958F929F92AF92BF92EF9214
S1130690FF920F931F93CF93DF93CDB7DEB7A1974C
S11306A00FB6F894DEBF0FBECDBF7C01CB01BA01FB
S11306B019A2223008F42AE08E010F5D1F4F822E0A
S11306C0912CA12CB12CA50194010E94F909E62FCB
S11306D0622F732F842F952F01501109EA3010F4E3
S11306E0E05D01C0E95CD801EC93611571058105F9
S11306F0910549F70115110591F0F80101900020C9
S1130700E9F73197AF01401B510BD701ED91FC91F3
S11307100280F381E02DB801C701099502C080E091
S113072090E0A1960FB6F894DEBF0FBECDBFDF9167
S1130730CF911F910F91FF90EF90BF90AF909F903A
S11307408F9008952115310549F4DC01ED91FC9158
S11307500190F081E02D642F099508950E944303D0
S113076008959A01462F50E060E070E00E94A203D1
S11307700895813039F018F0823051F008951092C4
S11307806E000895EFE6F0E080818D7F8083089508
S1130790E0E7F0E080818D7F808381E08093B0008A
S11307A0E1EBF0E08081887F846080831092B30065
S11307B00895CF93C82F80910001C81307C0E8E6BD
S11307C0F0E084919FEF9093000101C08FEF0E94AD
S11307D0B90360E08C2F0E948D05CF9108951F927C
S11307E00F920FB60F9211242F933F934F935F9361
S11307F06F937F938F939F93AF93BF93EF93FF93E5
S11308008091800290918102A0918202B091830232
S1130810892B8A2B8B2B51F190917D02E0917E02E2
S1130820F0917F028081892780838091800290915A
S11308308102A0918202B0918302181619061A0649
S11308401B06C4F48091800290918102A0918202DF
S1130850B09183020197A109B1098093800290931A
S11308608102A0938202B093830204C080910001AC
S11308700E94D903FF91EF91BF91AF919F918F9106
S11308807F916F915F914F913F912F910F900FBE88
S11308900F901F90189508951F920F920FB60F9204
S11308A011242F933F934F935F936F937F938F9371
S11308B09F93AF93BF93EF93FF93E0910101F09166
S11308C002010995FF91EF91BF91AF919F918F9193
S11308D07F916F915F914F913F912F910F900FBE38
S11308E00F901F9018951F920F920FB60F9211241C
S11308F02F933F934F935F936F937F938F939F9324
S1130900AF93BF93EF93FF93E0910301F091040140
S11309100995FF91EF91BF91AF919F918F917F9135
S11309206F915F914F913F912F910F900FBE0F9058
S11309301F9018951F920F920FB60F9211242F93A8
S11309403F938F939F93AF93BF9380918502909130
S11309508602A0918702B09188023091840223E03C
S1130960230F2D3720F40196A11DB11D05C026E8E3
S1130970230F0296A11DB11D20938402809385024A
S113098090938602A0938702B09388028091890293
S113099090918A02A0918B02B0918C020196A11DC4
S11309A0B11D8093890290938A02A0938B02B09325
S11309B08C02BF91AF919F918F913F912F910F9096
S11309C00FBE0F901F901895789484B5826084BDF3
S11309D084B5816084BD85B5826085BD85B581603F
S11309E085BDEEE6F0E0808181608083E1E8F0E09F
S11309F01082808182608083808181608083E0E8CE
S1130A00F0E0808181608083E1EBF0E080818460AC
S1130A108083E0EBF0E0808181608083EAE7F0E0AE
S1130A208081846080838081826080838081816012
S1130A3080838081806880831092C1000895833010
S1130A4069F028F48130B1F08230C1F00895873024
S1130A50C9F08830E9F0843001F506C0E0E8F0E040
S1130A6080818F7780830895E0E8F0E080818F7D36
S1130A708083089584B58F7784BD089584B58F7D70
S1130A8084BD0895E0EBF0E080818F778083089542
S1130A90E0EBF0E080818F7D80830895CF93DF9336
S1130AA090E0FC01E358FF4F2491FC01EF56FF4F07
S1130AB08491882379F190E0880F991FFC01E75411
S1130AC0FF4FA591B491FC01E155FF4FC591D4911D
S1130AD061110CC09FB7F8948C91E22FE0958E239E
S1130AE08C932881E223E8839FBF14C0623061F4B1
S1130AF09FB7F8948C91322F309583238C93E8819F
S1130B00E22BE8839FBF06C08FB7F894EC91E22BE9
S1130B10EC938FBFDF91CF9108951F93CF93DF9311
S1130B20282F30E0F901E759FF4F8491F901E35888
S1130B30FF4F1491F901EF56FF4FC491CC23D1F02C
S1130B40D62F81110E941F05EC2FF0E0EE0FFF1F3E
S1130B50E155FF4FA591B4918FB7F894D11106C018
S1130B609C91E12FE095E923EC9303C0EC91E12BF8
S1130B70EC938FBFDF91CF911F91089520918F0344
S1130B80309190032817390799F490918D02809140
S1130B908E02981781F0E0918D02F0E0E157FD4F4D
S1130BA0808120918D022F5F20938D0290E0089523
S1130BB08FEF9FEF08958FEF9FEF089520918F039C
S1130BC0309190032817390799F420918E0280916F
S1130BD08D0230E03395281B3109307833232CF40F
S1130BE0215031093F6F2F5F3F4F822F932F08957C
S1130BF080E090E008951F93CF93DF93EC014C8D38
S1130C005D8D4115510529F481E090E09B838A8331
S1130C1038C0A989BA898889382F30951FB79E8D25
S1130C20792F727091FD6095F894772321F09C914F
S1130C30982B9C9303C09C9193239C93FA01319726
S1130C40F1F798E060FF04C02C91282B2C9303C08B
S1130C502C9123232C93FA013197F1F76695915047
S1130C6089F7772321F08C9138233C9303C09C911E
S1130C70892B8C931FBF8C8D9D8D0197F1F741E0DB
S1130C8050E0CA01DF91CF911F91089508952091FA
S1130C908F03309190032817390771F490918D02D6
S1130CA080918E02981759F0E0918D02F0E0E1579F
S1130CB0FD4F808190E008958FEF9FEF08958FEFAF
S1130CC09FEF0895E0918F03F0919003E817F907DF
S1130CD069F4A389B4899C918589809589238C932F
S1130CE01092900310928F0381E0089580E008959C
S1130CF0CF93DF93EC018A8D9B8D892BF1F080914A
S1130D008F0390919003C817D907C9F0009711F089
S1130D100E9462068E8D8E7F8E8F10928E021092AC
S1130D208D02D0939003C0938F03EB89FC8990814B
S1130D308D89892B808381E003C080E001C080E03D
S1130D40DF91CF9108951F920F920FB60F92112445
S1130D502F933F934F935F936F937F938F939F93BF
S1130D60AF93BF93CF93DF93EF93FF93A0918F0340
S1130D70B0919003109709F478C05E968C915E97B9
S1130D8081FF0DC01E96ED91FC911F9790811D96D9
S1130D908C911D97982381E071F480E00CC01E961D
S1130DA0ED91FC911F9790811D968C911D9798232E
S1130DB081E009F080E0882309F457C05396ED914F
S1130DC0FC915497908155968C91559780958923E1
S1130DD0808356968D919C9157970197F1F7589679
S1130DE06D917C9159971E96CD91DC911F971D961C
S1130DF05C911D9738E040E0FB013197F1F7842FB7
S1130E0090E095958795482F2881252309F040681F
S1130E10315091F75E968C915E9781FD409580915B
S1130E208E028F5F20918D02281749F0E0918E0287
S1130E30F0E0E157FD4F408380938E0207C05E9639
S1130E408C915E9781605E968C935E975A968D9195
S1130E509C915B970197F1F75396ED91FC91549710
S1130E60908155968C91892B8083FF91EF91DF912E
S1130E70CF91BF91AF919F918F917F916F915F912E
S1130E804F913F912F910F900FBE0F901F90189587
S1130E9020E331E0FC01318320830E94620608953F
S1130EA01F93CF93DF93EC01162F6E8D66956170BF
S1130EB081E06827812F0E948D0561E0812F0E94C7
S1130EC04E05812F90E0FC01E358FF4FE491E88B3D
S1130ED0FC01EF56FF4FE491F0E0EE0FFF1FE155E8
S1130EE0FF4F859194919A8B898BDF91CF911F91BC
S1130EF008951F93CF93DF93EC01162F60E0812FA9
S1130F000E944E058E8D81FD04C061E0812F0E94F8
S1130F108D051C87612F70E0FB01E358FF4FE491BE
S1130F20ED87FB01EF56FF4FE491F0E0EE0FFF1F5A
S1130F30EB55FF4F859194919F878E87DF91CF91D9
S1130F401F9108951F93CF93DF93EC01162F1B82FB
S1130F501A8288EE93E0A0E0B0E08C839D83AE8398
S1130F60BF8380E391E0998388831F8A1E8A198E48
S1130F70188E1B8E1A8E1D8E1C8E8E8D8E7F20FBDE
S1130F8081F98E8F642FCE010E945007612FCE010C
S1130F900E947907DF91CF911F910895CF93DF933A
S1130FA0EC019A01AB011B8E1A8E198E188E1F8AC2
S1130FB01E8A60E079E08DE390E00E94F909F9016E
S1130FC02430310518F0C901039702C081E090E094
S1130FD09D8F8C8F8C85863108F041C0B901769540
S1130FE067956431710518F06351710902C061E0BD
S1130FF070E07F8B6E8B369720F0B90165507109D4
S113100002C061E070E0798F688FB901660F771FC5
S1131010260F371F36952795369527952D303105A0
S113102010F12C50310921C021E08E3008F420E069
S113103081E001C0880F2A95EAF7982B9093680005
S11310409C859830D0F09E3010F1963158F120E014
S113105030E02AC08D8B8C8D9D8D0197F1F7CE01E8
S11310600E9478062AC021E030E03B8F2A8F9091BD
S113107068008830C8F684E0E0CF2DE630E03C8B91
S11310802B8B81E001C0880F9A95EAF7E3CF2BE61A
S113109030E03C8B2B8B985081E001C0880F9A95EF
S11310A0EAF7D8CF2CE630E03C8B2B8B9E5081E0C6
S11310B001C0880F9A95EAF7CDCFDF91CF910895BB
S11310C0CF93DF93EB016881662341F021968AED8B
S11310D091E00E941D0369916111F9CFDF91CF91D5
S11310E00895EF92FF920F931F93CF93DF93EC0138
S11310F02FEF89E698E1215080409040E1F700C04D
S113110000007E01A2E0EA0EF11CCE018E5F9E4F2C
S1131110F7011192E817F907E1F700E010E0888180
S11311209981DC01ED91FC910084F185E02D099514
S1131130892B79F088819981DC01ED91FC910284FD
S1131140F385E02D0995F70181937F010F5F1F4F10
S1131150E6CFFE01E00FF11F1282BE016E5F7F4FEA
S113116049F0CE010E9460086EE171E08AED91E0E1
S11311700E940703DF91CF911F910F91FF90EF9091
S11311800895EF92FF920F931F93CF93DF93CDB700
S1131190DEB76F970FB6F894DEBF0FBECDBF8C01DC
S11311A0FC01EE5FFE4F1082319610823196108260
S11311B020E042E063E0CE0101967C010E94A20798
S11311C0F801F182E08226E040E855E260E070E058
S11311D08AED91E00E94800140E855E260E070E011
S11311E0F801808191810E94CE07FFEF23ED80E317
S11311F0F15020408040E1F700C000006EE371E050
S1131200F801808191810E943103C8010E94710814
S1131210C7010E9448076F960FB6F894DEBF0FBE51
S1131220CDBFDF91CF911F910F91FF90EF90089563
S11312300F931F93CF93DF93EC0161E471E08881F6
S113124099810E943103CE010E9471086BE471E020
S1131250888199810E943103CE010E9471088E0118
S11312600E5F1F4F6DE571E0C8010E94210A892BB2
S1131270B1F0E091DA01F091DB010280F381E02D1D
S113128046E150E060E671E08AED91E00995FE01E7
S1131290ED5FFE4FCE5FDE4F8881808324C067E719
S11312A071E0C8010E94210A892B79F0E091DA01EA
S11312B0F091DB010280F381E02D4FE150E06DE716
S11312C071E08AED91E009950EC0E091DA01F091A8
S11312D0DB010280F381E02D40E250E06DE971E032
S11312E08AED91E00995DF91CF911F910F910895B7
S11312F0CF93DF93EC0188819981DC01ED91FC911E
S11313000084F185E02D0995892B31F46EEB71E0B1
S1131310888199810E943103CE010E94710867EC93
S113132071E0CE0102960E94210A892BA1F081E08E
S1131330FE01EE5FFE4F808331968081811103C0F0
S1131340CE010E941809FE01ED5FFE4FCE5FDE4F15
S11313508881808303C0CE5FDE4F1882DF91CF91F6
S11313600895E62FF0E0DC01ED93FC931082FC017C
S113137012821382148215820895CF93DF93CDB71E
S1131380DEB7CB50D1400FB6F894DEBF0FBECDBF51
S1131390CE0101960E94C10880E284B965E2CE01C3
S11313A08A5F9E4F0E94B1092FEF84E39CE0215095
S11313B080409040E1F700C00000E091DA01F09134
S11313C0DB010280F381E02D46E050E062ED71E044
S11313D08AED91E009952FEF84E39CE02150804051
S11313E09040E1F700C00000CE0101960E94780908
S11313F0FBCFA1E21A2EAA1BBB1BFD010DC0AA1F25
S1131400BB1FEE1FFF1FA217B307E407F50720F069
S1131410A21BB30BE40BF50B661F771F881F991FE4
S11314201A9469F760957095809590959B01AC012D
S1131430BD01CF010895EE0FFF1F0590F491E02D3B
S11314400994FB0151915523A9F0BF01DC014D9191
S113145045174111E1F759F4CD010190002049F0FD
S11314604D9140154111C9F3FB014111EFCF81E0CA
S10D147090E001970895F894FFCF6F
S113147AFF4B044B04000000002B01D802BC0007F8
S113148A018E00A8009A00000000007D020D0A00E7
S113149A6E616E00696E66006F7666000000000079
S11314AAFB05D802E5014606DE05BE05470641549A
S11314BA0041542B434D47463D310041542B434E82
S11314CA4D493D312C322C302C302C30004F4B00FE
S11314DA534D53204D6F646520697320636F6E66A4
S11314EA696775726564004552524F5200455252FB
S11314FA4F5220696E20534D53206D6F64652063EB
S113150A6F6E66696775726174696F6E004E6F20DB
S113151A726573706F6E736520696E20534D532024
S113152A636F6E66696775726174696F6E004154A0
S113153A2B435245473F002B435245473A20302C10
S10D154A310053746172740A00004A
S9030000FC
