S019000041726475696E6F4C6F636B4F70656E65722E7372656347
S11300000C9464000C944D040C9474040C94100728
S11300100C9410070C9410070C948C000C94F003AF
S11300200C948C000C948C000C948C000C948C001C
S11300300C948C000C948C000C948C000C948C000C
S11300400C949B040C948C000C94E8010C942002F6
S11300500C948C000C948C000C948C000C948C00EC
S11300600C948C000C948C00020000000800020127
S11300700000030407000000000000000001020467
S11300800810204080010204081020010204081016
S1130090200404040404040404020202020202030D
S11300A003030303030000000023002600290000CB
S11300B0000000250028002B000000000024002779
S11300C0002A00005002C00211241FBECFEFD8E066
S11300D0DEBFCDBF13E0A0E0B1E0E4E8FFE102C081
S11300E005900D92AA36B107D9F725E0AAE6B3E048
S11300F001C01D92A132B207E1F710E0C4E6D0E0DE
S113010004C02197FE010E948A0FC236D107C9F7A5
S11301100E94CC020C94C00F0C940000FC01918D41
S1130120228D892F90E0805C9F4F821B91098F73F1
S113013099270895FC01918D828D981731F0828D55
S1130140E80FF11D858D90E008958FEF9FEF0895DE
S1130150FC01918D828D981761F0828DDF01A80FCB
S1130160B11D5D968C91928D9F5F9F73928F90E0ED
S113017008958FEF9FEF0895FC01238D348D23178D
S113018038F08FE390E0821B9109830F911D08954D
S1130190832F90E0821B91090197089586E492E0F1
S11301A0892B49F080E090E0892B29F00E944602D7
S11301B081110E9400000895FC01848DDF01A80FC5
S11301C0B11DA35ABF4F8C91248D30E02F5F3F4F58
S11301D02F733078332334F421503109206C3F6F6E
S11301E02F5F3F4F248FA689B7898C93A089B1894B
S11301F08C91837080648C93938D848D981306C046
S11302000288F389E02D80818F7D80830895CF93C8
S1130210DF93EC01888D8823D9F0EA89FB898081FA
S113022085FD05C0A889B9898C9186FD11C00FB6DA
S113023007FCF5CF808185FFF2CF04C0CE010E9478
S1130240DC00EBCFA889B9898C9185FFE8CFF6CF84
S1130250DF91CF9108950F931F93CF93DF93EC0118
S113026081E0888F9B8D8C8D981326C0E889F9894D
S1130270808185FD32C020C08C8D18130CC00FB650
S113028007FCFACFE889F989808185FFF5CFCE0193
S11302900E94DC00F1CF8B8DFE01E80FF11DE35AC3
S11302A0FF4F00839FB7F8941B8FEA89FB898081F5
S11302B0806280839FBF1DC02B8D30E02F5F3F4F36
S11302C02F733078332334F421503109206C3F6F7D
S11302D02F5F3F4F062F122FCFCF9FB7F894EE8991
S11302E0FF896083E889F9898081837080648083D1
S11302F09FBF81E090E0DF91CF911F910F9108950E
S1130300CF92DF92EF92FF921F93CF93DF93EC0192
S11303106A017B01122FE889F98982E08083411503
S1130320514E61057105B1F060E079E08DE390E034
S1130330A70196010E94540FDA01C9010197A1098E
S1130340B109B695A795979587959C01211580E1EC
S11303503807A8F0E889F989108260E874E88EE12A
S113036090E0A70196010E94540FDA01C901019798
S1130370A109B109B695A795979587959C01EC8538
S1130380FD853083EE85FF852083188EEC89FD89F9
S11303901083EA89FB89808180618083EA89FB89F3
S11303A0808188608083EA89FB898081806880837A
S11303B0EA89FB8980818F7D8083DF91CF911F91B2
S11303C0FF90EF90DF90CF90089580E090E0089543
S11303D01F920F920FB60F9211242F938F939F9316
S11303E0AF93BF93EF93FF93E0917A03F0917B0374
S11303F0808182FD14C0EAE6F3E0A689B7892C91D6
S1130400818D8F5F8F73928D891771F0DF01E18D7C
S1130410F0E0E659FC4F258F59968C9305C0E09186
S11304208003F09181038081FF91EF91BF91AF919F
S11304309F918F912F910F900FBE0F901F90189541
S11304401F920F920FB60F9211242F933F934F9345
S11304505F936F937F938F939F93AF93BF93EF9328
S1130460FF938AE693E00E94DC00FF91EF91BF9135
S1130470AF919F918F917F916F915F914F913F9138
S11304802F910F900FBE0F901F9018958AE693E05E
S11304900E948E0021E0892B09F420E0822F089528
S11304A0EAE6F3E01382128288EE93E0A0E0B0E083
S11304B084839583A683B78389E091E091838083C5
S11304C085EC90E09587848784EC90E09787868715
S11304D080EC90E0918B808B81EC90E0938B828B0D
S11304E082EC90E0958B848B86EC90E0978B868BE6
S11304F0118E128E138E148E089508958F929F92EA
S1130500AF92BF92CF92DF92EF92FF920F931F931D
S1130510CF93DF936C017B014C0182E0880E911C28
S11305205601E5E0AE0EB11C00E010E0F40161916B
S11305304F014AE050E0C7010E94B203EC016EE2B1
S1130540C7010E941E038C0F9D1F080F191F8A14D8
S11305509B0461F74AE050E0F6016581C7010E94FF
S1130560B203800F911FDF91CF911F910F91FF90E4
S1130570EF90DF90CF90BF90AF909F908F900895B1
S1130580E7E0F4E08BE191E09183808312821382AF
S113059014821582089508950E9451050E94CB0289
S11305A0CEECD0E00E949B0D2097E1F30E94CE0098
S11305B0F9CFCF92DF92EF92FF920F931F93CF93D5
S11305C0DF9341155105C1F06A018C01E62EF72E27
S11305D0C0E0D0E0D7016D917D01D801ED91FC918F
S11305E00190F081E02DC8010995892B39F02196FD
S11305F0CC16DD0679F702C0C0E0D0E0CE01DF9171
S1130600CF911F910F91FF90EF90DF90CF900895BD
S11306106115710581F0FB0101900020E9F7319724
S1130620AF01461B570BDC01ED91FC910280F38175
S1130630E02D0995089580E090E00895DC01ED91A6
S1130640FC910190F081E02D09950895DC01ED9174
S1130650FC910280F381E02D42E050E06DE171E015
S1130660099508950F931F93CF93DF93EC010E9494
S113067008038C01CE010E942603800F911FDF9195
S1130680CF911F910F9108958F929F92AF92BF9235
S1130690EF92FF920F931F93CF93DF93CDB7DEB703
S11306A0A1970FB6F894DEBF0FBECDBF7C01CB017E
S11306B0BA0119A2223008F42AE08E010F5D1F4FFF
S11306C0822E912CA12CB12CA50194010E94540FCF
S11306D0E62F622F732F842F952F01501109EA30D2
S11306E010F4E05D01C0E95CD801EC93611571057B
S11306F08105910549F70115110591F0F801019063
S11307000020E9F73197AF01401B510BD701ED9160
S1130710FC910280F381E02DB801C701099502C064
S113072080E090E0A1960FB6F894DEBF0FBECDBF77
S1130730DF91CF911F910F91FF90EF90BF90AF90F9
S11307409F908F9008952115310549F4DC01ED91B6
S1130750FC910190F081E02D642F099508950E9489
S1130760440308959A01462F50E060E070E00E942F
S1130770A3030895813039F018F0823051F00895C0
S113078010926E000895EFE6F0E080818D7F808303
S11307900895E0E7F0E080818D7F808381E080939D
S11307A0B000E1EBF0E08081887F84608083109268
S11307B0B3000895CF93C82F80910001C81307C0D8
S11307C0E8E6F0E084919FEF9093000101C08FEF81
S11307D00E94BA0360E08C2F0E94FA05CF9108951D
S11307E01F920F920FB60F9211242F933F934F93A2
S11307F05F936F937F938F939F93AF93BF93EF9385
S1130800FF938091100490911104A0911204B0916F
S11308101304892B8A2B8B2B51F190910D04E091B9
S11308200E04F0910F048081892780838091100445
S113083090911104A0911204B09113041816190692
S11308401A061B06C4F48091100490911104A0911F
S11308501204B09113040197A109B1098093100403
S113086090931104A0931204B093130404C08091D4
S113087000010E94DA03FF91EF91BF91AF919F9124
S11308808F917F916F915F914F913F912F910F9035
S11308900FBE0F901F90189508951F920F920FB6D8
S11308A00F9211242F933F934F935F936F937F93F2
S11308B08F939F93AF93BF93EF93FF93E0910101C5
S11308C0F09102010995FF91EF91BF91AF919F9132
S11308D08F917F916F915F914F913F912F910F90E5
S11308E00FBE0F901F9018951F920F920FB60F9284
S11308F011242F933F934F935F936F937F938F9321
S11309009F93AF93BF93EF93FF93E0910301F09113
S113091004010995FF91EF91BF91AF919F918F9140
S11309207F916F915F914F913F912F910F900FBEE7
S11309300F901F9018951F920F920FB60F921124CB
S11309402F933F938F939F93AF93BF9380911504FD
S113095090911604A0911704B091180430911404D6
S113096023E0230F2D3720F40196A11DB11D05C0EE
S113097026E8230F0296A11DB11D20931404809331
S1130980150490931604A0931704B093180480914F
S1130990190490911A04A0911B04B0911C040196AF
S11309A0A11DB11D8093190490931A04A0931B04F4
S11309B0B0931C04BF91AF919F918F913F912F9160
S11309C00F900FBE0F901F9018953FB7F894809129
S11309D0190490911A04A0911B04B0911C0426B52B
S11309E0A89B05C02F3F19F00196A11DB11D3FBF63
S11309F0BA2FA92F982F8827820F911DA11DB11DF1
S1130A00BC01CD01660F771F881F991F660F771FE2
S1130A10881F991F08958F929F92AF92BF92CF9291
S1130A20DF92EF92FF926B017C010E94E5044B017F
S1130A305C01C114D104E104F10439F529C00E9418
S1130A407D0210C021E0C21AD108E108F10888EE45
S1130A50880E83E0981EA11CB11CC114D104E104CA
S1130A60F104B1F00E94E504DC01CB018819990975
S1130A70AA09BB09883E9340A105B10518F7C11422
S1130A80D104E104F104D9F603C00E947D02EACF47
S1130A90FF90EF90DF90CF90BF90AF909F908F909A
S1130AA00895789484B5826084BD84B5816084BDE2
S1130AB085B5826085BD85B5816085BDEEE6F0E0D3
S1130AC0808181608083E1E8F0E01082808182602F
S1130AD08083808181608083E0E8F0E080818160B0
S1130AE08083E1EBF0E0808184608083E0EBF0E0E0
S1130AF0808181608083EAE7F0E080818460808384
S1130B00808182608083808181608083808180682D
S1130B1080831092C1000895833069F028F48130F5
S1130B20B1F08230C1F008958730C9F08830E9F01F
S1130B30843001F506C0E0E8F0E080818F7780839F
S1130B400895E0E8F0E080818F7D8083089584B586
S1130B508F7784BD089584B58F7D84BD0895E0EBBF
S1130B60F0E080818F7780830895E0EBF0E080816E
S1130B708F7D80830895CF93DF9390E0FC01E35849
S1130B80FF4F2491FC01EF56FF4F8491882379F1A4
S1130B9090E0880F991FFC01E754FF4FA591B49191
S1130BA0FC01E155FF4FC591D49161110CC09FB771
S1130BB0F8948C91E22FE0958E238C932881E22384
S1130BC0E8839FBF14C0623061F49FB7F8948C919E
S1130BD0322F309583238C93E881E22BE8839FBFE7
S1130BE006C08FB7F894EC91E22BEC938FBFDF91A2
S1130BF0CF9108951F93CF93DF93282F30E0F9010D
S1130C00E759FF4F8491F901E358FF4F1491F9011B
S1130C10EF56FF4FC491CC23D1F0D62F81110E94FF
S1130C208C05EC2FF0E0EE0FFF1FE155FF4FA5916F
S1130C30B4918FB7F894D11106C09C91E12FE0953F
S1130C40E923EC9303C0EC91E12BEC938FBFDF918C
S1130C50CF911F91089520911F05309120052817E9
S1130C60390799F490911D0480911E04981781F01E
S1130C70E0911D04F0E0E15EFB4F808120911D04B2
S1130C802F5F20931D0490E008958FEF9FEF089548
S1130C908FEF9FEF089520911F05309120052817AD
S1130CA0390799F420911E0480911D0430E0339596
S1130CB0281B3109307833232CF4215031093F6F3C
S1130CC02F5F3F4F822F932F089580E090E0089587
S1130CD01F93CF93DF93EC014C8D5D8D411551052E
S1130CE029F481E090E09B838A8338C0A989BA897A
S1130CF08889382F30951FB79E8D792F727091FD9A
S1130D006095F894772321F09C91982B9C9303C0D1
S1130D109C9193239C93FA013197F1F798E060FF3B
S1130D2004C02C91282B2C9303C02C9123232C93A7
S1130D30FA013197F1F76695915089F7772321F0FD
S1130D408C9138233C9303C09C91892B8C931FBFB7
S1130D508C8D9D8D0197F1F741E050E0CA01DF9140
S1130D60CF911F910895089520911F05309120057A
S1130D702817390771F490911D0480911E04981767
S1130D8059F0E0911D04F0E0E15EFB4F808190E0BA
S1130D9008958FEF9FEF08958FEF9FEF0895E091EF
S1130DA01F05F0912005E817F90769F4A389B489B0
S1130DB09C918589809589238C93109220051092AB
S1130DC01F0581E0089580E00895CF93DF93EC013F
S1130DD08A8D9B8D892BF1F080911F0590912005C0
S1130DE0C817D907C9F0009711F00E94CF068E8D5D
S1130DF08E7F8E8F10921E0410921D04D0932005B6
S1130E00C0931F05EB89FC8990818D89892B808390
S1130E1081E003C080E001C080E0DF91CF910895BC
S1130E201F920F920FB60F9211242F933F934F935B
S1130E305F936F937F938F939F93AF93BF93CF935E
S1130E40DF93EF93FF93A0911F05B09120051097B6
S1130E5009F478C05E968C915E9781FF0DC01E9652
S1130E60ED91FC911F9790811D968C911D9798236D
S1130E7081E071F480E00CC01E96ED91FC911F9707
S1130E8090811D968C911D97982381E009F080E054
S1130E90882309F457C05396ED91FC91549790819F
S1130EA055968C91559780958923808356968D917C
S1130EB09C9157970197F1F758966D917C915997AA
S1130EC01E96CD91DC911F971D965C911D9738E07D
S1130ED040E0FB013197F1F7842F90E095958795D9
S1130EE0482F2881252309F04068315091F75E96F8
S1130EF08C915E9781FD409580911E048F5F2091B7
S1130F001D04281749F0E0911E04F0E0E15EFB4F58
S1130F10408380931E0407C05E968C915E97816027
S1130F205E968C935E975A968D919C915B970197F0
S1130F30F1F75396ED91FC915497908155968C91CD
S1130F40892B8083FF91EF91DF91CF91BF91AF9176
S1130F509F918F917F916F915F914F913F912F91CD
S1130F600F900FBE0F901F9018951F93CF93DF9390
S1130F70EC01162F6E8D6695617081E06827812FD4
S1130F800E94FA0561E0812F0E94BB05812F90E049
S1130F90FC01E358FF4FE491E88BFC01EF56FF4F4F
S1130FA0E491F0E0EE0FFF1FE155FF4F859194911E
S1130FB09A8B898BDF91CF911F9108951F93CF93C3
S1130FC0DF93EC01162F60E0812F0E94BB058E8D0C
S1130FD081FD04C061E0812F0E94FA051C87612F06
S1130FE070E0FB01E358FF4FE491ED87FB01EF56FE
S1130FF0FF4FE491F0E0EE0FFF1FEB55FF4F85919B
S113100094919F878E87DF91CF911F9108951F93AD
S1131010CF93DF93EC01162F1B821A8288EE93E0A4
S1131020A0E0B0E08C839D83AE83BF8380E391E036
S1131030998388831F8A1E8A198E188E1B8E1A8E96
S11310401D8E1C8E8E8D8E7F20FB81F98E8F642FDA
S1131050CE010E94B507612FCE010E94DE07DF9109
S1131060CF911F910895CF93DF93EC019A01AB01C7
S11310701B8E1A8E198E188E1F8A1E8A60E079E0E4
S11310808DE390E00E94540FF9012430310518F0EB
S1131090C901039702C081E090E09D8F8C8F8C85FD
S11310A0863108F041C0B9017695679564317105C0
S11310B018F06351710902C061E070E07F8B6E8BA0
S11310C0369720F0B9016550710902C061E070E003
S11310D0798F688FB901660F771F260F371F3695F2
S11310E02795369527952D30310510F12C5031096F
S11310F021C021E08E3008F420E081E001C0880F97
S11311002A95EAF7982B909368009C859830D0F044
S11311109E3010F1963158F120E030E02AC08D8BDA
S11311208C8D9D8D0197F1F7CE010E94E5062AC0B2
S113113021E030E03B8F2A8F909168008830C8F618
S113114084E0E0CF2DE630E03C8B2B8B81E001C0C6
S1131150880F9A95EAF7E3CF2BE630E03C8B2B8B94
S1131160985081E001C0880F9A95EAF7D8CF2CE611
S113117030E03C8B2B8B9E5081E001C0880F9A9508
S1131180EAF7CDCFDF91CF910895FC01718360839D
S11311905383428308953F924F925F926F927F925E
S11311A08F929F92AF92BF92CF92DF92EF92FF9273
S11311B00F931F93CF93DF93EC015B018A819B8193
S11311C00E94980A4C010AE613E0D801ED91FC91C3
S11311D00280F381E02D43E150E06EE371E0C80149
S11311E00995D801ED91FC910280F381E02D4BE14A
S11311F050E062E571E0C80109958A819B810E94F3
S1131200650B18141904E4F5F5014080E12CF12C68
S1131210C0E0D0E00F2EF9E06F2E712CF02D342CAD
S1131220442029F1C7010196B3010E94400F6C01CB
S113123085010F5F1F4F532CC7018C0F9D1F0E9408
S1131240AA0F851105C02196C930D1051CF01BC019
S1131250C0E0D0E0C114D10429F4E114F10411F088
S1131260C0E0D0E0D8015D908D015110E5CFBFEF13
S1131270EB1AFB0A8E149F0499F680E090E005C0F7
S113128080E090E002C081E090E0DF91CF911F9177
S11312900F91FF90EF90DF90CF90BF90AF909F9011
S11312A08F907F906F905F904F903F900895CF9371
S11312B0DF93EC016EE671E0888199810E94090D4B
S11312C0888199810E94C00B62E771E088819981CD
S11312D00E94090D888199810E94C00B6CE771E01E
S11312E0888199810E94090D888199810E94C00B8F
S11312F0DF91CF910895EF92FF920F931F93CF93B5
S1131300DF93EC017B010881198160E871E0C80179
S113131004960E94900F892B09F44EC065E871E091
S1131320C8010E94090D888199810E94C00B6881BF
S113133079816C5F7F4FCE010E94CB08019771F5D4
S1131340CE010E945709E0916A03F0916B03028079
S1131350F381E02D41E250E06DE871E08AE693E02C
S1131360099568EE73E080E090E00E940B05D701D8
S1131370ED91FC910190F081E02DC701099568EE93
S113138073E080E090E00E940B05D701ED91FC91A1
S11313900280F381E02DC70109950EC0E0916A0334
S11313A0F0916B030280F381E02D42E150E06FEA9B
S11313B071E08AE693E00995DF91CF911F910F9137
S11313C0FF90EF9008950E94570E0895DA010D9052
S11313D00020E9F71197A41BB50BCD0102970A97DA
S11313E06CF01B97FA01EA0FFB1FDB019B01275FDF
S11313F03F4F81918D93A217B307D9F7FB01118653
S11314000895CF92DF92EF92FF920F931F93CF93A1
S1131410DF93CDB7DEB7EC970FB6F894DEBF0FBEFF
S1131420CDBFFC01EC5FFE4F2081222309F470C084
S11314308E010D5C1F4F2AE0D8011D922A95E9F711
S1131440DE01119622E3FD0111922A95E9F728E0C5
S1131450E2ECF1E001900D922A95E1F77C01F4E0D1
S1131460EF0EF11CA701B8010E94E6090F2EFAE65F
S1131470CF2EF3E0DF2EF02DD601ED91FC9102800A
S1131480F381E02D41E150E06AEC71E0C601099579
S1131490F80101900020E9F73197AF01401B510B8F
S11314A0D601ED91FC910280F381E02DB801C601D3
S11314B00995D601ED91FC910280F381E02D41E084
S11314C050E06CEF72E0C60109956CED71E0C70164
S11314D00E94900F892B71F0E0916A03F0916B03E5
S11314E00280F381E02D48E150E064EE71E0C60132
S11314F009950EC0E0916A03F0916B030280F381B9
S1131500E02D48E150E06DEF71E08AE693E0099543
S1131510EC960FB6F894DEBF0FBECDBFDF91CF912E
S11315201F910F91FF90EF90DF90CF900895089551
S1131530CF93DF93C0E0D0E0CE010E94AA0F8823AE
S113154041F02196C11584E0D807B1F780E094E01A
S113155002C08C2F9D2FDF91CF910895CF92DF92FF
S1131560EF92FF920F931F93CF93DF93EC018B01C4
S11315707A010E94980A99838883F701608166231F
S1131580E9F06701FFEFCF1ADF0A8881998181159D
S113159024E0920718F40E94B20F06C066E172E0DC
S11315A08AE693E00E9408038881998101969983D1
S11315B08883F60161916F016111E7CF6CE2888144
S11315C099810E94B20F88819981019699838883B9
S11315D0F80160816623D9F00F5F1F4F88819981DC
S11315E08115F4E09F0718F40E94B20F06C066E16B
S11315F072E08AE693E00E9408038881998101964B
S113160099838883F80161918F016111E7CF6CE2BE
S1131610888199810E94B20FE0916A03F0916B0373
S11316200280F381E02D49E050E06BE272E08AE64B
S113163093E00995E114F10499F0F7010190002079
S1131640E9F73197AF014E195F09E0916A03F09110
S11316506B030280F381E02DB7018AE693E00995DC
S1131660E0916A03F0916B030280F381E02D4EE078
S113167050E065E372E08AE693E00995DF91CF914B
S11316801F910F91FF90EF90DF90CF900895CF932B
S1131690DF93C0E0D0E060E0CE010E94B20F21965B
S11316A0C11584E0D807B9F7E0916A03F0916B03A0
S11316B00280F381E02D40E150E064E472E08AE6C8
S11316C093E00995DF91CF910895EF92FF920F93E4
S11316D01F93CF93DF937C010E94980AF7019183B3
S11316E08083181619065CF5C0E0D0E000E010E035
S11316F0CE010E94AA0F8C3211F40F5F1F4F0230EB
S113170011058CF0E0916A03F0916B030280F38180
S1131710E02D41E050E06CEF72E08AE693E0099539
S113172000E010E005C0682F8AE693E00E942B01D8
S11317302196F70180819181C817D907CCF2DF91F6
S1131740CF911F910F91FF90EF900895CF93DF9366
S11317506115710591F0EB016881662341F02196D2
S11317608AE693E00E941E0369916111F9CF6CEF40
S113177072E08AE693E00E940803DF91CF91089516
S1131780EF92FF920F931F93CF93DF93EC012FEF10
S113179089E698E1215080409040E1F700C00000C4
S11317A07E01A4E0EA0EF11CCE018C5F9E4FF7018E
S11317B01192E817F907E1F700E010E088819981B8
S11317C0DC01ED91FC910084F185E02D0995892BD4
S11317D079F088819981DC01ED91FC910284F38593
S11317E0E02D0995F70181937F010F5F1F4FE6CF2D
S11317F0FE01E00FF11F1482BE016C5F7F4FCE012A
S11318000E94A60BDF91CF911F910F91FF90EF9053
S11318100895CF93DF93EC011B821A82FC01349666
S113182080E091E0DF019C011D9221503040E1F7FE
S1131830F3951082319610823196108279836883F1
S113184026E040E855E260E070E08AE693E00E941A
S1131850800140E855E260E070E0888199810E944F
S113186033083FEF83ED90E3315080409040E1F73F
S113187000C0000065E572E0888199810E9432030E
S1131880CE010E94C00BDF91CF9108950F931F9357
S1131890CF93DF93EC0168E572E0888199810E941F
S11318A03203CE010E94C00B62E672E08881998106
S11318B00E943203CE010E94C00B8E010C5F1F4FA9
S11318C064E772E0C8010E94900F892BB1F0E091A7
S11318D06A03F0916B030280F381E02D48E150E04C
S11318E067E772E08AE693E00995FE01EB5FFE4F3D
S11318F0CC5FDE4F8881808324C060E972E0C80138
S11319000E94900F892B79F0E0916A03F0916B03A8
S11319100280F381E02D40E250E066E972E08AE65D
S113192093E009950EC0E0916A03F0916B03028085
S1131930F381E02D41E250E067EB72E08AE693E048
S11319400995DF91CF911F910F9108950F931F93E4
S1131950CF93DF93DC0112962D913C9113972B309A
S113196031050CF44CC0EC011B821A8288819981E8
S1131970DC01ED91FC910084F185E02D0995892B22
S113198031F469ED72E0888199810E943203CE01BD
S11319900E94C00B62EE72E0CE0104960E94900F8A
S11319A0892B49F181E08E010C5F1E4FF801808381
S11319B0E0916A03F0916B030280F381E02D40E132
S11319C050E06DEE72E08AE693E00995D8018C91BF
S11319D0882349F0FE01EB5FFE4F8081811103C033
S11319E0CE010E94460CFE01EB5FFE4FCC5FDE4F42
S11319F08881808309C0CC5FDE4F188205C02F5FC9
S1131A003F4FFC0133832283DF91CF911F910F91CC
S1131A100895FC01808191810E9432030895FC01A4
S1131A201282118274836383158216821782108650
S1131A30259A2D98209A2898559A5D9808950F9381
S1131A401F93FC016830710570F501E010E002C0DD
S1131A50000F111F6A95E2F7012E000C220B330BC5
S1131A60442369F085819681A781B085082B192BC1
S1131A702A2B3B2B058316832783308710C00095C0
S1131A8010952095309585819681A781B08508238E
S1131A9019232A233B230583168327833087A381B5
S1131AA0B48185818C931F910F910895FC018181EC
S1131AB09281803191050CF1128211826830710596
S1131AC0F8F481E090E002C0880F991F6A95E2F76C
S1131AD0092E000CAA0BBB0B4581568167817085CA
S1131AE084279527A627B72785839683A783B0875E
S1131AF00380F481E02D808308950196928381838D
S1131B000895FC016481758140E0828193810E9483
S1131B101F0D0895FC016481758141E082819381E8
S1131B200E941F0D0895FC01648175818281938157
S1131B300E94560D0895CF93DF93CDB7DEB7CD55F0
S1131B40D2400FB6F894DEBF0FBECDBF60ED77E094
S1131B5080E090E00E940B0520E042E063E0CE01CB
S1131B6001960E940708CE0180960E94970ABE0142
S1131B706F5F7F4FCE0182960E94090CAE01405EDA
S1131B805F4FBE016E5D7F4FCE01875D9E4F0E9409
S1131B90C508AE01475D5E4FBE016E5D7F4FCE014D
S1131BA0835D9E4F0E94E309CE0180960E94470BFD
S1131BB04EEF52E068E073E0CE0180960E94AE0AD8
S1131BC065E270E0CE018A5B9D4F0E940F0D8E018D
S1131BD0015B1D4F6BE270E0C8010E940F0D82E2B1
S1131BE093E0C85ADD4F99838883C855D240C65ABA
S1131BF0DD4F19830883CA55D24085E090E0C45A6A
S1131C00DD4F99838883CC55D2402FEF83ED90E349
S1131C10215080409040E1F700C00000E0916A0349
S1131C20F0916B030280F381E02D46E050E067E120
S1131C3073E08AE693E009952FEF83ED90E321505A
S1131C4080409040E1F700C00000CE0182960E94DF
S1131C50A60CCE0182960E94C00BCE01835D9E4FDE
S1131C600E94EF0ECE01835D9E4F0E94010ABE01C9
S1131C70685A7D4FCE01875D9E4F0E947B0960E0CC
S1131C8070E0CE018A5B9D4F0E94560D65E070E0C6
S1131C90CE018A5B9D4F0E94560D2FEF81EE94E09A
S1131CA0215080409040E1F700C00000CECFCF9398
S1131CB0DF93FC01349620E031E0DF01E9011D925D
S1131CC02197E9F7F3951082319624E1DF011D9203
S1131CD02A95E9F7EC01798368835B834A83DF9172
S1131CE0CF910895CF93DF93EC01FB01339760E02C
S1131CF070E040E050E031E080E0DF01938199231F
S1131D00B9F031962C91223231F420812D3019F41E
S1131D1021812A3019F04130510579F7DE01A60FEF
S1131D20B71F14969C936F5F7F4F432F582FE5CFB7
S1131D30FE01E60FF71F1482DF91CF9108950F93F0
S1131D401F93CF93DF93EC01CB0168E273E00E9411
S1131D50900FFC01892BC9F09781923269F0DE0162
S1131D60AB5FBE4F389620E030E09D932F5F3F4F2E
S1131D7091919232D1F702C020E030E02C0F3D1F48
S1131D80F901EB5FFE4F108204C0FE01EB5FFE4FD2
S1131D9010820AE613E0D801ED91FC910280F381F0
S1131DA0E02D4CE050E06EE273E0C8010995BE01FD
S1131DB06B5F7E4F888199810E94A60BD801ED91BB
S1131DC0FC910280F381E02D42E050E06BEF72E081
S1131DD0C8010995DF91CF911F910F9108950F9339
S1131DE01F93CF93DF93EC01088119810C5F1F4F80
S1131DF068E273E0C8010E94900F892BC9F1B80111
S1131E00CE010E949F0EBE016B5F7E4F8A819B8133
S1131E100E94CB080197D1F4E0916A03F0916B031F
S1131E200280F381E02D48E150E06BE373E08AE641
S1131E3093E00995688179816C5F7F4FCE010E94A0
S1131E40720ECC5FDE4F81E0888315C0E0916A0397
S1131E50F0916B030280F381E02D45E150E064E5ED
S1131E6073E08AE693E00995CC5FDE4F188203C0E5
S1131E70CC5FDE4F1882DF91CF911F910F910895AF
S1131E8097FB072E16F4009407D077FD09D00E9423
S1131E90760F07FC05D03EF4909581959F4F0895E9
S1131EA0709561957F4F0895A1E21A2EAA1BBB1B62
S1131EB0FD010DC0AA1FBB1FEE1FFF1FA217B30712
S1131EC0E407F50720F0A21BB30BE40BF50B661F28
S1131ED0771F881F991F1A9469F7609570958095EC
S1131EE090959B01AC01BD01CF010895AA1BBB1BBA
S1131EF051E107C0AA1FBB1FA617B70710F0A61B06
S1131F00B70B881F991F5A95A9F780959095BC0126
S1131F10CD010895EE0FFF1F0590F491E02D099473
S1131F20FB0151915523A9F0BF01DC014D914517E7
S1131F304111E1F759F4CD010190002049F04D9190
S1131F4040154111C9F3FB014111EFCF81E090E04D
S1131F5001970895F999FECF92BD81BDF89A99270A
S1131F6080B50895262FF999FECF1FBA92BD81BD81
S1131F7020BD0FB6F894FA9AF99A0FBE0196089507
S1071F80F894FFCFFF
S1131F84FF4C044C04000000002B01D902BC0007E0
S1131F94018E00A8009A00000000007E020D0A00D1
S1131FA46E616E00696E66006F7666000000000064
S1131FB46806D902E501B3064B062B06B40643684A
S1131FC465636B417574686F72697A6174696F6E65
S1131FD40A0070686F6E65206E756D626572732099
S1131FE4696E20436F6E74616374733A0A004154DA
S1131FF4410041542B435648553D30004154480058
S113200452494E470041542B434C4343004E756D93
S113201462657220617574686F72697A6564202DD3
S11320243E204F50454E204C4F434B200A0A004E4D
S1132034756D626572204445434C494E4544200AFB
S11320440A00556E6B6E6F776E004E756D62657225
S11320542072656365697665643A20004D61737422
S113206465723A0053686F756C642061646420700F
S113207465726D616E656E742E2E200A0053686F4E
S1132084756C64206164642074656D706F72617230
S1132094792E2E200A004552524F52204545505263
S11320A44F4D2069732066756C6C004164646564EB
S11320B42E2E2E22002220746F20454550524F4D5F
S11320C4200A0A00454550524F4D20636C656172E5
S11320D465640A0A0041540041542B434D47463D6C
S11320E4310041542B434E4D493D312C322C302C7C
S11320F4302C30004F4B00534D53204D6F646520FA
S1132104697320636F6E666967757265640A0A0091
S11321144552524F52004552524F5220696E205339
S11321244D53206D6F646520636F6E6669677572C5
S11321346174696F6E0A004E6F20726573706F6EFE
S1132144736520696E20534D5320636F6E6669670F
S113215475726174696F6E0A0041542B435245478A
S11321643F002B435245473A20302C310047534D0E
S113217420436F6E6E65637465640A0A0A00373817
S113218436373530393032004D69636861656C2007
S11321945374726569740053746172740A000000A4
S11321A400008A0D810D930D2B434D543A00534D79
S11321B4532073656E6465723A2000534D53207343
S11321C4656E64657220415554484F52495A4544DA
S11321D420210A00534D532073656E6465722044B4
S10D21E445434C494E4544200A00CF
S9030000FC
