S019000041726475696E6F4C6F636B4F70656E65722E7372656347
S11300000C9464000C944F040C9476040C94A6068F
S11300100C94A6060C94A6060C948C000C94F20383
S11300200C948C000C948C000C948C000C948C001C
S11300300C948C000C948C000C948C000C948C000C
S11300400C949D040C948C000C94E8010C942002F4
S11300500C948C000C948C000C948C000C948C00EC
S11300600C948C000C948C00020000000800020127
S11300700000030407000000000000000001020467
S11300800810204080010204081020010204081016
S1130090200404040404040404020202020202030D
S11300A003030303030000000023002600290000CB
S11300B0000000250028002B000000000024002779
S11300C0002A00005002BF0211241FBECFEFD8E067
S11300D0DEBFCDBF13E0A0E0B1E0EEE3F3E202C087
S11300E005900D92AC33B107D9F724E0ACE3B3E04B
S11300F001C01D92A73FB207E1F710E0C4E6D0E0CB
S113010004C02197FE010E946B0DC236D107C9F7C6
S11301100E94CB020C949D110C940000FC01918D63
S1130120228D892F90E0805C9F4F821B91098F73F1
S113013099270895FC01918D828D981731F0828D55
S1130140E80FF11D858D90E008958FEF9FEF0895DE
S1130150FC01918D828D981761F0828DDF01A80FCB
S1130160B11D5D968C91928D9F5F9F73928F90E0ED
S113017008958FEF9FEF0895FC01238D348D23178D
S113018038F08FE390E0821B9109830F911D08954D
S1130190832F90E0821B91090197089586E492E0F1
S11301A0892B49F080E090E0892B29F00E944602D7
S11301B081110E9400000895FC01848DDF01A80FC5
S11301C0B11DA35ABF4F8C91248D30E02F5F3F4F58
S11301D02F733078332334F421503109206C3F6F6E
S11301E02F5F3F4F248FA689B7898C93A089B1894B
S11301F08C91837080648C93938D848D981306C046
S11302000288F389E02D80818F7D80830895CF93C8
S1130210DF93EC01888D8823D9F0EA89FB898081FA
S113022085FD05C0A889B9898C9186FD11C00FB6DA
S113023007FCF5CF808185FFF2CF04C0CE010E9478
S1130240DC00EBCFA889B9898C9185FFE8CFF6CF84
S1130250DF91CF9108950F931F93CF93DF93EC0118
S113026081E0888F9B8D8C8D981326C0E889F9894D
S1130270808185FD32C020C08C8D18130CC00FB650
S113028007FCFACFE889F989808185FFF5CFCE0193
S11302900E94DC00F1CF8B8DFE01E80FF11DE35AC3
S11302A0FF4F00839FB7F8941B8FEA89FB898081F5
S11302B0806280839FBF1DC02B8D30E02F5F3F4F36
S11302C02F733078332334F421503109206C3F6F7D
S11302D02F5F3F4F062F122FCFCF9FB7F894EE8991
S11302E0FF896083E889F9898081837080648083D1
S11302F09FBF81E090E0DF91CF911F910F9108950E
S1130300CF92DF92EF92FF921F93CF93DF93EC0192
S11303106A017B01122FE889F98982E08083411503
S1130320514E61057105B1F060E079E08DE390E034
S1130330A70196010E94490DDA01C9010197A1099B
S1130340B109B695A795979587959C01211580E1EC
S11303503807A8F0E889F989108260E874E88EE12A
S113036090E0A70196010E94490DDA01C9010197A5
S1130370A109B109B695A795979587959C01EC8538
S1130380FD853083EE85FF852083188EEC89FD89F9
S11303901083EA89FB89808180618083EA89FB89F3
S11303A0808188608083EA89FB898081806880837A
S11303B0EA89FB8980818F7D8083DF91CF911F91B2
S11303C0FF90EF90DF90CF90089580E090E0089543
S11303D01F920F920FB60F9211242F938F939F9316
S11303E0AF93BF93EF93FF93E0914C03F0914D03D0
S11303F0808182FD14C0ECE3F3E0A689B7892C91D7
S1130400818D8F5F8F73928D891771F0DF01E18D7C
S1130410F0E0E45CFC4F258F59968C9305C0E09185
S11304205203F09153038081FF91EF91BF91AF91FB
S11304309F918F912F910F900FBE0F901F90189541
S11304401F920F920FB60F9211242F933F934F9345
S11304505F936F937F938F939F93AF93BF93EF9328
S1130460FF938CE393E00E94DC00FF91EF91BF9136
S1130470AF919F918F917F916F915F914F913F9138
S11304802F910F900FBE0F901F9018958CE393E05F
S11304900E948E0021E0892B09F420E0822F089528
S11304A0ECE3F3E01382128288EE93E0A0E0B0E084
S11304B084839583A683B7838FE091E091838083BF
S11304C085EC90E09587848784EC90E09787868715
S11304D080EC90E0918B808B81EC90E0938B828B0D
S11304E082EC90E0958B848B86EC90E0978B868BE6
S11304F0118E128E138E148E08958F929F92AF9246
S1130500BF92CF92DF92EF92FF920F931F93CF93FC
S1130510DF936C017B014C0182E0880E911C560133
S1130520E5E0AE0EB11C00E010E0F40161914F0172
S11305304AE050E0C7010E94B403EC016EE2C70137
S11305400E9420038C0F9D1F080F191F8A149B04FF
S113055061F74AE050E0F6016581C7010E94B403E7
S1130560800F911FDF91CF911F910F91FF90EF901A
S1130570DF90CF90BF90AF909F908F900895E9ED5A
S1130580F3E081E291E091838083128213821482EA
S11305901582089508950E94E7040E94CA02CEECD1
S11305A0D0E00E94AF0B2097E1F30E94CE00F9CF78
S11305B00E94710D0895CF92DF92EF92FF920F93F4
S11305C01F93CF93DF9341155105C1F06A018C014C
S11305D0E62EF72EC0E0D0E0D7016D917D01D80161
S11305E0ED91FC910190F081E02DC8010995892BD2
S11305F039F02196CC16DD0679F702C0C0E0D0E0D0
S1130600CE01DF91CF911F910F91FF90EF90DF907A
S1130610CF9008956115710581F0FB0101900020D0
S1130620E9F73197AF01461B570BDC01ED91FC91C3
S11306300280F381E02D0995089580E090E008950B
S1130640DC01ED91FC910190F081E02D0995089574
S1130650DC01ED91FC910280F381E02D42E050E059
S113066063E271E0099508950F931F93CF93DF938D
S1130670EC010E940A038C01CE010E942803800F22
S1130680911FDF91CF911F910F9108958F929F92A7
S1130690AF92BF92EF92FF920F931F93CF93DF938A
S11306A0CDB7DEB7A1970FB6F894DEBF0FBECDBFAE
S11306B07C01CB01BA0119A2223008F42AE08E0190
S11306C00F5D1F4F822E912CA12CB12CA5019401FA
S11306D00E94490DE62F622F732F842F952F01500E
S11306E01109EA3010F4E05D01C0E95CD801EC9333
S11306F0611571058105910549F70115110591F001
S1130700F80101900020E9F73197AF01401B510B2C
S1130710D701ED91FC910280F381E02DB801C7016E
S1130720099502C080E090E0A1960FB6F894DEBF70
S11307300FBECDBFDF91CF911F910F91FF90EF902E
S1130740BF90AF909F908F9008952115310549F483
S1130750DC01ED91FC910190F081E02D642F09956D
S113076008950E94460308959A01462F50E060E0E0
S113077070E00E94A5030895813039F018F08230AA
S113078051F0089510926E000895EFE6F0E0808134
S11307908D7F80830895E0E7F0E080818D7F808302
S11307A081E08093B000E1EBF0E08081887F846099
S11307B080831092B3000895CF93C82F80910601CF
S11307C0C81307C0E8E6F0E084919FEF9093060118
S11307D001C08FEF0E94BC0360E08C2F0E94900543
S11307E0CF9108951F920F920FB60F9211242F9359
S11307F03F934F935F936F937F938F939F93AF93A5
S1130800BF93EF93FF938091E2039091E303A09150
S1130810E403B091E503892B8A2B8B2B51F1909142
S1130820DF03E091E003F091E10380818927808375
S11308308091E2039091E303A091E403B091E50376
S1130840181619061A061B06C4F48091E203909147
S1130850E303A091E403B091E5030197A109B10971
S11308608093E2039093E303A093E403B093E5033E
S113087004C0809106010E94DC03FF91EF91BF91B7
S1130880AF919F918F917F916F915F914F913F9124
S11308902F910F900FBE0F901F90189508951F92DF
S11308A00F920FB60F9211242F933F934F935F93A0
S11308B06F937F938F939F93AF93BF93EF93FF9324
S11308C0E0910701F09108010995FF91EF91BF9123
S11308D0AF919F918F917F916F915F914F913F91D4
S11308E02F910F900FBE0F901F9018951F920F928B
S11308F00FB60F9211242F933F934F935F936F93EF
S11309007F938F939F93AF93BF93EF93FF93E09164
S11309100901F0910A010995FF91EF91BF91AF91FF
S11309209F918F917F916F915F914F913F912F9103
S11309300F900FBE0F901F9018951F920F920FB635
S11309400F9211242F933F938F939F93AF93BF9351
S11309508091E7039091E803A091E903B091EA0341
S11309603091E60323E0230F2D3720F40196A11DD7
S1130970B11D05C026E8230F0296A11DB11D2093C9
S1130980E6038093E7039093E803A093E903B0930D
S1130990EA038091EB039091EC03A091ED03B091F5
S11309A0EE030196A11DB11D8093EB039093EC031C
S11309B0A093ED03B093EE03BF91AF919F918F91FC
S11309C03F912F910F900FBE0F901F901895789420
S11309D084B5826084BD84B5816084BD85B5826040
S11309E085BD85B5816085BDEEE6F0E080818160DE
S11309F08083E1E8F0E010828081826080838081DE
S1130A0081608083E0E8F0E0808181608083E1EBB5
S1130A10F0E0808184608083E0EBF0E0808181609D
S1130A208083EAE7F0E08081846080838081826053
S1130A30808380818160808380818068808310923C
S1130A40C1000895833069F028F48130B1F0823018
S1130A50C1F008958730C9F08830E9F0843001F599
S1130A6006C0E0E8F0E080818F7780830895E0E8B5
S1130A70F0E080818F7D8083089584B58F7784BD75
S1130A80089584B58F7D84BD0895E0EBF0E0808106
S1130A908F7780830895E0EBF0E080818F7D808301
S1130AA00895CF93DF9390E0FC01E358FF4F249126
S1130AB0FC01EF56FF4F8491882379F190E0880F71
S1130AC0991FFC01E754FF4FA591B491FC01E15536
S1130AD0FF4FC591D49161110CC09FB7F8948C91CC
S1130AE0E22FE0958E238C932881E223E8839FBF35
S1130AF014C0623061F49FB7F8948C91322F309512
S1130B0083238C93E881E22BE8839FBF06C08FB7D1
S1130B10F894EC91E22BEC938FBFDF91CF91089581
S1130B201F93CF93DF93282F30E0F901E759FF4F4C
S1130B308491F901E358FF4F1491F901EF56FF4FE7
S1130B40C491CC23D1F0D62F81110E942205EC2F21
S1130B50F0E0EE0FFF1FE155FF4FA591B4918FB761
S1130B60F894D11106C09C91E12FE095E923EC9310
S1130B7003C0EC91E12BEC938FBFDF91CF911F91D8
S1130B8008952091F1043091F2042817390799F45B
S1130B909091EF038091F003981781F0E091EF03B7
S1130BA0F0E0EF50FC4F80812091EF032F5F209302
S1130BB0EF0390E008958FEF9FEF08958FEF9FEF7D
S1130BC008952091F1043091F2042817390799F41B
S1130BD02091F0038091EF0330E03395281B310915
S1130BE0307833232CF4215031093F6F2F5F3F4F6E
S1130BF0822F932F089580E090E008951F93CF9360
S1130C00DF93EC014C8D5D8D4115510529F481E094
S1130C1090E09B838A8338C0A989BA898889382F50
S1130C2030951FB79E8D792F727091FD6095F89461
S1130C30772321F09C91982B9C9303C09C91932340
S1130C409C93FA013197F1F798E060FF04C02C916E
S1130C50282B2C9303C02C9123232C93FA01319736
S1130C60F1F76695915089F7772321F08C91382319
S1130C703C9303C09C91892B8C931FBF8C8D9D8DBD
S1130C800197F1F741E050E0CA01DF91CF911F9144
S1130C90089508952091F1043091F204281739073A
S1130CA071F49091EF038091F003981759F0E0915B
S1130CB0EF03F0E0EF50FC4F808190E008958FEF58
S1130CC09FEF08958FEF9FEF0895E091F104F09165
S1130CD0F204E817F90769F4A389B4899C9185891A
S1130CE0809589238C931092F2041092F10481E090
S1130CF0089580E00895CF93DF93EC018A8D9B8D56
S1130D00892BF1F08091F1049091F204C817D9076E
S1130D10C9F0009711F00E9465068E8D8E7F8E8F2C
S1130D201092F0031092EF03D093F204C093F104F5
S1130D30EB89FC8990818D89892B808381E003C0B4
S1130D4080E001C080E0DF91CF9108951F920F925F
S1130D500FB60F9211242F933F934F935F936F938A
S1130D607F938F939F93AF93BF93CF93DF93EF932F
S1130D70FF93A091F104B091F204109709F478C0A4
S1130D805E968C915E9781FF0DC01E96ED91FC914D
S1130D901F9790811D968C911D97982381E071F483
S1130DA080E00CC01E96ED91FC911F9790811D96DA
S1130DB08C911D97982381E009F080E0882309F441
S1130DC057C05396ED91FC915497908155968C9110
S1130DD0559780958923808356968D919C9157973A
S1130DE00197F1F758966D917C9159971E96CD9184
S1130DF0DC911F971D965C911D9738E040E0FB0144
S1130E003197F1F7842F90E095958795482F2881A5
S1130E10252309F04068315091F75E968C915E97D6
S1130E2081FD40958091F0038F5F2091EF03281797
S1130E3049F0E091F003F0E0EF50FC4F40838093E1
S1130E40F00307C05E968C915E9781605E968C93EA
S1130E505E975A968D919C915B970197F1F7539603
S1130E60ED91FC915497908155968C91892B8083B8
S1130E70FF91EF91DF91CF91BF91AF919F918F91AE
S1130E807F916F915F914F913F912F910F900FBE82
S1130E900F901F9018951F93CF93DF93EC01162F9B
S1130EA06E8D6695617081E06827812F0E949005A0
S1130EB061E0812F0E945105812F90E0FC01E358ED
S1130EC0FF4FE491E88BFC01EF56FF4FE491F0E013
S1130ED0EE0FFF1FE155FF4F859194919A8B898BFB
S1130EE0DF91CF911F9108951F93CF93DF93EC016E
S1130EF0162F60E0812F0E9451058E8D81FD04C064
S1130F0061E0812F0E9490051C87612F70E0FB0136
S1130F10E358FF4FE491ED87FB01EF56FF4FE49157
S1130F20F0E0EE0FFF1FEB55FF4F859194919F87E3
S1130F308E87DF91CF911F9108951F93CF93DF93F5
S1130F40EC01162F1B821A8288EE93E0A0E0B0E039
S1130F508C839D83AE83BF8386E391E099838883EA
S1130F601F8A1E8A198E188E1B8E1A8E1D8E1C8E39
S1130F708E8D8E7F20FB81F98E8F642FCE010E948F
S1130F804B07612FCE010E947407DF91CF911F910F
S1130F900895CF93DF93EC019A01AB011B8E1A8E57
S1130FA0198E188E1F8A1E8A60E079E08DE390E026
S1130FB00E94490DF9012430310518F0C901039745
S1130FC002C081E090E09D8F8C8F8C85863108F083
S1130FD041C0B901769567956431710518F0635184
S1130FE0710902C061E070E07F8B6E8B369720F050
S1130FF0B9016550710902C061E070E0798F688FB2
S1131000B901660F771F260F371F3695279536953A
S113101027952D30310510F12C50310921C021E0E4
S11310208E3008F420E081E001C0880F2A95EAF7A9
S1131030982B909368009C859830D0F09E3010F1E6
S1131040963158F120E030E02AC08D8B8C8D9D8D37
S11310500197F1F7CE010E947B062AC021E030E01F
S11310603B8F2A8F909168008830C8F684E0E0CFE7
S11310702DE630E03C8B2B8B81E001C0880F9A95E4
S1131080EAF7E3CF2BE630E03C8B2B8B985081E0E2
S113109001C0880F9A95EAF7D8CF2CE630E03C8B54
S11310A02B8B9E5081E001C0880F9A95EAF7CDCF33
S11310B0DF91CF910895FC017183608308956F924D
S11310C07F928F929F92AF92BF92CF92DF92EF92D4
S11310D0FF920F931F93CF93DF93CDB7DEB7C45620
S11310E0D1090FB6F894DEBF0FBECDBF4B017A0114
S11310F0FE01319684E6DF011D928A95E9F70CE33F
S113110013E0D801ED91FC910280F381E02D43E1DD
S113111050E064E471E0C8010995F701E080F180D2
S1131120D801ED91FC910280F381E02D49E150E07A
S113113068E571E0C8010995E114F10409F45EC0A1
S113114000E010E00F2EF2E7AF2EF1E0BF2EF02DFD
S1131150FE0131966F010F2EFCE36F2EF3E07F2E1C
S1131160F02DFF92EF92C701C2969F938F93BF9287
S1131170AF92DF92CF920E94B30EF601019000204D
S1131180E9F73197AF014C195D09D301ED91FC9159
S11311900280F381E02DB601C3010995BFEFE1EEB2
S11311A0F4E0B150E040F040E1F700C00000D401A9
S11311B08C910FB6F894DEBF0FBECDBF882391F09B
S11311C01196F701E00FF11F92A9981306C00F5F63
S11311D01F4F093011051CF014C000E010E08D9180
S11311E08111EFCFF701EA5BFF4FE080F180E1145A
S11311F0F10409F0B6CF80E090E005C080E090E013
S113120002C081E090E0CC59DF4F0FB6F894DEBF06
S11312100FBECDBFDF91CF911F910F91FF90EF9043
S1131220DF90CF90BF90AF909F908F907F906F9002
S11312300895CF93DF93EC016FE871E08881998181
S11312400E946E0B888199810E942F0A63E971E0E4
S1131250888199810E946E0B888199810E942F0A4E
S11312606DE971E0888199810E946E0B8881998172
S11312700E942F0ADF91CF910895EF92FF920F936E
S11312801F93CF93DF93EC017B010881198161EAFD
S113129071E0C80104960E94990E892B99F166EABF
S11312A071E0C8010E946E0B888199810E942F0A07
S11312B0688179816C5F7F4FA701CE010E945F082E
S11312C0019791F4E0913C03F0913D030280F38196
S11312D0E02D41E250E06EEA71E08CE393E0099581
S11312E0CE010E9419090EC0E0913C03F0913D0328
S11312F00280F381E02D42E150E060ED71E08CE387
S113130093E00995DF91CF911F910F91FF90EF909A
S113131008950F931F93CF93DF93EC018A010E94EA
S1131320920EB801CE01C2960E94920EDF91CF9127
S11313301F910F910895FC01118210821382128271
S11313400895FC01208131812115310519F473833D
S1131350628305C0D901A85BBF4F6D937C938081E4
S11313609181DB01AA5BBF4F8D939C937183608352
S1131370FB01E85BFF4F118210820895CF92DF9248
S1131380EF92FF920F931F93CF93DF932130310598
S113139009F042C07A018B01EC018AE490E00E94DA
S11313A0D8026C01A701B8010E948909B601CE01D7
S11313B00E94A109E0913C03F0913D030280F38176
S11313C0E02D49E050E063EE71E08CE393E0099591
S11313D0E114F10499F0F70101900020E9F7319745
S11313E0AF014E195F09E0913C03F0913D03028087
S11313F0F381E02DB7018CE393E00995E0913C0380
S1131400F0913D030280F381E02D4EE050E06DEE5B
S113141071E08CE393E00995DF91CF911F910F91D7
S1131420FF90EF90DF90CF900895CF93DF936115F5
S1131430710591F0EB016881662341F021968CE3FC
S113144093E00E94200369916111F9CF63EA72E08D
S11314508CE393E00E940A03DF91CF910895EF9209
S1131460FF920F931F93CF93DF93EC012FEF89E645
S113147098E1215080409040E1F700C000007E01D7
S1131480A4E0EA0EF11CCE018C5F9E4FF70111928D
S1131490E817F907E1F700E010E088819981DC01A1
S11314A0ED91FC910084F185E02D0995892B79F06B
S11314B088819981DC01ED91FC910284F385E02D12
S11314C00995F70181937F010F5F1F4FE6CFFE015E
S11314D0E00FF11F1482BE016C5F7F4FCE010E94AA
S11314E0150ADF91CF911F910F91FF90EF9008950E
S11314F0CF93DF93EC01FC01EC5FFE4F1082319639
S11315001082319610827983688326E040E855E2A0
S113151060E070E08CE393E00E94800140E855E2D3
S113152060E070E0888199810E94C9072FEF83ED04
S113153090E3215080409040E1F700C000006CEF40
S113154071E0888199810E943403CE010E942F0AA0
S1131550DF91CF9108950F931F93CF93DF93EC0105
S11315606FEF71E0888199810E943403CE010E945B
S11315702F0A69E072E0888199810E943403CE01C8
S11315800E942F0A8E010C5F1F4F6BE172E0C801AD
S11315900E94990E892BB1F0E0913C03F0913D0338
S11315A00280F381E02D48E150E06EE172E08CE3CB
S11315B093E00995FE01EB5FFE4FCC5FDE4F88811F
S11315C0808324C067E372E0C8010E94990E892BCE
S11315D079F0E0913C03F0913D030280F381E02D2A
S11315E040E250E06DE372E08CE393E009950EC0B5
S11315F0E0913C03F0913D030280F381E02D41E250
S113160050E06EE572E08CE393E00995DF91CF91B1
S11316101F910F9108950F931F93CF93DF93DC01D4
S113162012962D913C9113972B3031050CF44CC03C
S1131630EC011B821A8288819981DC01ED91FC9175
S11316400084F185E02D0995892B31F460E872E07E
S1131650888199810E943403CE010E942F0A69E88F
S113166072E0CE0104960E94990E892B49F181E023
S11316708E010C5F1E4FF8018083E0913C03F091D2
S11316803D030280F381E02D40E150E064E972E023
S11316908CE393E00995D8018C91882349F0FE01ED
S11316A0EB5FFE4F8081811103C0CE010E94AB0A23
S11316B0FE01EB5FFE4FCC5FDE4F8881808309C063
S11316C0CC5FDE4F188205C02F5F3F4FFC01338390
S11316D02283DF91CF911F910F910895FC018081A6
S11316E091810E9434030895FC0112821182748353
S11316F063831582168217821086259A2D98209A64
S11317002898559A5D980895FC01818192818031D1
S113171091050CF11282118268307105F8F481E0B0
S113172090E002C0880F991F6A95E2F7092E000C19
S1131730AA0BBB0B45815681678170858427952749
S1131740A627B72785839683A783B0870380F48170
S1131750E02D808308950196928381830895CF9329
S1131760DF93CDB7DEB7C655D2400FB6F894DEBFCF
S11317700FBECDBF20E042E063E0CE0101960E949F
S11317809D07BE016F5F7F4FCE0180960E94780A4D
S1131790BE01605E7F4FCE01895D9E4F0E945B0853
S11317A0AE01495D5E4FBE01605E7F4FCE01875D35
S11317B09E4F0E94560CCE018F5B9D4F0E949B0949
S11317C021E030E045EA52E06FEA72E0CE018F5B3F
S11317D09D4F0E94BE0921E030E04EEB52E068ECE0
S11317E072E0CE018F5B9D4F0E94BE0980E284B9F6
S11317F065E270E0CE018B5B9D4F0E94740B6BE23F
S113180070E0CE01825B9D4F0E94740B2FEF83ED3D
S113181090E3215080409040E1F700C00000E09147
S11318203C03F0913D030280F381E02D46E050E05B
S113183066ED72E08CE393E009952FEF83ED90E37E
S1131840215080409040E1F700C00000CE01809616
S11318500E940B0BCE0180960E942F0ABE016F5B83
S11318607D4FCE01875D9E4F0E94E60CBE016F5BEB
S11318707D4FCE01895D9E4F0E943D0960E070E07E
S1131880CE018B5B9D4F0E94840B65E070E0CE011E
S11318908B5B9D4F0E94840B2FEF80E792E02150D9
S11318A080409040E1F700C00000D0CFCF93DF9399
S11318B0FC01349624E1DF011D922A95E9F7749620
S11318C020E031E0EF01D90119921197E9F7EC0119
S11318D0798368835B834A83DF91CF910895CF93A3
S11318E0DF93EC01FB01339760E070E040E050E0EF
S11318F031E080E0DF0193819923B9F031962C9196
S1131900223231F420812D3019F421812A3019F04A
S11319104130510579F7DE01A60FB71F58969C9305
S11319206F5F7F4F432F582FE5CFFE01E60FF71F60
S1131930108EDF91CF9108950F931F93CF93DF9370
S1131940EC01CB016DED72E00E94990EFC01892B34
S1131950B1F09781923261F0DE011496389620E05E
S113196030E09D932F5F3F4F91919232D1F702C0A7
S113197020E030E0FE01E20FF31F148201C01C825C
S11319800CE313E0D801ED91FC910280F381E02D8A
S11319904CE050E063EE72E0C8010995BE016C5F53
S11319A07F4F888199810E94150AD801ED91FC919D
S11319B00280F381E02D42E050E062EA72E0C80167
S11319C00995DF91CF911F910F910895EF92FF92A6
S11319D00F931F93CF93DF93EC017B01088119814F
S11319E00C5F1F4F6DED72E0C8010E94990E892BA8
S11319F009F448C0B801CE010E949C0CA701BE01A5
S1131A006C5F7F4F8A819B810E945F08019761F51B
S1131A10E0913C03F0913D030280F381E02D48E125
S1131A2050E060EF72E08CE393E00995688179817E
S1131A306C5F7F4FCE010E946F0C69E073E0CE01B2
S1131A4048960E94990E892BE9F0E0913C03F091AD
S1131A503D030280F381E02D43E150E062E173E055
S1131A608CE393E009950EC0E0913C03F0913D03B3
S1131A700280F381E02D45E150E066E273E08CE3FF
S1131A8093E00995DF91CF911F910F91FF90EF9013
S1131A900895A1E21A2EAA1BBB1BFD010DC0AA1FAB
S1131AA0BB1FEE1FFF1FA217B307E407F50720F0C3
S1131AB0A21BB30BE40BF50B661F771F881F991F3E
S1131AC01A9469F760957095809590959B01AC0187
S1131AD0BD01CF010895EE0FFF1F0590F491E02D95
S1131AE009940F931F93CF93DF938230910510F4E1
S1131AF082E090E0E091F504F091F60420E030E01B
S1131B00A0E0B0E0309719F1408151810281138146
S1131B1048175907C8F08417950769F4109731F0EE
S1131B2012960C93129713961C9327C00093F504F6
S1131B301093F60422C02115310519F042175307FA
S1131B4018F49A01BD01EF01DF01F801DBCF211583
S1131B503105F9F0281B390B2430310580F48A81D2
S1131B609B816115710521F0FB019383828304C07D
S1131B709093F6048093F504FE01329644C0FE016E
S1131B80E20FF31F81939193225031093983288303
S1131B903AC02091F3043091F404232B41F42091B2
S1131BA00201309103013093F4042093F304209153
S1131BB00001309101012115310541F42DB73EB7E3
S1131BC04091040150910501241B350BE091F3046D
S1131BD0F091F404E217F307A0F42E1B3F0B28172F
S1131BE0390778F0AC014E5F5F4F2417350748F092
S1131BF04E0F5F1F5093F4044093F3048193919329
S1131C0002C0E0E0F0E0CF01DF91CF911F910F918E
S1131C100895CF93DF93009709F481C0FC013297B4
S1131C2013821282A091F504B091F604109781F406
S1131C3020813181820F931F2091F3043091F404A9
S1131C402817390751F5F093F404E093F30467C0BF
S1131C50ED0120E030E0CE17DF0740F44A815B81DC
S1131C609E0141155105F1F0EA01F5CFD383C283FA
S1131C7040815181840F951FC817D90759F4888171
S1131C809981840F951F0296918380838A819B8119
S1131C90938382832115310529F4F093F604E093AC
S1131CA0F5043DC0E901FB83EA8349915991C40FCE
S1131CB0D51FEC17FD0761F480819181840F951F76
S1131CC00296E90199838883828193819B838A8325
S1131CD0E0E0F0E012968D919C911397009719F033
S1131CE0FD01DC01F7CF8D919C9111979D012E5F31
S1131CF03F4F820F931F2091F3043091F40428176F
S1131D00390769F4309729F41092F6041092F50417
S1131D1002C013821282B093F404A093F304DF91FF
S1131D20CF910895FB01DC0101900D920020E1F7B1
S1131D300895FB0151915523A9F0BF01DC014D9198
S1131D4045174111E1F759F4CD010190002049F004
S1131D504D9140154111C9F3FB014111EFCF81E0D1
S1131D6090E001970895AEE0B0E0E9EBFEE00C945A
S1131D7074110D891E8986E08C831A8309838FEF81
S1131D809FE79E838D83AE01475E5F4F6F89788D99
S1131D90CE0101960E94D50EEF81F885E00FF11F68
S1131DA010822E96E4E00C949011ABE0B0E0EBEDE1
S1131DB0FEE00C9466116C017B018A01FC01178220
S1131DC01682838181FFCCC1CE0101963C01F601CC
S1131DD09381F70193FD859193FF81917F0188237E
S1131DE009F4BAC1853239F493FD859193FF819149
S1131DF07F01853229F4B60190E00E94CC10E7CF30
S1131E00912C212C312CFFE1F315D8F08B3279F091
S1131E1038F4803279F08332A1F4232D20611DC07F
S1131E208D3261F0803369F4232D216016C0832D37
S1131E308260382EE32DE4603E2E2AC0F32DF86034
S1131E401DC037FC2DC020ED280F2A3040F08E3203
S1131E50B9F436FC81C1232D2064322E19C036FE1C
S1131E6006C08AE0989E200D1124922E11C0EAE04B
S1131E702E9E200D1124222EF32DF0623F2E08C039
S1131E808C3621F4832D8068382E02C0883641F4C4
S1131E90F70193FD859193FF81917F018111B3CF68
S1131EA0982F9F7D9554933028F40C5F1F4F9FE328
S1131EB099830DC0833631F0833771F0833509F08F
S1131EC059C021C0F801808189830E5F1F4F882487
S1131ED08394912C530113C02801F2E04F0E511C3E
S1131EE0F801A080B18036FE03C0692D70E002C005
S1131EF06FEF7FEFC5010E94C1104C018201F32DE9
S1131F00FF773F2E16C0280122E0420E511CF80133
S1131F10A080B18036FE03C0692D70E002C06FEF6F
S1131F207FEFC5010E94B6104C01F32DF0683F2EDF
S1131F30820133FC1BC0822D90E088169906B0F410
S1131F40B60180E290E00E94CC102A94F4CFF5010F
S1131F5037FC859137FE81915F01B60190E00E94C4
S1131F60CC1021102A9421E0821A91088114910442
S1131F7071F7E8C0843611F0893641F5F80137FE6F
S1131F8007C060817181828193810C5F1F4F08C0FB
S1131F9060817181072E000C880B990B0E5F1F4F17
S1131FA0F32DFF763F2E97FF09C09095809570958D
S1131FB061957F4F8F4F9F4FF0683F2E2AE030E0AE
S1131FC0A3010E940811882E861845C0853731F474
S1131FD0232D2F7EB22E2AE030E025C0932D997F49
S1131FE0B92E8F36C1F018F4883579F0B5C0803732
S1131FF019F0883721F0B0C0E92FE061BE2EB4FE9D
S11320000DC0FB2DF460BF2E09C034FE0AC0292F79
S11320102660B22E06C028E030E005C020E130E0A2
S113202002C020E132E0F801B7FE07C0608171818F
S1132030828193810C5F1F4F06C06081718180E0B3
S113204090E00E5F1F4FA3010E940811882E86188E
S1132050FB2DFF773F2E36FE0DC0232D2E7FA22EA3
S1132060891458F434FE0BC032FC09C0832D8E7ED3
S1132070A82E05C0B82CA32C03C0B82C01C0B92CC1
S1132080A4FE0FC0FE01E80DF11D8081803321F410
S11320909A2D997EA92E09C0A2FE06C0B394B394CA
S11320A004C08A2D867809F0B394A3FC11C0A0FE65
S11320B006C0B21488F4280C922C9B180EC0B214DB
S11320C060F4B60180E290E00E94CC10B394F7CFA4
S11320D0B21418F42B1802C0982C212CA4FE10C0A2
S11320E0B60180E390E00E94CC10A2FE17C0A1FCD0
S11320F003C088E790E002C088E590E0B6010CC018
S11321008A2D867859F0A1FE02C08BE201C080E2DC
S1132110A7FC8DE2B60190E00E94CC10891438F43B
S1132120B60180E390E00E94CC109A94F7CF8A9491
S1132130F301E80DF11D8081B60190E00E94CC10FE
S11321408110F5CF222009F442CEB60180E290E05E
S11321500E94CC102A94F6CFF6018681978102C0A2
S11321608FEF9FEF2B96E2E10C948211FC01059016
S1132170615070400110D8F7809590958E0F9F1F85
S11321800895FC016150704001900110D8F78095CA
S113219090958E0F9F1F08950F931F93CF93DF93F6
S11321A0FB01238121FD03C08FEF9FEF2CC022FF91
S11321B016C046815781248135814217530744F460
S11321C0A081B1819D012F5F3F4F318320838C9388
S11321D0268137812F5F3F4F3783268314C08B01BD
S11321E0EC01FB010084F185E02D0995892BE1F6D2
S11321F0D80116968D919C911797019617969C93EA
S11322008E931697CE01DF91CF911F910F91089570
S1132210FA01AA27283051F1203181F1E8946F9313
S11322206E7F6E5F7F4F8F4F9F4FAF4FB1E03ED0B9
S1132230B4E03CD0670F781F891F9A1FA11D680F57
S1132240791F8A1F911DA11D6A0F711D811D911D8A
S1132250A11D20D009F468943F912AE0269F1124FF
S11322603019305D3193DEF6CF010895462F477063
S1132270405D4193B3E00FD0C9F7F6CF462F4F70BE
S1132280405D4A3318F0495D31FD4052419302D01C
S1132290A9F7EACFB4E0A6959795879577956795C2
S11322A0BA95C9F700976105710508959B01AC01C2
S11322B00A2E06945795479537952795BA95C9F7E9
S11322C0620F731F841F951FA01D08952F923F92C4
S11322D04F925F926F927F928F929F92AF92BF9232
S11322E0CF92DF92EF92FF920F931F93CF93DF93DE
S11322F0CDB7DEB7CA1BDB0B0FB6F894DEBF0FBE3B
S1132300CDBF09942A88398848885F846E847D8487
S11323108C849B84AA84B984C884DF80EE80FD8089
S11323200C811B81AA81B981CE0FD11D0FB6F894FF
S1112330DEBF0FBECDBFED010895F894FFCFC0
S113233E0000F7042000FF4E044E04000000002BA2
S113234E01DB02BC0007018E00A8009A0000000009
S113235E007D020D0A006E616E00696E66006F7676
S113236E660000000000FE05DB02E5014906E105FA
S113237EC1054A06436865636B417574686F72697B
S113238E7A6174696F6E0A0074656D706F72617232
S113239E792070686F6E65206E756D626572733A22
S11323AE0A0070686F6E65206E756D6265723A20F4
S11323BE257309094E616D653A202573200A004183
S11323CE54410041542B435648553D300041544826
S11323DE0052494E470041542B434C4343004E7523
S11323EE6D62657220617574686F72697A656420B6
S11323FE2D3E204F50454E204C4F434B200A0A0091
S113240E4E756D626572204445434C494E454420D9
S113241E0A0A0041646465642E2E2E220022207462
S113242E656D706F72617279200A0A004154004121
S113243E542B434D47463D310041542B434E4D4999
S113244E3D312C322C302C302C30004F4B00534D60
S113245E53204D6F646520697320636F6E666967E0
S113246E757265640A0A004552524F520045525223
S113247E4F5220696E20534D53206D6F6465206357
S113248E6F6E66696775726174696F6E0A004E6F5E
S113249E20726573706F6E736520696E20534D5391
S11324AE20636F6E66696775726174696F6E0A0078
S11324BE41542B435245473F002B435245473A2044
S11324CE302C310047534D20436F6E6E6563746537
S11324DE640A0A0A00373836373530393032004D3F
S11324EE69636861656C205374726569740035366E
S11324FE34343138393130004D617274696E205381
S113250E74726569740053746172740A002B434DBE
S113251E543A00534D532073656E6465723A20002D
S113252E534D532073656E64657220415554484F64
S113253E52495A454420210A00476C6F6269203182
S113254E38004D736720476C6F626920726563654E
S113255E697665640A00534D532073656E64657223
S10F256E204445434C494E4544200A00DB
S9030000FC
