:100000000C9464000C9450040C9477040C94130723
:100010000C9413070C9413070C948C000C94F303AA
:100020000C948C000C948C000C948C000C948C0020
:100030000C948C000C948C000C948C000C948C0010
:100040000C949E040C948C000C94E8010C942002F7
:100050000C948C000C948C000C948C000C948C00F0
:100060000C948C000C948C0002000000080002012B
:10007000000003040700000000000000000102046B
:10008000081020408001020408102001020408101A
:100090002004040404040404040202020202020311
:1000A00003030303030000000023002600290000CF
:1000B000000000250028002B00000000002400277D
:1000C000002A00005002C00211241FBECFEFD8E06A
:1000D000DEBFCDBF13E0A0E0B1E0E8EAF3E202C08A
:1000E00005900D92A43BB107D9F725E0A4EBB3E04E
:1000F00001C01D92AF36B207E1F710E0C4E6D0E0D0
:1001000004C02197FE010E947410C236D107C9F7BE
:100110000E94CC020C94D2110C940000FC01918D31
:10012000228D892F90E0805C9F4F821B91098F73F5
:1001300099270895FC01918D828D981731F0828D59
:10014000E80FF11D858D90E008958FEF9FEF0895E2
:10015000FC01918D828D981761F0828DDF01A80FCF
:10016000B11D5D968C91928D9F5F9F73928F90E0F1
:1001700008958FEF9FEF0895FC01238D348D231791
:1001800038F08FE390E0821B9109830F911D089551
:10019000832F90E0821B91090197089586E492E0F5
:1001A000892B49F080E090E0892B29F00E944602DB
:1001B00081110E9400000895FC01848DDF01A80FC9
:1001C000B11DA35ABF4F8C91248D30E02F5F3F4F5C
:1001D0002F733078332334F421503109206C3F6F72
:1001E0002F5F3F4F248FA689B7898C93A089B1894F
:1001F0008C91837080648C93938D848D981306C04A
:100200000288F389E02D80818F7D80830895CF93CC
:10021000DF93EC01888D8823D9F0EA89FB898081FE
:1002200085FD05C0A889B9898C9186FD11C00FB6DE
:1002300007FCF5CF808185FFF2CF04C0CE010E947C
:10024000DC00EBCFA889B9898C9185FFE8CFF6CF88
:10025000DF91CF9108950F931F93CF93DF93EC011C
:1002600081E0888F9B8D8C8D981326C0E889F98951
:10027000808185FD32C020C08C8D18130CC00FB654
:1002800007FCFACFE889F989808185FFF5CFCE0197
:100290000E94DC00F1CF8B8DFE01E80FF11DE35AC7
:1002A000FF4F00839FB7F8941B8FEA89FB898081F9
:1002B000806280839FBF1DC02B8D30E02F5F3F4F3A
:1002C0002F733078332334F421503109206C3F6F81
:1002D0002F5F3F4F062F122FCFCF9FB7F894EE8995
:1002E000FF896083E889F9898081837080648083D5
:1002F0009FBF81E090E0DF91CF911F910F91089512
:10030000CF92DF92EF92FF921F93CF93DF93EC0196
:100310006A017B01122FE889F98982E08083411507
:10032000514E61057105B1F060E079E08DE390E038
:10033000A70196010E945210DA01C9010197A10993
:10034000B109B695A795979587959C01211580E1F0
:100350003807A8F0E889F989108260E874E88EE12E
:1003600090E0A70196010E945210DA01C90101979D
:10037000A109B109B695A795979587959C01EC853C
:10038000FD853083EE85FF852083188EEC89FD89FD
:100390001083EA89FB89808180618083EA89FB89F7
:1003A000808188608083EA89FB898081806880837E
:1003B000EA89FB8980818F7D8083DF91CF911F91B6
:1003C000FF90EF90DF90CF90089580E090E0089547
:1003D0001F920F920FB60F9211242F938F939F931A
:1003E000AF93BF93EF93FF93E091C403F091C503E4
:1003F000808182FD14C0E4EBF3E0A689B7892C91DB
:10040000818D8F5F8F73928D891771F0DF01E18D80
:10041000F0E0EC54FC4F258F59968C9305C0E09189
:10042000CA03F091CB038081FF91EF91BF91AF910F
:100430009F918F912F910F900FBE0F901F90189545
:100440001F920F920FB60F9211242F933F934F9349
:100450005F936F937F938F939F93AF93BF93EF932C
:10046000FF9384EB93E00E94DC00FF91EF91BF913A
:10047000AF919F918F917F916F915F914F913F913C
:100480002F910F900FBE0F901F90189584EB93E063
:100490000E948E0021E0892B09F420E0822F08952C
:1004A000E4EBF3E01382128288EE93E0A0E0B0E088
:1004B00084839583A683B7838FE091E091838083C3
:1004C00085EC90E09587848784EC90E09787868719
:1004D00080EC90E0918B808B81EC90E0938B828B11
:1004E00082EC90E0958B848B86EC90E0978B868BEA
:1004F000118E128E138E148E089508958F929F92EE
:10050000AF92BF92CF92DF92EF92FF920F931F9321
:10051000CF93DF936C017B014C0182E0880E911C2C
:100520005601E5E0AE0EB11C00E010E0F40161916F
:100530004F014AE050E0C7010E94B503EC016EE2B2
:10054000C7010E9421038C0F9D1F080F191F8A14D9
:100550009B0461F74AE050E0F6016581C7010E9403
:10056000B503800F911FDF91CF911F910F91FF90E5
:10057000EF90DF90CF90BF90AF909F908F900895B5
:10058000E1E5F4E081E291E09183808312821382BD
:1005900014821582089508950E9454050E94CB028A
:1005A000CEECD0E00E949B0E2097E1F30E94CE009B
:1005B000F9CF0E947A100895CF92DF92EF92FF92C6
:1005C0000F931F93CF93DF9341155105C1F06A013B
:1005D0008C01E62EF72EC0E0D0E0D7016D917D01B1
:1005E000D801ED91FC910190F081E02DC8010995B1
:1005F000892B39F02196CC16DD0679F702C0C0E0D0
:10060000D0E0CE01DF91CF911F910F91FF90EF903D
:10061000DF90CF9008956115710581F0FB01019085
:100620000020E9F73197AF01461B570BDC01ED9134
:10063000FC910280F381E02D0995089580E090E01F
:100640000895DC01ED91FC910190F081E02D099578
:100650000895DC01ED91FC910280F381E02D42E0F0
:1006600050E063E271E0099508950F931F93CF93D3
:10067000DF93EC010E940B038C01CE010E94290341
:10068000800F911FDF91CF911F910F9108958F924D
:100690009F92AF92BF92EF92FF920F931F93CF93CF
:1006A000DF93CDB7DEB7A1970FB6F894DEBF0FBECC
:1006B000CDBF7C01CB01BA0119A2223008F42AE097
:1006C0008E010F5D1F4F822E912CA12CB12CA50104
:1006D00094010E945210E62F622F732F842F952FC2
:1006E00001501109EA3010F4E05D01C0E95CD80165
:1006F000EC93611571058105910549F70115110507
:1007000091F0F80101900020E9F73197AF01401B0B
:10071000510BD701ED91FC910280F381E02DB801DE
:10072000C701099502C080E090E0A1960FB6F89449
:10073000DEBF0FBECDBFDF91CF911F910F91FF9014
:10074000EF90BF90AF909F908F9008952115310545
:1007500049F4DC01ED91FC910190F081E02D642FD2
:10076000099508950E94470308959A01462F50E085
:1007700060E070E00E94A6030895813039F018F01F
:10078000823051F0089510926E000895EFE6F0E087
:1007900080818D7F80830895E0E7F0E080818D7F08
:1007A000808381E08093B000E1EBF0E08081887F7E
:1007B000846080831092B3000895CF93C82F8091F6
:1007C0000601C81307C0E8E6F0E084919FEF90931C
:1007D000060101C08FEF0E94BD0360E08C2F0E94D4
:1007E000FD05CF9108951F920F920FB60F9211241D
:1007F0002F933F934F935F936F937F938F939F9329
:10080000AF93BF93EF93FF9380915A0490915B0451
:10081000A0915C04B0915D04892B8A2B8B2B51F144
:1008200090915704E0915804F091590480818927F0
:10083000808380915A0490915B04A0915C04B091F4
:100840005D04181619061A061B06C4F480915A0492
:1008500090915B04A0915C04B0915D040197A109A3
:10086000B10980935A0490935B04A0935C04B09305
:100870005D0404C0809106010E94DD03FF91EF91A9
:10088000BF91AF919F918F917F916F915F914F91A8
:100890003F912F910F900FBE0F901F9018950895C4
:1008A0001F920F920FB60F9211242F933F934F93E5
:1008B0005F936F937F938F939F93AF93BF93EF93C8
:1008C000FF93E0910701F09108010995FF91EF91E5
:1008D000BF91AF919F918F917F916F915F914F9158
:1008E0003F912F910F900FBE0F901F9018951F9260
:1008F0000F920FB60F9211242F933F934F935F9354
:100900006F937F938F939F93AF93BF93EF93FF93D7
:10091000E0910901F0910A010995FF91EF91BF91D2
:10092000AF919F918F917F916F915F914F913F9187
:100930002F910F900FBE0F901F9018951F920F923E
:100940000FB60F9211242F933F938F939F93AF93E2
:10095000BF9380915F0490916004A0916104B09175
:10096000620430915E0423E0230F2D3720F40196BA
:10097000A11DB11D05C026E8230F0296A11DB11DC2
:1009800020935E0480935F0490936004A0936104BD
:10099000B09362048091630490916404A091650413
:1009A000B09166040196A11DB11D809363049093DC
:1009B0006404A0936504B0936604BF91AF919F91C6
:1009C0008F913F912F910F900FBE0F901F90189510
:1009D0003FB7F8948091630490916404A0916504FA
:1009E000B091660426B5A89B05C02F3F19F001966B
:1009F000A11DB11D3FBFBA2FA92F982F8827820FA5
:100A0000911DA11DB11DBC01CD01660F771F881F6F
:100A1000991F660F771F881F991F08958F929F92C5
:100A2000AF92BF92CF92DF92EF92FF926B017C0167
:100A30000E94E8044B015C01C114D104E104F104FB
:100A400039F529C00E947D0210C021E0C21AD108E8
:100A5000E108F10888EE880E83E0981EA11CB11C05
:100A6000C114D104E104F104B1F00E94E804DC01F6
:100A7000CB0188199909AA09BB09883E9340A105B1
:100A8000B10518F7C114D104E104F104D9F603C08B
:100A90000E947D02EACFFF90EF90DF90CF90BF9051
:100AA000AF909F908F900895789484B5826084BDB4
:100AB00084B5816084BD85B5826085BD85B5816062
:100AC00085BDEEE6F0E0808181608083E1E8F0E0C2
:100AD0001082808182608083808181608083E0E8F1
:100AE000F0E0808181608083E1EBF0E080818460D0
:100AF0008083E0EBF0E0808181608083EAE7F0E0D2
:100B00008081846080838081826080838081816035
:100B100080838081806880831092C1000895833033
:100B200069F028F48130B1F08230C1F00895873047
:100B3000C9F08830E9F0843001F506C0E0E8F0E063
:100B400080818F7780830895E0E8F0E080818F7D59
:100B50008083089584B58F7784BD089584B58F7D93
:100B600084BD0895E0EBF0E080818F778083089565
:100B7000E0EBF0E080818F7D80830895CF93DF9359
:100B800090E0FC01E358FF4F2491FC01EF56FF4F2A
:100B90008491882379F190E0880F991FFC01E75434
:100BA000FF4FA591B491FC01E155FF4FC591D49140
:100BB00061110CC09FB7F8948C91E22FE0958E23C1
:100BC0008C932881E223E8839FBF14C0623061F4D4
:100BD0009FB7F8948C91322F309583238C93E881C2
:100BE000E22BE8839FBF06C08FB7F894EC91E22B0D
:100BF000EC938FBFDF91CF9108951F93CF93DF9335
:100C0000282F30E0F901E759FF4F8491F901E358AB
:100C1000FF4F1491F901EF56FF4FC491CC23D1F04F
:100C2000D62F81110E948F05EC2FF0E0EE0FFF1FF1
:100C3000E155FF4FA591B4918FB7F894D11106C03B
:100C40009C91E12FE095E923EC9303C0EC91E12B1B
:100C5000EC938FBFDF91CF911F910895209169058B
:100C600030916A052817390799F4909167048091AB
:100C70006804981781F0E0916704F0E0E759FB4FB2
:100C80008081209167042F5F2093670490E008958E
:100C90008FEF9FEF08958FEF9FEF089520916905E3
:100CA00030916A052817390799F4209168048091DA
:100CB000670430E03395281B3109307833232CF456
:100CC000215031093F6F2F5F3F4F822F932F08959F
:100CD00080E090E008951F93CF93DF93EC014C8D5B
:100CE0005D8D4115510529F481E090E09B838A8355
:100CF00038C0A989BA898889382F30951FB79E8D49
:100D0000792F727091FD6095F894772321F09C9172
:100D1000982B9C9303C09C9193239C93FA01319749
:100D2000F1F798E060FF04C02C91282B2C9303C0AE
:100D30002C9123232C93FA013197F1F7669591506A
:100D400089F7772321F08C9138233C9303C09C9141
:100D5000892B8C931FBF8C8D9D8D0197F1F741E0FE
:100D600050E0CA01DF91CF911F910895089520911D
:100D7000690530916A052817390771F49091670465
:100D800080916804981759F0E0916704F0E0E75902
:100D9000FB4F808190E008958FEF9FEF08958FEFD4
:100DA0009FEF0895E0916905F0916A05E817F9074A
:100DB00069F4A389B4899C918589809589238C9352
:100DC00010926A051092690581E0089580E0089507
:100DD000CF93DF93EC018A8D9B8D892BF1F080916D
:100DE000690590916A05C817D907C9F0009711F0F5
:100DF0000E94D2068E8D8E7F8E8F10926804109284
:100E00006704D0936A05C0936905EB89FC899081DA
:100E10008D89892B808381E003C080E001C080E060
:100E2000DF91CF9108951F920F920FB60F92112468
:100E30002F933F934F935F936F937F938F939F93E2
:100E4000AF93BF93CF93DF93EF93FF93A091690587
:100E5000B0916A05109709F478C05E968C915E9700
:100E600081FF0DC01E96ED91FC911F9790811D96FC
:100E70008C911D97982381E071F480E00CC01E9640
:100E8000ED91FC911F9790811D968C911D97982351
:100E900081E009F080E0882309F457C05396ED9172
:100EA000FC915497908155968C9155978095892304
:100EB000808356968D919C9157970197F1F758969C
:100EC0006D917C9159971E96CD91DC911F971D963F
:100ED0005C911D9738E040E0FB013197F1F7842FDA
:100EE00090E095958795482F2881252309F0406843
:100EF000315091F75E968C915E9781FD409580917F
:100F000068048F5F20916704281749F0E091680416
:100F1000F0E0E759FB4F40838093680407C05E967A
:100F20008C915E9781605E968C935E975A968D91B8
:100F30009C915B970197F1F75396ED91FC91549733
:100F4000908155968C91892B8083FF91EF91DF9151
:100F5000CF91BF91AF919F918F917F916F915F9151
:100F60004F913F912F910F900FBE0F901F901895AA
:100F70001F93CF93DF93EC01162F6E8D66956170F2
:100F800081E06827812F0E94FD0561E0812F0E948A
:100F9000BE05812F90E0FC01E358FF4FE491E88B00
:100FA000FC01EF56FF4FE491F0E0EE0FFF1FE1551B
:100FB000FF4F859194919A8B898BDF91CF911F91EF
:100FC00008951F93CF93DF93EC01162F60E0812FDC
:100FD0000E94BE058E8D81FD04C061E0812F0E94BC
:100FE000FD051C87612F70E0FB01E358FF4FE49182
:100FF000ED87FB01EF56FF4FE491F0E0EE0FFF1F8E
:10100000EB55FF4F859194919F878E87DF91CF910C
:101010001F9108951F93CF93DF93EC01162F1B822E
:101020001A8288EE93E0A0E0B0E08C839D83AE83CB
:10103000BF8386E391E0998388831F8A1E8A198E75
:10104000188E1B8E1A8E1D8E1C8E8E8D8E7F20FB11
:1010500081F98E8F642FCE010E94B807612FCE01D7
:101060000E94E107DF91CF911F910895CF93DF9305
:10107000EC019A01AB011B8E1A8E198E188E1F8AF5
:101080001E8A60E079E08DE390E00E945210F90141
:101090002430310518F0C901039702C081E090E0C7
:1010A0009D8F8C8F8C85863108F041C0B901769573
:1010B00067956431710518F06351710902C061E0F0
:1010C00070E07F8B6E8B369720F0B9016550710907
:1010D00002C061E070E0798F688FB901660F771FF9
:1010E000260F371F36952795369527952D303105D4
:1010F00010F12C50310921C021E08E3008F420E09D
:1011000081E001C0880F2A95EAF7982B9093680038
:101110009C859830D0F09E3010F1963158F120E047
:1011200030E02AC08D8B8C8D9D8D0197F1F7CE011B
:101130000E94E8062AC021E030E03B8F2A8F909180
:1011400068008830C8F684E0E0CF2DE630E03C8BC4
:101150002B8B81E001C0880F9A95EAF7E3CF2BE64D
:1011600030E03C8B2B8B985081E001C0880F9A9522
:10117000EAF7D8CF2CE630E03C8B2B8B9E5081E0F9
:1011800001C0880F9A95EAF7CDCFDF91CF910895EE
:10119000FC01718360830895CF92DF92EF92FF92FA
:1011A0000F931F93CF93DF937B01EA018901CA015B
:1011B0000E942D0BC8010E942D0B0F2EF4EBCF2E99
:1011C000F3E0DF2EF02DD601ED91FC910280F3814A
:1011D000E02D43E150E064E471E0C6010995099017
:1011E000D881C02DD601ED91FC910280F381E02DD4
:1011F0004BE150E068E571E0C601099562E070E0FE
:1012000020E030E0209701F1F7014081542F442382
:10121000A1F0D7011196852FFE01E20FF31F92A9CD
:10122000981306C02F5F3F4F293031051CF015C0C1
:1012300020E030E08D918111EFCFCA5BDF4F099044
:10124000D881C02D209719F7D801CD91DC9161503C
:101250007109C1F680E090E002C081E090E0DF918A
:10126000CF911F910F91FF90EF90DF90CF90089555
:10127000CF93DF93EC0164E771E0888199810E944C
:10128000850E888199810E943C0D68E771E0888114
:1012900099810E94850E888199810E943C0D62E8A7
:1012A00071E0888199810E94850E888199810E94D0
:1012B0003C0DDF91CF910895CF92DF92EF92FF9294
:1012C0000F931F93CF93DF93EC016B017A01088199
:1012D000198166E871E0C80104960E94A211892B69
:1012E000A1F16BE871E0C8010E94850E88819981A7
:1012F0000E943C0D688179816C5F7F4F9701A60148
:10130000CE010E94CC08019791F4E091B403F091D2
:10131000B5030280F381E02D41E250E063E971E022
:1013200084EB93E00995CE010E9438090EC0E0914C
:10133000B403F091B5030280F381E02D42E150E067
:1013400065EB71E084EB93E00995DF91CF911F91FC
:101350000F91FF90EF90DF90CF9008950E945D0F66
:101360000895DA010D900020E9F71197A41BB50B41
:10137000CD0102970A976CF01B97FA01EA0FFB1F49
:10138000DB019B01275F3F4F81918D93A217B3072C
:10139000D9F7FB0111860895CF92DF92EF92FF9269
:1013A0000F931F93CF93DF93CDB7DEB7EC970FB6B4
:1013B000F894DEBF0FBECDBFFC01EC5FFE4F208175
:1013C000222309F470C08E010D5C1F4F2AE0D80162
:1013D0001D922A95E9F7DE01119622E3FD01119293
:1013E0002A95E9F728E0E8ECF1E001900D922A95C2
:1013F000E1F77C01F4E0EF0EF11CA701B8010E94B7
:10140000B1090F2EF4EBCF2EF3E0DF2EF02DD60135
:10141000ED91FC910280F381E02D41E150E060ED1F
:1014200071E0C6010995F80101900020E9F73197B4
:10143000AF01401B510BD601ED91FC910280F3816D
:10144000E02DB801C6010995D601ED91FC9102800D
:10145000F381E02D41E050E06BE373E0C6010995B4
:1014600062EE71E0C7010E94A211892B71F0E09138
:10147000B403F091B5030280F381E02D48E150E020
:101480006AEE71E0C60109950EC0E091B403F091D7
:10149000B5030280F381E02D48E150E063E072E0A3
:1014A00084EB93E00995EC960FB6F894DEBF0FBE7F
:1014B000CDBFDF91CF911F910F91FF90EF90DF9003
:1014C000CF9008950F931F93CF93DF93EC018A0180
:1014D000FC01EA5BFF4F118210823296118210826A
:1014E0000E949B11B801CE01C2960E949B11DF9110
:1014F000CF911F910F910895FC01118210821382E8
:10150000128204960E949B110895FC012081318172
:101510002115310519F47383628305C0D901A85BD5
:10152000BF4F6D937C9380819181DB01AA5BBF4F9C
:101530008D939C9371836083FB01E85BFF4F118265
:1015400010820895AF92BF92CF92DF92EF92FF92F6
:101550000F931F93CF93DF9300D0CDB7DEB76C010D
:101560007B018A012130310509F052C08AE490E004
:101570000E94D9025C01A801B7010E94620AA1146D
:10158000B10479F4E091B403F091B5030280F381E2
:10159000E02D4DE150E06CE172E084EB93E00995C1
:1015A0004FC0B501C6010E94850AE091B403F091D5
:1015B000B5030280F381E02D49E050E06AE372E078
:1015C00084EB93E009950115110599F0F80101905C
:1015D0000020E9F73197AF01401B510BE091B403B4
:1015E000F091B5030280F381E02DB80184EB93E024
:1015F0000995E091B403F091B5030280F381E02DE9
:1016000044E150E064E472E084EB93E0099518C093
:1016100022303105A9F4CE0101960E94B10BA80138
:10162000B701CE0101960E946B0C21E030E0A801C9
:10163000B701C6010E94A20ACE0101960E94B20B18
:101640000F900F90DF91CF911F910F91FF90EF902E
:10165000DF90CF90BF90AF9008950F931F93CF93DB
:10166000DF93DC011296CD91DC911397BC016C5F86
:101670007F4F91F0FB0101900020E9F73197AF0116
:10168000461B570BE091B403F091B5030280F38140
:10169000E02D84EB93E00995E091B403F091B5035C
:1016A0000280F381E02D41E050E06BE373E084EBD6
:1016B00093E00995209709F449C004EB13E0BE01BB
:1016C0006E5C7F4F81F0FB0101900020E9F73197BC
:1016D000AF01461B570BD801ED91FC910280F381BD
:1016E000E02DC8010995D801ED91FC910280F381AC
:1016F000E02D45E050E069E572E0C8010995FE0182
:10170000209781F001900020E9F73197AF014C1B41
:101710005D0BD801ED91FC910280F381E02DBE01BB
:10172000C8010995D801ED91FC910280F381E02D6B
:1017300041E050E06BE373E0C8010995CA5BDF4FFD
:101740000990D881C02D209709F0B9CF68EE73E0D9
:1017500080E090E00E940E05DF91CF911F910F91E4
:10176000089508950895CF93DF93C0E0D0E0CE01AF
:101770000E94BC11882341F02196C11584E0D8074E
:10178000B1F780E094E002C08C2F9D2FDF91CF91C4
:1017900008952F923F924F925F926F927F928F9215
:1017A0009F92AF92BF92CF92DF92EF92FF920F93F0
:1017B0001F93CF93DF93CDB7DEB7C654D1090FB6D1
:1017C000F894DEBF0FBECDBF3C012B010E94B30BCE
:1017D000D3018D939C93FE01319624E1DF011D928C
:1017E0002A95E9F7749622E3DF011D922A95E9F71D
:1017F000181619060CF055C05F0174977F0100E0C0
:1018000010E0812C912CC12CD12C212C312CC80121
:101810000E94BC118C32E1F4892841F4D7011C925A
:1018200088248394912CC12CD12C2CC0F5011082DA
:1018300021E030E0AE014F5F5F4FBE016B5E7F4F36
:10184000C2010E94A20A822C932CC12CD12C1AC056
:101850008114910429F0F1E08F16910449F00FC032
:10186000E1E0F0E0EC0FFD1FEC0DFD1D808307C0F3
:10187000E5E1F0E0EC0FFD1FEC0DFD1D80838FEF27
:10188000C81AD80A0F5F1F4F9FEFA91AB90AAFEF06
:10189000EA1AFA0AF30180819181081719070CF4FA
:1018A000B6CFCA5BDF4F0FB6F894DEBF0FBECDBF19
:1018B000DF91CF911F910F91FF90EF90DF90CF902C
:1018C000BF90AF909F908F907F906F905F904F9060
:1018D0003F902F900895CF92DF92EF92FF920F9357
:1018E0001F93CF93DF93EC018B017A010E94B30B1E
:1018F00099838883F70160816623E9F06701FFEF30
:10190000CF1ADF0A88819981811524E0920718F4A3
:101910000E94C41106C06FE572E084EB93E00E9460
:101920000B0388819981019699838883F6016191DF
:101930006F016111E7CF6CE2888199810E94C41127
:1019400088819981019699838883F8016081662353
:10195000D9F00F5F1F4F888199818115F4E09F07AF
:1019600018F40E94C41106C06FE572E084EB93E0A6
:101970000E940B0388819981019699838883F801DD
:1019800061918F016111E7CF6CE2888199810E949A
:10199000C411E091B403F091B5030280F381E02D0E
:1019A00049E050E06AE372E084EB93E00995E114CA
:1019B000F10499F0F70101900020E9F73197AF01A8
:1019C0004E195F09E091B403F091B5030280F381F1
:1019D000E02DB70184EB93E00995E091B403F09119
:1019E000B5030280F381E02D4EE050E064E772E041
:1019F00084EB93E00995DF91CF911F910F91FF90B8
:101A0000EF90DF90CF900895CF93DF93C0E0D0E0C8
:101A100060E0CE010E94C4112196C11584E0D80770
:101A2000B9F7E091B403F091B5030280F381E02DA2
:101A300040E150E063E872E084EB93E00995DF91C8
:101A4000CF910895CF93DF936115710591F0EB016C
:101A50006881662341F0219684EB93E00E94210384
:101A600069916111F9CF6BE373E084EB93E00E941D
:101A70000B03DF91CF910895EF92FF920F931F9385
:101A8000CF93DF93EC012FEF89E698E1215080405E
:101A90009040E1F700C000007E01A4E0EA0EF11CD6
:101AA000CE018C5F9E4FF7011192E817F907E1F71D
:101AB00000E010E088819981DC01ED91FC910084C7
:101AC000F185E02D0995892B79F088819981DC01D8
:101AD000ED91FC910284F385E02D0995F701819346
:101AE0007F010F5F1F4FE6CFFE01E00FF11F148251
:101AF000BE016C5F7F4FCE010E94220DDF91CF911E
:101B00001F910F91FF90EF900895CF93DF93EC0119
:101B10001B821A82FC01349680E091E0DF019C0177
:101B20001D9221503040E1F7F395108231961082DA
:101B3000319610827983688326E040E855E260E0C0
:101B400070E084EB93E00E94800140E855E260E0A1
:101B500070E0888199810E9436083FEF83ED90E321
:101B6000315080409040E1F700C0000064E972E02D
:101B7000888199810E943503CE010E943C0DDF913E
:101B8000CF9108950F931F93CF93DF93EC0167E9F3
:101B900072E0888199810E943503CE010E943C0D3C
:101BA00061EA72E0888199810E943503CE010E942A
:101BB0003C0D8E010C5F1F4F63EB72E0C8010E9469
:101BC000A211892BB1F0E091B403F091B50302802A
:101BD000F381E02D48E150E066EB72E084EB93E0A6
:101BE0000995FE01EB5FFE4FCC5FDE4F888180835D
:101BF00024C06FEC72E0C8010E94A211892B79F019
:101C0000E091B403F091B5030280F381E02D40E24E
:101C100050E065ED72E084EB93E009950EC0E09131
:101C2000B403F091B5030280F381E02D41E250E06E
:101C300066EF72E084EB93E00995DF91CF911F91FD
:101C40000F9108950F931F93CF93DF93DC011296AA
:101C50002D913C9113972B3031050CF44CC0EC01C5
:101C60001B821A8288819981DC01ED91FC910084AC
:101C7000F185E02D0995892B31F468E173E08881C5
:101C800099810E943503CE010E943C0D61E273E010
:101C9000CE0104960E94A211892B49F181E08E01A8
:101CA0000C5F1E4FF8018083E091B403F091B503FF
:101CB0000280F381E02D40E150E06CE273E084EBC0
:101CC00093E00995D8018C91882349F0FE01EB5FE0
:101CD000FE4F8081811103C0CE010E94C20DFE0122
:101CE000EB5FFE4FCC5FDE4F8881808309C0CC5F05
:101CF000DE4F188205C02F5F3F4FFC0133832283E4
:101D0000DF91CF911F910F910895FC018081918106
:101D10000E9435030895FC0112821182748363834B
:101D20001582168217821086259A2D98209A289857
:101D3000559A5D980895CF93DF93CDB7DEB7C15C18
:101D4000D2400FB6F894DEBF0FBECDBF60ED77E096
:101D500080E090E00E940E0520E042E063E0CE01CA
:101D600001960E940A086DE373E0CE0180960E94FE
:101D70007C0A67E473E0CE018A5A9F4F0E947C0A76
:101D8000BE016F5F7F4FCE0184579F4F0E94850D2C
:101D9000BE0164577F4FCE018D569E4F0E94C808EA
:101DA000AE014D565E4FBE0164577F4FCE018B563C
:101DB0009E4F0E94AE09CE0182559D4F0E94B10BED
:101DC000CE0182559D4F0E94040DBE016A5A7F4F7D
:101DD000CE0182559D4F0E94C90B22E030E041E5C3
:101DE00053E06BE573E0CE018A5A9F4F0E94A20A2E
:101DF00080E284B965E270E0CE0180559D4F0E947B
:101E00008B0E6BE270E0CE0187549D4F0E948B0ECB
:101E10002FEF83ED90E3215080409040E1F700C028
:101E20000000E091B403F091B5030280F381E02D4E
:101E300046E050E06AE673E084EB93E009952FEF0B
:101E400083ED90E3215080409040E1F700C0000016
:101E5000CE0184579F4F0E94220ECE0184579F4F80
:101E60000E943C0DAE014A5A5F4FBE01605E7F4F3B
:101E7000CE018B569E4F0E94F50FAE014A5A5F4F1E
:101E8000BE01605E7F4FCE018B569E4F0E94CC09F3
:101E9000AE014A5A5F4FBE01605E7F4FCE018D5644
:101EA0009E4F0E945C092FEF81EE94E0215080400C
:101EB0009040E1F700C00000CBCFCF93DF93FC014F
:101EC000349620E031E0DF01E9011D922197E9F726
:101ED000F3951082319624E1DF011D922A95E9F7EE
:101EE000EC01798368835B834A83DF91CF91089506
:101EF000CF93DF93EC01FB01339760E070E040E0AB
:101F000050E031E080E0DF0193819923B9F0319610
:101F10002C91223231F420812D3019F421812A3084
:101F200019F04130510579F7DE01A60FB71F14965D
:101F30009C936F5F7F4F432F582FE5CFFE01E60F35
:101F4000F71F1482DF91CF9108950F931F93CF93C2
:101F5000DF93EC01CB0161E773E00E94A211FC0169
:101F6000892BC9F09781923269F0DE01AB5FBE4FD9
:101F7000389620E030E09D932F5F3F4F9191923251
:101F8000D1F702C020E030E02C0F3D1FF901EB5FDC
:101F9000FE4F108204C0FE01EB5FFE4F108204EB87
:101FA00013E0D801ED91FC910280F381E02D4CE02B
:101FB00050E067E773E0C8010995BE016B5F7E4F93
:101FC000888199810E94220DD801ED91FC910280B7
:101FD000F381E02D42E050E06AE373E0C801099527
:101FE000DF91CF911F910F910895CF92DF92EF92E1
:101FF000FF920F931F93CF93DF93EC017B016A0154
:10200000088119810C5F1F4F61E773E0C8010E94CE
:10201000A211892BD9F1B801CE010E94A50F96011A
:10202000A701BE016B5F7E4F8A819B810E94CC0815
:102030000197D1F4E091B403F091B5030280F381EC
:10204000E02D48E150E064E873E084EB93E009950B
:10205000688179816C5F7F4FCE010E94780FCC5FE1
:10206000DE4F81E0888315C0E091B403F091B503A1
:102070000280F381E02D45E150E06DE973E084EBEF
:1020800093E00995CC5FDE4F188203C0CC5FDE4F32
:102090001882DF91CF911F910F91FF90EF90DF9009
:1020A000CF900895A1E21A2EAA1BBB1BFD010DC003
:1020B000AA1FBB1FEE1FFF1FA217B307E407F507F8
:1020C00020F0A21BB30BE40BF50B661F771F881FD4
:1020D000991F1A9469F760957095809590959B016A
:1020E000AC01BD01CF010895EE0FFF1F0590F491E3
:1020F000E02D09940F931F93CF93DF9382309105C6
:1021000010F482E090E0E0916D05F0916E0520E022
:1021100030E0A0E0B0E0309719F1408151810281B8
:10212000138148175907C8F08417950769F4109769
:1021300031F012960C93129713961C9327C00093BC
:102140006D0510936E0522C02115310519F0421757
:10215000530718F49A01BD01EF01DF01F801DBCF4D
:1021600021153105F9F0281B390B2430310580F495
:102170008A819B816115710521F0FB019383828324
:1021800004C090936E0580936D05FE01329644C0A5
:10219000FE01E20FF31F819391932250310939839D
:1021A00028833AC020916B0530916C05232B41F4B4
:1021B000209102013091030130936C0520936B054F
:1021C00020910001309101012115310541F42DB715
:1021D0003EB74091040150910501241B350BE0915D
:1021E0006B05F0916C05E217F307A0F42E1B3F0B73
:1021F0002817390778F0AC014E5F5F4F2417350779
:1022000048F04E0F5F1F50936C0540936B05819310
:10221000919302C0E0E0F0E0CF01DF91CF911F91F8
:102220000F910895CF93DF93009709F481C0FC01CB
:10223000329713821282A0916D05B0916E051097AE
:1022400081F420813181820F931F20916B053091A1
:102250006C052817390751F5F0936C05E0936B0571
:1022600067C0ED0120E030E0CE17DF0740F44A817F
:102270005B819E0141155105F1F0EA01F5CFD38351
:10228000C28340815181840F951FC817D90759F423
:1022900088819981840F951F0296918380838A811A
:1022A0009B81938382832115310529F4F0936E0578
:1022B000E0936D053DC0E901FB83EA8349915991A3
:1022C000C40FD51FEC17FD0761F480819181840F45
:1022D000951F0296E90199838883828193819B836C
:1022E0008A83E0E0F0E012968D919C91139700971D
:1022F00019F0FD01DC01F7CF8D919C9111979D01A3
:102300002E5F3F4F820F931F20916B0530916C051C
:102310002817390769F4309729F410926E05109246
:102320006D0502C013821282B0936C05A0936B05F9
:10233000DF91CF910895FB01DC0101900D92002007
:10234000E1F70895FB0151915523A9F0BF01DC018C
:102350004D9145174111E1F759F4CD01019000204D
:1023600049F04D9140154111C9F3FB014111EFCFE7
:1023700081E090E001970895F999FECF92BD81BD6B
:10238000F89A992780B50895262FF999FECF1FBA9C
:1023900092BD81BD20BD0FB6F894FA9AF99A0FBE8E
:0823A00001960895F894FFCFA7
:1023A80000006F052000FF4F044F04000000002BC1
:1023B80001DC02BC0007018E00A8009A00000000A2
:1023C800007E020D0A006E616E00696E66006F760F
:1023D8006600000000006B06DC02E501B6064E064A
:1023E8002E06B706436865636B417574686F72693A
:1023F8007A6174696F6E0A0070686F6E65206E7519
:102408006D6265727320696E20436F6E74616374C8
:10241800733A0A004154410041542B435648553DF4
:1024280030004154480052494E470041542B434C18
:102438004343004E756D62657220617574686F72F2
:10244800697A6564202D3E204F50454E204C4F43FD
:102458004B200A0A004E756D626572204445434C54
:10246800494E4544200A0A00556E6B6E6F776E0020
:102478004E756D6265722072656365697665643A4A
:1024880020004D61737465723A0053686F756C640F
:1024980020616464207065726D616E656E742E2EA5
:1024A800200A0053686F756C642061646420746549
:1024B8006D706F726172792E2E200A006565726FD9
:1024C80072206E657720436F6E74616374206E6F3F
:1024D8007420637265617465640041646465642E88
:1024E8002E2E22002220746F20436F6E7461637455
:1024F800204C697374200A0A0020202020200045FF
:1025080052524F5220454550524F4D206973206614
:10251800756C6C002220746F20454550524F4D2039
:102528000A0A00454550524F4D20636C656172653B
:10253800640A0A0041540041542B434D47463D313B
:102548000041542B434E4D493D312C322C302C3018
:102558002C30004F4B00534D53204D6F646520695C
:102568007320636F6E666967757265640A0A004551
:1025780052524F52004552524F5220696E20534DCD
:1025880053206D6F646520636F6E6669677572614D
:1025980074696F6E0A004E6F20726573706F6E7388
:1025A8006520696E20534D5320636F6E66696775A9
:1025B800726174696F6E0A0041542B435245473F5C
:1025C800002B435245473A20302C310047534D20C9
:1025D800436F6E6E65637465640A0A0A0054656D1C
:1025E800706F72617279005065726D616E656E749C
:1025F80000373836373530393032004D6963686115
:10260800656C205374726569740053746172740A3E
:10261800002B434D543A00534D532073656E646547
:10262800723A2000534D532073656E6465722041E1
:102638005554484F52495A454420210A00534D5396
:102648002073656E646572204445434C494E454489
:04265800200A000054
:00000001FF
