:100000000C9464000C944D040C9474040C9410072C
:100010000C9410070C9410070C948C000C94F003B3
:100020000C948C000C948C000C948C000C948C0020
:100030000C948C000C948C000C948C000C948C0010
:100040000C949B040C948C000C94E8010C942002FA
:100050000C948C000C948C000C948C000C948C00F0
:100060000C948C000C948C0002000000080002012B
:10007000000003040700000000000000000102046B
:10008000081020408001020408102001020408101A
:100090002004040404040404040202020202020311
:1000A00003030303030000000023002600290000CF
:1000B000000000250028002B00000000002400277D
:1000C000002A00005002C00211241FBECFEFD8E06A
:1000D000DEBFCDBF13E0A0E0B1E0E2E4F6E202C093
:1000E00005900D92A038B107D9F725E0A0E8B3E05C
:1000F00001C01D92A733B207E1F710E0C4E6D0E0DB
:1001000004C02197FE010E94FF0FC236D107C9F734
:100110000E94CC020C941F130C940000FC01918DE2
:10012000228D892F90E0805C9F4F821B91098F73F5
:1001300099270895FC01918D828D981731F0828D59
:10014000E80FF11D858D90E008958FEF9FEF0895E2
:10015000FC01918D828D981761F0828DDF01A80FCF
:10016000B11D5D968C91928D9F5F9F73928F90E0F1
:1001700008958FEF9FEF0895FC01238D348D231791
:1001800038F08FE390E0821B9109830F911D089551
:10019000832F90E0821B91090197089586E492E0F5
:1001A000892B49F080E090E0892B29F00E944602DB
:1001B00081110E9400000895FC01848DDF01A80FC9
:1001C000B11DA35ABF4F8C91248D30E02F5F3F4F5C
:1001D0002F733078332334F421503109206C3F6F72
:1001E0002F5F3F4F248FA689B7898C93A089B1894F
:1001F0008C91837080648C93938D848D981306C04A
:100200000288F389E02D80818F7D80830895CF93CC
:10021000DF93EC01888D8823D9F0EA89FB898081FE
:1002200085FD05C0A889B9898C9186FD11C00FB6DE
:1002300007FCF5CF808185FFF2CF04C0CE010E947C
:10024000DC00EBCFA889B9898C9185FFE8CFF6CF88
:10025000DF91CF9108950F931F93CF93DF93EC011C
:1002600081E0888F9B8D8C8D981326C0E889F98951
:10027000808185FD32C020C08C8D18130CC00FB654
:1002800007FCFACFE889F989808185FFF5CFCE0197
:100290000E94DC00F1CF8B8DFE01E80FF11DE35AC7
:1002A000FF4F00839FB7F8941B8FEA89FB898081F9
:1002B000806280839FBF1DC02B8D30E02F5F3F4F3A
:1002C0002F733078332334F421503109206C3F6F81
:1002D0002F5F3F4F062F122FCFCF9FB7F894EE8995
:1002E000FF896083E889F9898081837080648083D5
:1002F0009FBF81E090E0DF91CF911F910F91089512
:10030000CF92DF92EF92FF921F93CF93DF93EC0196
:100310006A017B01122FE889F98982E08083411507
:10032000514E61057105B1F060E079E08DE390E038
:10033000A70196010E94C90FDA01C9010197A1091D
:10034000B109B695A795979587959C01211580E1F0
:100350003807A8F0E889F989108260E874E88EE12E
:1003600090E0A70196010E94C90FDA01C901019727
:10037000A109B109B695A795979587959C01EC853C
:10038000FD853083EE85FF852083188EEC89FD89FD
:100390001083EA89FB89808180618083EA89FB89F7
:1003A000808188608083EA89FB898081806880837E
:1003B000EA89FB8980818F7D8083DF91CF911F91B6
:1003C000FF90EF90DF90CF90089580E090E0089547
:1003D0001F920F920FB60F9211242F938F939F931A
:1003E000AF93BF93EF93FF93E0919003F09191034C
:1003F000808182FD14C0E0E8F3E0A689B7892C91E2
:10040000818D8F5F8F73928D891771F0DF01E18D80
:10041000F0E0E058FC4F258F59968C9305C0E09191
:100420009603F09197038081FF91EF91BF91AF9177
:100430009F918F912F910F900FBE0F901F90189545
:100440001F920F920FB60F9211242F933F934F9349
:100450005F936F937F938F939F93AF93BF93EF932C
:10046000FF9380E893E00E94DC00FF91EF91BF9141
:10047000AF919F918F917F916F915F914F913F913C
:100480002F910F900FBE0F901F90189580E893E06A
:100490000E948E0021E0892B09F420E0822F08952C
:1004A000E0E8F3E01382128288EE93E0A0E0B0E08F
:1004B00084839583A683B78389E091E091838083C9
:1004C00085EC90E09587848784EC90E09787868719
:1004D00080EC90E0918B808B81EC90E0938B828B11
:1004E00082EC90E0958B848B86EC90E0978B868BEA
:1004F000118E128E138E148E089508958F929F92EE
:10050000AF92BF92CF92DF92EF92FF920F931F9321
:10051000CF93DF936C017B014C0182E0880E911C2C
:100520005601E5E0AE0EB11C00E010E0F40161916F
:100530004F014AE050E0C7010E94B203EC016EE2B5
:10054000C7010E941E038C0F9D1F080F191F8A14DC
:100550009B0461F74AE050E0F6016581C7010E9403
:10056000B203800F911FDF91CF911F910F91FF90E8
:10057000EF90DF90CF90BF90AF909F908F900895B5
:10058000EDE1F4E08BE191E09183808312821382AC
:1005900014821582089508950E9451050E94CB028D
:1005A000CEECD0E00E94F00D2097E1F30E94CE0047
:1005B000F9CFCF92DF92EF92FF920F931F93CF93D9
:1005C000DF9341155105C1F06A018C01E62EF72E2B
:1005D000C0E0D0E0D7016D917D01D801ED91FC9193
:1005E0000190F081E02DC8010995892B39F0219601
:1005F000CC16DD0679F702C0C0E0D0E0CE01DF9175
:10060000CF911F910F91FF90EF90DF90CF900895C1
:100610006115710581F0FB0101900020E9F7319728
:10062000AF01461B570BDC01ED91FC910280F38179
:10063000E02D0995089580E090E00895DC01ED91AA
:10064000FC910190F081E02D09950895DC01ED9178
:10065000FC910280F381E02D42E050E06DE171E019
:10066000099508950F931F93CF93DF93EC010E9498
:1006700008038C01CE010E942603800F911FDF9199
:10068000CF911F910F9108958F929F92AF92BF9239
:10069000EF92FF920F931F93CF93DF93CDB7DEB707
:1006A000A1970FB6F894DEBF0FBECDBF7C01CB0182
:1006B000BA0119A2223008F42AE08E010F5D1F4F03
:1006C000822E912CA12CB12CA50194010E94C90F5E
:1006D000E62F622F732F842F952F01501109EA30D6
:1006E00010F4E05D01C0E95CD801EC93611571057F
:1006F0008105910549F70115110591F0F801019067
:100700000020E9F73197AF01401B510BD701ED9164
:10071000FC910280F381E02DB801C701099502C068
:1007200080E090E0A1960FB6F894DEBF0FBECDBF7B
:10073000DF91CF911F910F91FF90EF90BF90AF90FD
:100740009F908F9008952115310549F4DC01ED91BA
:10075000FC910190F081E02D642F099508950E948D
:10076000440308959A01462F50E060E070E00E9433
:10077000A3030895813039F018F0823051F00895C4
:1007800010926E000895EFE6F0E080818D7F808307
:100790000895E0E7F0E080818D7F808381E08093A1
:1007A000B000E1EBF0E08081887F8460808310926C
:1007B000B3000895CF93C82F80910001C81307C0DC
:1007C000E8E6F0E084919FEF9093000101C08FEF85
:1007D0000E94BA0360E08C2F0E94FA05CF91089521
:1007E0001F920F920FB60F9211242F933F934F93A6
:1007F0005F936F937F938F939F93AF93BF93EF9389
:10080000FF938091260490912704A0912804B09131
:100810002904892B8A2B8B2B51F190912304E09191
:100820002404F09125048081892780838091260407
:1008300090912704A0912804B09129041816190654
:100840001A061B06C4F48091260490912704A091F7
:100850002804B09129040197A109B10980932604C5
:1008600090932704A0932804B093290404C0809196
:1008700000010E94DA03FF91EF91BF91AF919F9128
:100880008F917F916F915F914F913F912F910F9039
:100890000FBE0F901F90189508951F920F920FB6DC
:1008A0000F9211242F933F934F935F936F937F93F6
:1008B0008F939F93AF93BF93EF93FF93E0910101C9
:1008C000F09102010995FF91EF91BF91AF919F9136
:1008D0008F917F916F915F914F913F912F910F90E9
:1008E0000FBE0F901F9018951F920F920FB60F9288
:1008F00011242F933F934F935F936F937F938F9325
:100900009F93AF93BF93EF93FF93E0910301F09117
:1009100004010995FF91EF91BF91AF919F918F9144
:100920007F916F915F914F913F912F910F900FBEEB
:100930000F901F9018951F920F920FB60F921124CF
:100940002F933F938F939F93AF93BF9380912B04EB
:1009500090912C04A0912D04B0912E0430912A0482
:1009600023E0230F2D3720F40196A11DB11D05C0F2
:1009700026E8230F0296A11DB11D20932A0480931F
:100980002B0490932C04A0932D04B0932E048091FB
:100990002F0490913004A0913104B091320401965B
:1009A000A11DB11D80932F0490933004A0933104B6
:1009B000B0933204BF91AF919F918F913F912F914E
:1009C0000F900FBE0F901F9018953FB7F89480912D
:1009D0002F0490913004A0913104B091320426B5D7
:1009E000A89B05C02F3F19F00196A11DB11D3FBF67
:1009F000BA2FA92F982F8827820F911DA11DB11DF5
:100A0000BC01CD01660F771F881F991F660F771FE6
:100A1000881F991F08958F929F92AF92BF92CF9295
:100A2000DF92EF92FF926B017C010E94E5044B0183
:100A30005C01C114D104E104F10439F529C00E941C
:100A40007D0210C021E0C21AD108E108F10888EE49
:100A5000880E83E0981EA11CB11CC114D104E104CE
:100A6000F104B1F00E94E504DC01CB018819990979
:100A7000AA09BB09883E9340A105B10518F7C11426
:100A8000D104E104F104D9F603C00E947D02EACF4B
:100A9000FF90EF90DF90CF90BF90AF909F908F909E
:100AA0000895789484B5826084BD84B5816084BDE6
:100AB00085B5826085BD85B5816085BDEEE6F0E0D7
:100AC000808181608083E1E8F0E010828081826033
:100AD0008083808181608083E0E8F0E080818160B4
:100AE0008083E1EBF0E0808184608083E0EBF0E0E4
:100AF000808181608083EAE7F0E080818460808388
:100B00008081826080838081816080838081806831
:100B100080831092C1000895833069F028F48130F9
:100B2000B1F08230C1F008958730C9F08830E9F023
:100B3000843001F506C0E0E8F0E080818F778083A3
:100B40000895E0E8F0E080818F7D8083089584B58A
:100B50008F7784BD089584B58F7D84BD0895E0EBC3
:100B6000F0E080818F7780830895E0EBF0E0808172
:100B70008F7D80830895CF93DF9390E0FC01E3584D
:100B8000FF4F2491FC01EF56FF4F8491882379F1A8
:100B900090E0880F991FFC01E754FF4FA591B49195
:100BA000FC01E155FF4FC591D49161110CC09FB775
:100BB000F8948C91E22FE0958E238C932881E22388
:100BC000E8839FBF14C0623061F49FB7F8948C91A2
:100BD000322F309583238C93E881E22BE8839FBFEB
:100BE00006C08FB7F894EC91E22BEC938FBFDF91A6
:100BF000CF9108951F93CF93DF93282F30E0F90111
:100C0000E759FF4F8491F901E358FF4F1491F9011F
:100C1000EF56FF4FC491CC23D1F0D62F81110E9403
:100C20008C05EC2FF0E0EE0FFF1FE155FF4FA59173
:100C3000B4918FB7F894D11106C09C91E12FE09543
:100C4000E923EC9303C0EC91E12BEC938FBFDF9190
:100C5000CF911F91089520913505309136052817C1
:100C6000390799F49091330480913404981781F0F6
:100C7000E0913304F0E0EB5CFB4F80812091330482
:100C80002F5F2093330490E008958FEF9FEF089536
:100C90008FEF9FEF08952091350530913605281785
:100CA000390799F4209134048091330430E033956E
:100CB000281B3109307833232CF4215031093F6F40
:100CC0002F5F3F4F822F932F089580E090E008958B
:100CD0001F93CF93DF93EC014C8D5D8D4115510532
:100CE00029F481E090E09B838A8338C0A989BA897E
:100CF0008889382F30951FB79E8D792F727091FD9E
:100D00006095F894772321F09C91982B9C9303C0D5
:100D10009C9193239C93FA013197F1F798E060FF3F
:100D200004C02C91282B2C9303C02C9123232C93AB
:100D3000FA013197F1F76695915089F7772321F001
:100D40008C9138233C9303C09C91892B8C931FBFBB
:100D50008C8D9D8D0197F1F741E050E0CA01DF9144
:100D6000CF911F9108950895209135053091360552
:100D70002817390771F4909133048091340498173F
:100D800059F0E0913304F0E0EB5CFB4F808190E0A0
:100D900008958FEF9FEF08958FEF9FEF0895E091F3
:100DA0003505F0913605E817F90769F4A389B48988
:100DB0009C918589809589238C9310923605109299
:100DC000350581E0089580E00895CF93DF93EC012D
:100DD0008A8D9B8D892BF1F0809135059091360598
:100DE000C817D907C9F0009711F00E94CF068E8D61
:100DF0008E7F8E8F1092340410923304D093360578
:100E0000C0933505EB89FC8990818D89892B80837E
:100E100081E003C080E001C080E0DF91CF910895C0
:100E20001F920F920FB60F9211242F933F934F935F
:100E30005F936F937F938F939F93AF93BF93CF9362
:100E4000DF93EF93FF93A0913505B091360510978E
:100E500009F478C05E968C915E9781FF0DC01E9656
:100E6000ED91FC911F9790811D968C911D97982371
:100E700081E071F480E00CC01E96ED91FC911F970B
:100E800090811D968C911D97982381E009F080E058
:100E9000882309F457C05396ED91FC9154979081A3
:100EA00055968C91559780958923808356968D9180
:100EB0009C9157970197F1F758966D917C915997AE
:100EC0001E96CD91DC911F971D965C911D9738E081
:100ED00040E0FB013197F1F7842F90E095958795DD
:100EE000482F2881252309F04068315091F75E96FC
:100EF0008C915E9781FD4095809134048F5F2091A5
:100F00003304281749F0E0913404F0E0EB5CFB4F28
:100F100040838093340407C05E968C915E97816015
:100F20005E968C935E975A968D919C915B970197F4
:100F3000F1F75396ED91FC915497908155968C91D1
:100F4000892B8083FF91EF91DF91CF91BF91AF917A
:100F50009F918F917F916F915F914F913F912F91D1
:100F60000F900FBE0F901F9018951F93CF93DF9394
:100F7000EC01162F6E8D6695617081E06827812FD8
:100F80000E94FA0561E0812F0E94BB05812F90E04D
:100F9000FC01E358FF4FE491E88BFC01EF56FF4F53
:100FA000E491F0E0EE0FFF1FE155FF4F8591949122
:100FB0009A8B898BDF91CF911F9108951F93CF93C7
:100FC000DF93EC01162F60E0812F0E94BB058E8D10
:100FD00081FD04C061E0812F0E94FA051C87612F0A
:100FE00070E0FB01E358FF4FE491ED87FB01EF5602
:100FF000FF4FE491F0E0EE0FFF1FEB55FF4F85919F
:1010000094919F878E87DF91CF911F9108951F93B1
:10101000CF93DF93EC01162F1B821A8288EE93E0A8
:10102000A0E0B0E08C839D83AE83BF8380E391E03A
:10103000998388831F8A1E8A198E188E1B8E1A8E9A
:101040001D8E1C8E8E8D8E7F20FB81F98E8F642FDE
:10105000CE010E94B507612FCE010E94DE07DF910D
:10106000CF911F910895CF93DF93EC019A01AB01CB
:101070001B8E1A8E198E188E1F8A1E8A60E079E0E8
:101080008DE390E00E94C90FF9012430310518F07A
:10109000C901039702C081E090E09D8F8C8F8C8501
:1010A000863108F041C0B9017695679564317105C4
:1010B00018F06351710902C061E070E07F8B6E8BA4
:1010C000369720F0B9016550710902C061E070E007
:1010D000798F688FB901660F771F260F371F3695F6
:1010E0002795369527952D30310510F12C50310973
:1010F00021C021E08E3008F420E081E001C0880F9B
:101100002A95EAF7982B909368009C859830D0F048
:101110009E3010F1963158F120E030E02AC08D8BDE
:101120008C8D9D8D0197F1F7CE010E94E5062AC0B6
:1011300021E030E03B8F2A8F909168008830C8F61C
:1011400084E0E0CF2DE630E03C8B2B8B81E001C0CA
:10115000880F9A95EAF7E3CF2BE630E03C8B2B8B98
:10116000985081E001C0880F9A95EAF7D8CF2CE615
:1011700030E03C8B2B8B9E5081E001C0880F9A950C
:10118000EAF7CDCFDF91CF910895FC0171836083A1
:101190005383428308953F924F925F926F927F9262
:1011A0008F929F92AF92BF92CF92DF92EF92FF9277
:1011B0000F931F93CF93DF935B01FC018281938197
:1011C0000E94DF0A4C01E0918003F09181030280CC
:1011D000F381E02D46E150E06EE371E080E893E0BA
:1011E000099518141904E4F5F5014080E12CF12C5F
:1011F000C0E0D0E00F2EF9E06F2E712CF02D342CD2
:10120000442029F1C7010196B3010E94B50F6C017A
:1012100085010F5F1F4F532CC7018C0F9D1F0E942C
:10122000D212851105C02196C930D1051CF01BC012
:10123000C0E0D0E0C114D10429F4E114F10411F0AC
:10124000C0E0D0E0F80151908F015110E5CFFFEFE1
:10125000EF1AFF0A8E149F0499F680E090E005C013
:1012600080E090E002C081E090E0DF91CF911F919B
:101270000F91FF90EF90DF90CF90BF90AF909F9035
:101280008F907F906F905F904F903F900895CF9395
:10129000DF93EC0165E571E0888199810E945C0D26
:1012A0002FEF87E893E1215080409040E1F700C0A4
:1012B0000000888199810E94E10B69E571E08881D5
:1012C00099810E945C0D2FEF87E893E121508040C7
:1012D0009040E1F700C00000888199810E94E10BF5
:1012E00063E671E0888199810E945C0D2FEF87E8A9
:1012F00093E1215080409040E1F700C000008881D8
:1013000099810E94E10BDF91CF910895EF92FF92B6
:101310000F931F93CF93DF93EC017B010881198119
:1013200067E671E0C8010E940510892B09F44CC0E2
:101330006CE671E0C8010E945C0D888199810E9471
:10134000E10B68817981CE010E94CB08019771F58C
:10135000E0918003F09181030280F381E02D41E26E
:1013600050E064E771E080E893E00995CE010E94C7
:10137000470968EE73E080E090E00E940B05D7011A
:10138000ED91FC910190F081E02DC701099568EE87
:1013900073E080E090E00E940B05D701ED91FC9195
:1013A0000280F381E02DC70109950EC0E091800312
:1013B000F09181030280F381E02D42E150E066E983
:1013C00071E080E893E00995DF91CF911F910F9133
:1013D000FF90EF9008950F931F93CF93DF93EC014D
:1013E0008B01BA01A9010E948E0EC75EDE4F1983E0
:1013F0000883DF91CF911F910F910895DA010D902D
:101400000020E9F71197A41BB50BCD0102970A97AD
:101410006CF01B97FA01EA0FFB1FDB019B01275FB2
:101420003F4F81918D93A217B307D9F7FB01118626
:101430000895CF92DF92EF92FF920F931F93CF9375
:10144000DF93CDB7DEB7CE56D1090FB6F894DEBF25
:101450000FBECDBFFC01F3952081222309F49EC06D
:101460008C01FE01EB59FF4F8AE0DF011D928A9546
:10147000E9F7F29782E3DF011D928A95E9F769EABD
:1014800071E0C8010E940510892B09F444C07E0157
:10149000B5E6EB0EF11CA801B701C8010E94FE09D8
:1014A00088E0E5EBF1E0DE01D39601900D928A959C
:1014B000E1F7FF92EF928DEB91E09F938F93FE0106
:1014C00031966F01FF93EF930E941F10F601019078
:1014D0000020E9F73197AF014C195D09E0918003D5
:1014E000F09181030280F381E02DB60180E893E062
:1014F0000995F801E75EFE4FA701BE016D5C7F4FC5
:10150000808191810E94F50A0F900F900F900F90AB
:101510000F900F9043C063ED71E0C8010E94051069
:10152000892B89F0075E1E4FD8018D919C910E94F6
:10153000880B4DED51E067EE71E0F80180819181FB
:101540000E94F50A2BC066EF71E0C8010E940510E9
:10155000892BB1F0E0918003F09181030280F38147
:10156000E02D48E150E063E072E080E893E0099507
:10157000F801E75EFE4F808191810E94A60B0EC0AC
:10158000E0918003F09181030280F381E02D45E139
:1015900050E06CE172E080E893E00995C259DF4FBA
:1015A0000FB6F894DEBF0FBECDBFDF91CF911F9174
:1015B0000F91FF90EF90DF90CF9008950895CF9313
:1015C000DF93C0E0D0E0CE010E94D212882341F028
:1015D0002196C11584E0D807B1F780E094E002C0FD
:1015E0008C2F9D2FDF91CF910895AF92BF92CF9214
:1015F000DF92EF92FF920F931F93CF93DF93CDB7BC
:10160000DEB7E2970FB6F894DEBF0FBECDBF6B0119
:101610007A010E94DF0A8C01F70160816623C9F01C
:101620005701FFEFAF1ABF0A011584E0180720F435
:10163000C8010E94DA1206C062E372E080E893E01B
:101640000E9408030F5F1F4FF50161915F01611157
:10165000EBCF6CE2C8010E94DA120F5F1F4FF60158
:1016600060816623C9F05601FFEFAF1ABF0A01156A
:1016700084E0180720F4C8010E94DA1206C062E371
:1016800072E080E893E00E9408030F5F1F4FF501AE
:1016900061915F016111EBCF6CE2C8010E94DA1227
:1016A000DF92CF92FF92EF9287E492E09F938F9325
:1016B0008E010F5F1F4F1F930F930E941F10F801A1
:1016C00001900020E9F73197AF01401B510BE091E9
:1016D0008003F09181030280F381E02DB80180E85E
:1016E00093E009950FB6F894DEBF0FBECDBFE2962A
:1016F0000FB6F894DEBF0FBECDBFDF91CF911F9123
:101700000F91FF90EF90DF90CF90BF90AF90089532
:10171000CF93DF93C0E0D0E060E0CE010E94DA1208
:101720002196C11584E0D807B9F7E0918003F091C4
:1017300081030280F381E02D40E150E062E672E037
:1017400080E893E00995DF91CF910895EF92FF92A1
:101750000F931F93CF93DF930E94DF0A7C0118162B
:10176000190644F5C0E0D0E000E010E0CE010E9490
:10177000D2128C3211F40F5F1F4F023011058CF022
:10178000E0918003F09181030280F381E02D41E03C
:1017900050E06AE173E080E893E0099500E010E032
:1017A00005C0682F80E893E00E942B012196EC167B
:1017B000FD06E1F6DF91CF911F910F91FF90EF9021
:1017C0000895CF92DF92EF92FF920F931F93CF93E2
:1017D000DF938C012FEF81EE94E021508040904008
:1017E000E1F700C000007801C8019395F80111925B
:1017F000E817F907E1F7F801EE5FFE4F808191816C
:10180000DC01ED91FC910084F185E02D0995892B97
:10181000C9F1C0E0D0E06801BEEFCB1ADB0AF601E7
:1018200080819181DC01ED91FC910084F185E02DB6
:101830000995892B79F0F60180819181DC01ED9188
:10184000FC910284F385E02D0995F70181937F01D6
:101850002196E5CFC00FD11F1882F801309791F083
:1018600001900020E9F73197AF01401B510BE09147
:101870008003F09181030280F381E02DB80180E8BC
:1018800093E00995DF91CF911F910F91FF90EF9019
:10189000DF90CF9008950F931F93CF93DF93EC01C8
:1018A00080E091E0FE019C01119221503040E1F76F
:1018B000FE01F39582E390E0918380833496108259
:1018C00031961082319610828E010E5F1E4FF80104
:1018D0007183608326E040E855E260E070E080E8D4
:1018E00093E00E94800140E855E260E070E0F8017A
:1018F000808191810E943308FFEF23ED30E3F150A6
:1019000020403040E1F700C0000063E772E0F801DA
:10191000808191810E943203CE010E94E10BDF9110
:10192000CF911F910F9108950F931F93CF93DF9342
:10193000EC018C010E5F1E4F66E772E0F8018081BA
:1019400091810E943203CE010E94E10B60E872E0B7
:10195000F801808191810E943203CE010E94E10B47
:1019600062E972E0CE010E940510892BB1F0E0918E
:101970008003F09181030280F381E02D48E150E083
:1019800065E972E080E893E00995FE01EB5FFE4FA8
:10199000CC5FDE4F8881808324C06EEA72E0CE0186
:1019A0000E940510892B79F0E0918003F09181036A
:1019B0000280F381E02D40E250E064EB72E080E8C9
:1019C00093E009950EC0E0918003F09181030280BD
:1019D000F381E02D41E250E065ED72E080E893E0B4
:1019E0000995DF91CF911F910F9108950F931F9348
:1019F000CF93DF93FC01F3952081318122333105B0
:101A00000CF44FC0EC0111821082329680819181DA
:101A1000DC01ED91FC910084F185E02D0995892B85
:101A200049F467EF72E0FE01EE5FFE4F8081918125
:101A30000E943203CE010E94E10B60E073E0CE0110
:101A40000E940510892B49F181E08E010C5F1E4F29
:101A5000F8018083E0918003F09181030280F3819B
:101A6000E02D40E150E06BE073E080E893E0099501
:101A7000D8018C91882349F0FE01EB5FFE4F8081F5
:101A8000811103C0CE010E94940CFE01EB5FFE4F5A
:101A9000CC5FDE4F888180830AC0CC5FDE4F188226
:101AA00006C0FC01F3952F5F3F4F31832083DF9108
:101AB000CF911F910F9108958E5F9E4FFC01808101
:101AC00091810E9432030895FC0112821182748375
:101AD00063831582168217821086259A2D98209A84
:101AE0002898559A5D9808950F931F93FC016830CC
:101AF000710570F501E010E002C0000F111F6A953A
:101B0000E2F7012E000C220B330B442369F0858190
:101B10009681A781B085082B192B2A2B3B2B058397
:101B200016832783308710C0009510952095309537
:101B300085819681A781B085082319232A233B2319
:101B40000583168327833087A381B48185818C9395
:101B50001F910F910895FC01818192811816190639
:101B60000CF51282118268307105F8F481E090E082
:101B700002C0880F991F6A95E2F7092E000CAA0B84
:101B8000BB0B458156816781708584279527A627E1
:101B9000B72785839683A783B0870380F481E02DE0
:101BA000808308950196928381830895FC01648166
:101BB000758140E0828193810E94740D0895FC013B
:101BC0006481758141E0828193810E94740D089542
:101BD000FC0164817581828193810E94AB0D08951F
:101BE000CF93DF93CDB7DEB7CE55D2400FB6F89482
:101BF000DEBF0FBECDBF20E042E063E0CE01019624
:101C00000E940708CE0180960E94DE0ABE016F5F27
:101C10007F4FCE0181960E944B0CAE01405E5F4F1C
:101C2000BE016F5D7F4FCE01885D9E4F0E94C5084B
:101C30009E01285D3E4FAE014F5D5F4FBE01605E6D
:101C40007F4FCE01845D9E4F0E94EB09CE018096AE
:101C50000E94880B4DED51E067EE71E0CE01809659
:101C60000E94F50A8E01095B1D4F65E270E0C80114
:101C70000E94640D6BE270E0CE01805B9D4F0E947C
:101C8000640D87E293E0C75ADD4F99838883C95575
:101C9000D240C55ADD4F19830883CB55D240C35A71
:101CA000DD4F19821882CD55D240E0918003F0912A
:101CB00081030280F381E02D46E050E06CE173E0A7
:101CC00080E893E009952FEF83ED90E32150804069
:101CD0009040E1F700C00000CE0181960E94F60C12
:101CE000CE0181960E94E10BCE01845D9E4F0E9441
:101CF0005F0FCE01845D9E4F0E94190ABE01675A94
:101D00007D4FCE01885D9E4F0E94860965E070E0A0
:101D1000CE01895B9D4F0E94AB0DDECF20E031E00C
:101D2000DC01F9011D923197E9F7FC01F39510826E
:101D3000319624E1DF011D922A95E9F774967183AB
:101D400060833296518340830895CF93DF93EB01F4
:101D5000FA01339740E050E020E030E071E060E0CD
:101D6000DF0183818823B1F031969C91923231F466
:101D700090819D3019F491819A3019F0213031050C
:101D800079F7DE01A40FB51F8C934F5F5F4F272FAC
:101D9000362FE6CFFE01E40FF51F1082E09180039D
:101DA000F09181030280F381E02D40E150E06DE28B
:101DB00073E080E893E00995209799F0FE01019087
:101DC0000020E9F73197AF014C1B5D0BE0918003D8
:101DD000F09181030280F381E02DBE0180E893E061
:101DE0000995E0918003F09181030280F381E02D59
:101DF00041E050E06AE173E080E893E00995DF910B
:101E0000CF9108950F931F93CF93DF93EC018B0134
:101E1000CA016EE373E00E940510FC01892BB1F04A
:101E20009781923261F0D801389620E030E09D939E
:101E30002F5F3F4FA90191919232C9F702C040E054
:101E400050E0F801E40FF51F108202C0F801108283
:101E5000E0918003F09181030280F381E02D4CE05A
:101E600050E064E473E080E893E00995BE016F5FA1
:101E70007E4F91F0FB0101900020E9F73197AF010F
:101E8000461B570BE0918003F09181030280F381A0
:101E9000E02D80E893E00995E0918003F0918103C3
:101EA0000280F381E02D42E050E069E173E080E8D8
:101EB00093E00995DF91CF911F910F9108950F93B2
:101EC0001F93CF93DF93EC01FC01EB5EFE4F00818B
:101ED00011816EE373E0C8010E940510892BF1F1B6
:101EE000A8018E010F5F1E4FB801CE010E94020FA4
:101EF000B801FE01E95EFE4F808191810E94CB080E
:101F00000197D9F4E0918003F09181030280F3817D
:101F1000E02D48E150E061E573E080E893E0099549
:101F2000FE01EB5EFE4F40815181BE01CE010E9459
:101F3000A50ED39581E0888313C0E0918003F091D2
:101F400081030280F381E02D45E150E06AE673E011
:101F500080E893E00995D395188202C0D395188242
:101F6000DF91CF911F910F91089597FB072E16F4E3
:101F7000009407D077FD09D00E94EB0F07FC05D035
:101F80003EF4909581959F4F0895709561957F4F90
:101F90000895A1E21A2EAA1BBB1BFD010DC0AA1FAA
:101FA000BB1FEE1FFF1FA217B307E407F50720F0C2
:101FB000A21BB30BE40BF50B661F771F881F991F3D
:101FC0001A9469F760957095809590959B01AC0186
:101FD000BD01CF010895AA1BBB1B51E107C0AA1F79
:101FE000BB1FA617B70710F0A61BB70B881F991FBA
:101FF0005A95A9F780959095BC01CD010895EE0FF3
:10200000FF1F0590F491E02D0994FB015191552398
:10201000A9F0BF01DC014D9145174111E1F759F4D9
:10202000CD010190002049F04D9140154111C9F3B7
:10203000FB014111EFCF81E090E001970895AEE000
:10204000B0E0E5E2F0E10C94F6120D891E8986E01D
:102050008C831A8309838FEF9FE79E838D83AE0164
:10206000475E5F4F6F89788DCE0101960E944110C7
:10207000EF81F885E00FF11F10822E96E4E00C94BA
:102080001213ABE0B0E0E7E4F0E10C94E8126C016D
:102090007B018A01FC0117821682838181FFCCC1FA
:1020A000CE0101963C01F6019381F70193FD8591E4
:1020B00093FF81917F01882309F4BAC1853239F4F5
:1020C00093FD859193FF81917F01853229F4B601BB
:1020D00090E00E943812E7CF912C212C312CFFE1A7
:1020E000F315D8F08B3279F038F4803279F08332FE
:1020F000A1F4232D20611DC08D3261F0803369F47D
:10210000232D216016C0832D8260382EE32DE460DC
:102110003E2E2AC0F32DF8601DC037FC2DC020EDE7
:10212000280F2A3040F08E32B9F436FC81C1232DBD
:102130002064322E19C036FE06C08AE0989E200D1B
:102140001124922E11C0EAE02E9E200D1124222E81
:10215000F32DF0623F2E08C08C3621F4832D806869
:10216000382E02C0883641F4F70193FD859193FF24
:1021700081917F018111B3CF982F9F7D955493302A
:1021800028F40C5F1F4F9FE399830DC0833631F015
:10219000833771F0833509F059C021C0F80180817F
:1021A00089830E5F1F4F88248394912C530113C0A1
:1021B0002801F2E04F0E511CF801A080B18036FEDC
:1021C00003C0692D70E002C06FEF7FEFC5010E9470
:1021D0002D124C018201F32DFF773F2E16C02801EE
:1021E00022E0420E511CF801A080B18036FE03C0EF
:1021F000692D70E002C06FEF7FEFC5010E942212CF
:102200004C01F32DF0683F2E820133FC1BC0822D60
:1022100090E088169906B0F4B60180E290E00E9442
:1022200038122A94F4CFF50137FC859137FE81915D
:102230005F01B60190E00E94381221102A9421E03B
:10224000821A91088114910471F7E8C0843611F064
:10225000893641F5F80137FE07C0608171818281BE
:1022600093810C5F1F4F08C060817181072E000CA5
:10227000880B990B0E5F1F4FF32DFF763F2E97FFB4
:1022800009C090958095709561957F4F8F4F9F4FB6
:10229000F0683F2E2AE030E0A3010E947412882EDD
:1022A000861845C0853731F4232D2F7EB22E2AE0C3
:1022B00030E025C0932D997FB92E8F36C1F018F4E8
:1022C000883579F0B5C0803719F0883721F0B0C073
:1022D000E92FE061BE2EB4FE0DC0FB2DF460BF2ED1
:1022E00009C034FE0AC0292F2660B22E06C028E09D
:1022F00030E005C020E130E002C020E132E0F8012A
:10230000B7FE07C060817181828193810C5F1F4F8E
:1023100006C06081718180E090E00E5F1F4FA301D5
:102320000E947412882E8618FB2DFF773F2E36FEF2
:102330000DC0232D2E7FA22E891458F434FE0BC01D
:1023400032FC09C0832D8E7EA82E05C0B82CA32C8C
:1023500003C0B82C01C0B92CA4FE0FC0FE01E80DCB
:10236000F11D8081803321F49A2D997EA92E09C018
:10237000A2FE06C0B394B39404C08A2D867809F0F7
:10238000B394A3FC11C0A0FE06C0B21488F4280CBC
:10239000922C9B180EC0B21460F4B60180E290E05B
:1023A0000E943812B394F7CFB21418F42B1802C05D
:1023B000982C212CA4FE10C0B60180E390E00E946E
:1023C0003812A2FE17C0A1FC03C088E790E002C04B
:1023D00088E590E0B6010CC08A2D867859F0A1FE00
:1023E00002C08BE201C080E2A7FC8DE2B60190E062
:1023F0000E943812891438F4B60180E390E00E94FC
:1024000038129A94F7CF8A94F301E80DF11D808178
:10241000B60190E00E9438128110F5CF222009F415
:1024200042CEB60180E290E00E9438122A94F6CFA4
:10243000F6018681978102C08FEF9FEF2B96E2E134
:102440000C940413FC010590615070400110D8F702
:10245000809590958E0F9F1F0895FC0161507040EC
:1024600001900110D8F7809590958E0F9F1F0895C9
:102470000F931F93CF93DF93FB01238121FD03C0B3
:102480008FEF9FEF2CC022FF16C046815781248119
:1024900035814217530744F4A081B1819D012F5F1C
:1024A0003F4F318320838C93268137812F5F3F4FAD
:1024B0003783268314C08B01EC01FB010084F18576
:1024C000E02D0995892BE1F6D80116968D919C9106
:1024D0001797019617969C938E931697CE01DF91CE
:1024E000CF911F910F910895FA01AA27283051F139
:1024F000203181F1E8946F936E7F6E5F7F4F8F4F35
:102500009F4FAF4FB1E03ED0B4E03CD0670F781F93
:10251000891F9A1FA11D680F791F8A1F911DA11D78
:102520006A0F711D811D911DA11D20D009F46894B1
:102530003F912AE0269F11243019305D3193DEF659
:10254000CF010895462F4770405D4193B3E00FD00F
:10255000C9F7F6CF462F4F70405D4A3318F0495DFA
:1025600031FD4052419302D0A9F7EACFB4E0A695DD
:102570009795879577956795BA95C9F700976105FF
:10258000710508959B01AC010A2E06945795479555
:1025900037952795BA95C9F7620F731F841F951F4A
:1025A000A01D0895F999FECF92BD81BDF89A992793
:1025B00080B50895262FF999FECF1FBA92BD81BD2F
:1025C00020BD0FB6F894FA9AF99A0FBE01960895B5
:1025D0002F923F924F925F926F927F928F929F9233
:1025E000AF92BF92CF92DF92EF92FF920F931F9321
:1025F000CF93DF93CDB7DEB7CA1BDB0B0FB6F894D2
:10260000DEBF0FBECDBF09942A88398848885F8411
:102610006E847D848C849B84AA84B984C884DF8082
:10262000EE80FD800C811B81AA81B981CE0FD11D66
:102630000FB6F894DEBF0FBECDBFED010895F8943C
:02264000FFCFCA
:10264200FF4C044C04000000002B01D902BC00071F
:10265200018E00A8009A00000000007E020D0A0010
:102662006E616E00696E66006F76660000000000A3
:102672006806D902E501B3064B062B06B406436889
:1026820065636B417574686F72697A6174696F6EA4
:102692002E2E2E0A004154410041542B43564855D8
:1026A2003D30004154480052494E470041542B43AB
:1026B2004C4343004E756D62657220617574686F9C
:1026C20072697A6564202D3E204F50454E204C4F52
:1026D200434B200A0A004E756D62657220444543E1
:1026E2004C494E4544200A0A00434D445F4164640C
:1026F2005F4E723A00556E6B6E6F776E004E756D5F
:102702006265722072656365697665643A20257335
:10271200200A00434D445F636C65617200373836AE
:10272200373530393032004D69636861656C20534A
:10273200747265697400434D445F636F6E746163C4
:10274200747300446973706C61797320616C6C20DE
:10275200436F6E74616374733A200A004E6F2043B4
:102762006F6D6D616E642072656365697665642064
:102772000A004552524F5220454550524F4D206952
:10278200732066756C6C0041646465643A2025733D
:102792002C20257309746F20454550524F4D200A55
:1027A2000A00454550524F4D20636C656172656465
:1027B2000A0A0041540041542B434D47463D310023
:1027C20041542B434E4D493D312C322C302C302C70
:1027D20030004F4B00534D53204D6F646520697399
:1027E20020636F6E666967757265640A0A004552F6
:1027F200524F52004552524F5220696E20534D5350
:10280200206D6F646520636F6E66696775726174AF
:10281200696F6E0A004E6F20726573706F6E73651A
:1028220020696E20534D5320636F6E66696775721F
:102832006174696F6E0A0041542B435245473F0051
:102842002B435245473A20302C310047534D204309
:102852006F6E6E65637465640A0A0A00537461726E
:10286200740A0000000000DF0DD60DE80D5265610C
:1028720064656420534D53204D53473A20002B4347
:102882004D543A00534D532073656E6465723A207D
:1028920000534D532073656E646572204155544850
:1028A2004F52495A454420210A00534D5320736523
:1028B2006E646572204445434C494E4544200A00EB
:00000001FF
