:100000000C945A000C9429040C9450040C945C0534
:100010000C945C050C945C050C9482000C94CC034D
:100020000C9482000C9482000C9482000C94820048
:100030000C9482000C9482000C9482000C94820038
:100040000C9477040C9482000C94DB010C94130242
:100050000C9482000C9482000C9482000C94820018
:100060000C9482000C94820002000000080002013F
:10007000000003040700000000000000000102046B
:10008000081020408001020408102001020408101A
:100090002004040404040404040202020202020311
:1000A000030303030300000000250028002B0000C9
:1000B0004302B20211241FBECFEFD8E0DEBFCDBF96
:1000C00011E0A0E0B1E0E4E6FDE002C005900D9291
:1000D000AC32B107D9F722E0ACE2B1E001C01D9229
:1000E000A33EB207E1F710E0CAE5D0E004C02197D3
:1000F000FE010E94AA06C835D107C9F70E94BE02B8
:100100000C94B0060C940000FC01918D228D892F77
:1001100090E0805C9F4F821B91098F73992708950F
:10012000FC01918D828D981731F0828DE80FF11DC1
:10013000858D90E008958FEF9FEF0895FC01918DDC
:10014000828D981761F0828DDF01A80FB11D5D9639
:100150008C91928D9F5F9F73928F90E008958FEFA7
:100160009FEF0895FC01238D348D231738F08FE322
:1001700090E0821B9109830F911D0895832F90E0D9
:10018000821B91090197089589E392E0892B49F038
:1001900080E090E0892B29F00E94390281110E94B1
:1001A00000000895FC01848DDF01A80FB11DA35A42
:1001B000BF4F8C91248D30E02F5F3F4F2F733078ED
:1001C000332334F421503109206C3F6F2F5F3F4FB0
:1001D000248FA689B7898C93A089B1898C9183706B
:1001E00080648C93938D848D981306C00288F38964
:1001F000E02D80818F7D80830895CF93DF93EC0184
:10020000888D8823D9F0EA89FB89808185FD05C026
:10021000A889B9898C9186FD11C00FB607FCF5CF6E
:10022000808185FFF2CF04C0CE010E94D200EBCFC7
:10023000A889B9898C9185FFE8CFF6CFDF91CF915E
:1002400008950F931F93CF93DF93EC0181E0888F84
:100250009B8D8C8D981326C0E889F989808185FD56
:1002600032C020C08C8D18130CC00FB607FCFACF1B
:10027000E889F989808185FFF5CFCE010E94D200FF
:10028000F1CF8B8DFE01E80FF11DE35AFF4F008384
:100290009FB7F8941B8FEA89FB89808180628083F5
:1002A0009FBF1DC02B8D30E02F5F3F4F2F733078E5
:1002B000332334F421503109206C3F6F2F5F3F4FBF
:1002C000062F122FCFCF9FB7F894EE89FF89608356
:1002D000E889F98980818370806480839FBF81E091
:1002E00090E0DF91CF911F910F910895CF92DF920F
:1002F000EF92FF921F93CF93DF93EC016A017B0192
:10030000122FE889F98982E080834115514E6105F9
:100310007105B1F060E079E08DE390E0A70196010E
:100320000E948806DA01C9010197A109B109B695B1
:10033000A795979587959C01211580E13807A8F02E
:10034000E889F989108260E874E88EE190E0A701FD
:1003500096010E948806DA01C9010197A109B10935
:10036000B695A795979587959C01EC85FD8530837B
:10037000EE85FF852083188EEC89FD891083EA893C
:10038000FB89808180618083EA89FB898081886024
:100390008083EA89FB89808180688083EA89FB8980
:1003A00080818F7D8083DF91CF911F91FF90EF90AF
:1003B000DF90CF9008951F920F920FB60F921124E5
:1003C0002F938F939F93AF93BF93EF93FF93E091FE
:1003D0003C01F0913D01808182FD14C0ECE2F1E02E
:1003E000A689B7892C91818D8F5F8F73928D891724
:1003F00071F0DF01E18DF0E0E45DFE4F258F59964D
:100400008C9305C0E0914201F09143018081FF91FE
:10041000EF91BF91AF919F918F912F910F900FBE50
:100420000F901F9018951F920F920FB60F921124E4
:100430002F933F934F935F936F937F938F939F93EC
:10044000AF93BF93EF93FF938CE291E00E94D200B1
:10045000FF91EF91BF91AF919F918F917F916F919C
:100460005F914F913F912F910F900FBE0F901F9072
:1004700018958CE291E00E94840021E0892B09F418
:1004800020E0822F0895ECE2F1E01382128288EEE0
:1004900093E0A0E0B0E084839583A683B78389E0EE
:1004A00091E09183808385EC90E09587848784EC4C
:1004B00090E09787868780EC90E0918B808B81EC31
:1004C00090E0938B828B82EC90E0958B848B86EC12
:1004D00090E0978B868B118E128E138E148E08955A
:1004E0008F929F92AF92BF92CF92DF92EF92FF9244
:1004F0000F931F93CF93DF936C017B014C0182E03C
:10050000880E911C5601E5E0AE0EB11C00E010E033
:10051000F40161914F014AE050E0C7010E947C0361
:10052000EC016EE2C7010E94FA028C0F9D1F080FBA
:10053000191F8A149B0461F74AE050E0F6016581B7
:10054000C7010E947C03800F911FDF91CF911F9103
:100550000F91FF90EF90DF90CF90BF90AF909F9062
:100560008F900895E9ECF1E08BE191E09183808335
:100570001282138214821582089508950E94C10484
:100580000E94BD02C4ECD0E00E9450062097E1F327
:100590000E94C400F9CFCF92DF92EF92FF920F93A7
:1005A0001F93CF93DF9341155105C1F06A018C0170
:1005B000E62EF72EC0E0D0E0D7016D917D01D80185
:1005C000ED91FC910190F081E02DC8010995892BF6
:1005D00039F02196CC16DD0679F702C0C0E0D0E0F4
:1005E000CE01DF91CF911F910F91FF90EF90DF909F
:1005F000CF900895DC01ED91FC910190F081E02D08
:1006000009950895DC01ED91FC910280F381E02DC4
:1006100042E050E06DE171E0099508958F929F925C
:10062000AF92BF92EF92FF920F931F93CF93DF93FE
:10063000CDB7DEB7A1970FB6F894DEBF0FBECDBF22
:100640007C01CB01BA0119A2223008F42AE08E0104
:100650000F5D1F4F822E912CA12CB12CA50194016E
:100660000E948806E62F622F732F842F952F01504A
:100670001109EA3010F4E05D01C0E95CD801EC93A7
:10068000611571058105910549F70115110591F075
:10069000F80101900020E9F73197AF01401B510BA1
:1006A000D701ED91FC910280F381E02DB801C701E3
:1006B000099502C080E090E0A1960FB6F894DEBFE5
:1006C0000FBECDBFDF91CF911F910F91FF90EF90A3
:1006D000BF90AF909F908F9008952115310549F4F8
:1006E000DC01ED91FC910190F081E02D642F0995E2
:1006F00008950E940E0308959A01462F50E060E08D
:1007000070E00E946D0308950F931F93CF93DF93C2
:10071000EC010E946D038C01CE010E940203800F48
:10072000911FDF91CF911F910F910895813039F082
:1007300018F0823051F0089510926E000895EFE69F
:10074000F0E080818D7F80830895E0E7F0E0808194
:100750008D7F808381E08093B000E1EBF0E08081C9
:10076000887F846080831092B3000895CF93C82F50
:1007700080910001C81307C0E8E6F0E084919FEF84
:100780009093000101C08FEF0E94960360E08C2FD0
:100790000E942B05CF9108951F920F920FB60F92D2
:1007A00011242F933F934F935F936F937F938F9376
:1007B0009F93AF93BF93EF93FF938091D20190915A
:1007C000D301A091D401B091D501892B8A2B8B2B19
:1007D00051F19091CF01E091D001F091D101808150
:1007E000892780838091D2019091D301A091D40177
:1007F000B091D501181619061A061B06C4F480918B
:10080000D2019091D301A091D401B091D50101976B
:10081000A109B1098093D2019093D301A093D4018F
:10082000B093D50104C0809100010E94B603FF91EE
:10083000EF91BF91AF919F918F917F916F915F9158
:100840004F913F912F910F900FBE0F901F901895D1
:1008500008951F920F920FB60F9211242F933F937A
:100860004F935F936F937F938F939F93AF93BF93B8
:10087000EF93FF93E0910101F09102010995FF913F
:10088000EF91BF91AF919F918F917F916F915F9108
:100890004F913F912F910F900FBE0F901F90189581
:1008A0001F920F920FB60F9211242F933F934F93E5
:1008B0005F936F937F938F939F93AF93BF93EF93C8
:1008C000FF93E0910301F09104010995FF91EF91ED
:1008D000BF91AF919F918F917F916F915F914F9158
:1008E0003F912F910F900FBE0F901F9018951F9260
:1008F0000F920FB60F9211242F933F938F939F93D4
:10090000AF93BF938091D7019091D801A091D90165
:10091000B091DA013091D60123E0230F2D3720F476
:100920000196A11DB11D05C026E8230F0296A11D49
:10093000B11D2093D6018093D7019093D801A09345
:10094000D901B093DA018091DB019091DC01A09193
:10095000DD01B091DE010196A11DB11D8093DB0187
:100960009093DC01A093DD01B093DE01BF91AF91C4
:100970009F918F913F912F910F900FBE0F901F90DD
:100980001895789484B5826084BD84B5816084BDF7
:1009900085B5826085BD85B5816085BDEEE6F0E0F8
:1009A000808181608083E1E8F0E010828081826054
:1009B0008083808181608083E0E8F0E080818160D5
:1009C0008083E1EBF0E0808184608083E0EBF0E005
:1009D000808181608083EAE7F0E0808184608083A9
:1009E0008081826080838081816080838081806853
:1009F00080831092C1000895833069F028F481301B
:100A0000B1F08230C1F008958730C9F08830E9F044
:100A1000843001F506C0E0E8F0E080818F778083C4
:100A20000895E0E8F0E080818F7D8083089584B5AB
:100A30008F7784BD089584B58F7D84BD0895E0EBE4
:100A4000F0E080818F7780830895E0EBF0E0808193
:100A50008F7D808308951F93CF93DF93282F30E0FD
:100A6000F901E759FF4F8491F901E358FF4F1491C1
:100A7000F901EF56FF4FC491CC23D1F0D62F81114D
:100A80000E94FC04EC2FF0E0EE0FFF1FEB55FF4F30
:100A9000A591B4918FB7F894D11106C09C91E12F24
:100AA000E095E923EC9303C0EC91E12BEC938FBF2D
:100AB000DF91CF911F9108951F920F920FB60F9261
:100AC00011242F933F934F935F936F937F938F9353
:100AD0009F93AF93BF93CF93DF93EF93FF93A09137
:100AE000E102B091E202109709F478C05E968C9111
:100AF0005E9781FF0DC01E96ED91FC911F9790812E
:100B00001D968C911D97982381E071F480E00CC0B4
:100B10001E96ED91FC911F9790811D968C911D97CB
:100B2000982381E009F080E0882309F457C05396A8
:100B3000ED91FC915497908155968C9155978095A5
:100B40008923808356968D919C9157970197F1F751
:100B500058966D917C9159971E96CD91DC911F9777
:100B60001D965C911D9738E040E0FB013197F1F74D
:100B7000842F90E095958795482F2881252309F0AB
:100B80004068315091F75E968C915E9781FD40955B
:100B90008091E0018F5F2091DF01281749F0E091FB
:100BA000E001F0E0EF51FE4F40838093E00107C089
:100BB0005E968C915E9781605E968C935E975A9656
:100BC0008D919C915B970197F1F75396ED91FC9174
:100BD0005497908155968C91892B8083FF91EF914A
:100BE000DF91CF91BF91AF919F918F917F916F9145
:100BF0005F914F913F912F910F900FBE0F901F90DB
:100C00001895E62FF0E0DC01ED93FC931082FC01D7
:100C100012821382148215820895CF93DF939B0171
:100C20002150310928303105C0F5242FEC016150E5
:100C3000710941E050E002C0440F551F6A95E2F788
:100C4000052E000C660B770B222399F08A819B817D
:100C5000AC81BD81842B952BA62BB72B8A839B83DC
:100C6000AC83BD832AE030E08CE291E00E948403F3
:100C700010C040955095609570958A819B81AC819C
:100C8000BD81482359236A237B234A835B836C837A
:100C90007D83E881F9818A818083DF91CF910895F6
:100CA000CF93DF9300D000D000D0CDB7DEB726E0E1
:100CB00040E855E260E070E08CE291E00E9476014D
:100CC00080E284B965E2CE0101960E94010641E00E
:100CD00066E070E0CE0101960E940D062FEF89E6D6
:100CE00098E1215080409040E1F700C0000040E0D2
:100CF00066E070E0CE0101960E940D062FEF89E6B6
:100D000098E1215080409040E1F700C00000DFCF23
:100D1000A1E21A2EAA1BBB1BFD010DC0AA1FBB1FFF
:100D2000EE1FFF1FA217B307E407F50720F0A21B71
:100D3000B30BE40BF50B661F771F881F991F1A94DE
:100D400069F760957095809590959B01AC01BD0108
:100D5000CF010895EE0FFF1F0590F491E02D099447
:040D6000F894FFCF35
:100D6400FF28042804000000002101CB02B200FD8A
:100D74000084009E0090000000000070020D0A0034
:0C0D84006E616E00696E66006F7666009E
:00000001FF
